{
  "_format": "hh-sol-artifact-1",
  "contractName": "RewardExtension",
  "sourceName": "SpaceDaoRewardExtension.sol",
  "abi": [
    {
      "inputs": [],
      "stateMutability": "nonpayable",
      "type": "constructor"
    },
    {
      "inputs": [],
      "name": "InvalidInitialization",
      "type": "error"
    },
    {
      "inputs": [],
      "name": "NotInitializing",
      "type": "error"
    },
    {
      "anonymous": false,
      "inputs": [
        {
          "indexed": true,
          "internalType": "uint256",
          "name": "id",
          "type": "uint256"
        },
        {
          "indexed": true,
          "internalType": "address",
          "name": "approver",
          "type": "address"
        }
      ],
      "name": "Approved",
      "type": "event"
    },
    {
      "anonymous": false,
      "inputs": [
        {
          "indexed": true,
          "internalType": "uint256",
          "name": "id",
          "type": "uint256"
        }
      ],
      "name": "BatchExecuted",
      "type": "event"
    },
    {
      "anonymous": false,
      "inputs": [
        {
          "indexed": false,
          "internalType": "uint64",
          "name": "version",
          "type": "uint64"
        }
      ],
      "name": "Initialized",
      "type": "event"
    },
    {
      "anonymous": false,
      "inputs": [
        {
          "indexed": true,
          "internalType": "uint256",
          "name": "id",
          "type": "uint256"
        },
        {
          "indexed": true,
          "internalType": "address",
          "name": "proposer",
          "type": "address"
        },
        {
          "indexed": false,
          "internalType": "uint256",
          "name": "count",
          "type": "uint256"
        }
      ],
      "name": "ProposalCreated",
      "type": "event"
    },
    {
      "inputs": [],
      "name": "REQUIRED_APPROVALS",
      "outputs": [
        {
          "internalType": "uint256",
          "name": "",
          "type": "uint256"
        }
      ],
      "stateMutability": "view",
      "type": "function"
    },
    {
      "inputs": [
        {
          "internalType": "uint256",
          "name": "_id",
          "type": "uint256"
        }
      ],
      "name": "approveAndExecute",
      "outputs": [],
      "stateMutability": "nonpayable",
      "type": "function"
    },
    {
      "inputs": [],
      "name": "dao",
      "outputs": [
        {
          "internalType": "contract ISpaceDAO",
          "name": "",
          "type": "address"
        }
      ],
      "stateMutability": "view",
      "type": "function"
    },
    {
      "inputs": [
        {
          "internalType": "uint256",
          "name": "_id",
          "type": "uint256"
        }
      ],
      "name": "getProposalInfo",
      "outputs": [
        {
          "internalType": "address",
          "name": "token",
          "type": "address"
        },
        {
          "internalType": "uint256",
          "name": "count",
          "type": "uint256"
        },
        {
          "internalType": "uint256",
          "name": "approvals",
          "type": "uint256"
        },
        {
          "internalType": "bool",
          "name": "executed",
          "type": "bool"
        }
      ],
      "stateMutability": "view",
      "type": "function"
    },
    {
      "inputs": [
        {
          "internalType": "address",
          "name": "_dao",
          "type": "address"
        }
      ],
      "name": "initialize",
      "outputs": [],
      "stateMutability": "nonpayable",
      "type": "function"
    },
    {
      "inputs": [
        {
          "internalType": "uint256",
          "name": "",
          "type": "uint256"
        }
      ],
      "name": "proposals",
      "outputs": [
        {
          "internalType": "uint256",
          "name": "id",
          "type": "uint256"
        },
        {
          "internalType": "address",
          "name": "token",
          "type": "address"
        },
        {
          "internalType": "uint256",
          "name": "approvalCount",
          "type": "uint256"
        },
        {
          "internalType": "bool",
          "name": "executed",
          "type": "bool"
        }
      ],
      "stateMutability": "view",
      "type": "function"
    },
    {
      "inputs": [
        {
          "internalType": "address",
          "name": "_token",
          "type": "address"
        },
        {
          "components": [
            {
              "internalType": "address",
              "name": "recipient",
              "type": "address"
            },
            {
              "internalType": "uint256",
              "name": "amount",
              "type": "uint256"
            }
          ],
          "internalType": "struct RewardExtension.TransferPair[]",
          "name": "_pairs",
          "type": "tuple[]"
        }
      ],
      "name": "proposeBatch",
      "outputs": [],
      "stateMutability": "nonpayable",
      "type": "function"
    }
  ],
  "bytecode": "0x608060405234801561001057600080fd5b5061001961001e565b6100d0565b7ff0c57e16840df040f15088dc2f81fe391c3923bec73e23a9662efc9c229c6a00805468010000000000000000900460ff161561006e5760405163f92ee8a960e01b815260040160405180910390fd5b80546001600160401b03908116146100cd5780546001600160401b0319166001600160401b0390811782556040519081527fc7f505b2f371ae2175ee4913f4499e1f2633a7b5936321eed1cdaeb6115181d29060200160405180910390a15b50565b610bfd806100df6000396000f3fe608060405234801561001057600080fd5b506004361061007d5760003560e01c8063599c55331161005b578063599c553314610104578063bc903cb81461011a578063c4d66de814610159578063fa01d9ba1461016c57600080fd5b8063013cf08b14610082578063374c4545146100c45780634162169f146100d9575b600080fd5b610095610090366004610925565b61017f565b604080519485526001600160a01b03909316602085015291830152151560608201526080015b60405180910390f35b6100d76100d2366004610956565b6101c5565b005b6000546100ec906001600160a01b031681565b6040516001600160a01b0390911681526020016100bb565b61010c600281565b6040519081526020016100bb565b61012d610128366004610925565b6103ec565b604080516001600160a01b039095168552602085019390935291830152151560608201526080016100bb565b6100d76101673660046109de565b610449565b6100d761017a366004610925565b61056b565b6001818154811061018f57600080fd5b600091825260209091206006909102018054600182015460038301546004909301549193506001600160a01b0316919060ff1684565b600054604051631204dbdd60e31b81523360048201526001600160a01b0390911690639026dee890602401602060405180830381865afa15801561020d573d6000803e3d6000fd5b505050506040513d601f19601f820116820180604052508101906102319190610a02565b6102825760405162461bcd60e51b815260206004820152601a60248201527f5265776172644578743a204e6f7420612044414f2061646d696e00000000000060448201526064015b60405180910390fd5b8015801590610292575060648111155b6102ce5760405162461bcd60e51b815260206004820152600d60248201526c496e76616c696420706169727360981b6044820152606401610279565b600180548082018083556000838152919290839081106102f0576102f0610a24565b600091825260208220600691909102018381556001810180546001600160a01b0319166001600160a01b03891617905591505b83811015610384578160020185858381811061034157610341610a24565b83546001810185556000948552602090942060409091029290920192600202909101905061036f8282610a3a565b5050808061037c90610a70565b915050610323565b5033600081815260058301602052604090819020805460ff1916600190811790915560038401555183907f3417b456fad6209c73445d5efd446d686e75e4560f0f50c13b5a5cde976447b4906103dd9087815260200190565b60405180910390a35050505050565b60008060008060006001868154811061040757610407610a24565b600091825260209091206006909102016001810154600282015460038301546004909301546001600160a01b039092169990985091965060ff16945092505050565b7ff0c57e16840df040f15088dc2f81fe391c3923bec73e23a9662efc9c229c6a008054600160401b810460ff16159067ffffffffffffffff1660008115801561048f5750825b905060008267ffffffffffffffff1660011480156104ac5750303b155b9050811580156104ba575080155b156104d85760405163f92ee8a960e01b815260040160405180910390fd5b845467ffffffffffffffff19166001178555831561050257845460ff60401b1916600160401b1785555b600080546001600160a01b0319166001600160a01b038816179055831561056357845460ff60401b19168555604051600181527fc7f505b2f371ae2175ee4913f4499e1f2633a7b5936321eed1cdaeb6115181d29060200160405180910390a15b505050505050565b600054604051631204dbdd60e31b81523360048201526001600160a01b0390911690639026dee890602401602060405180830381865afa1580156105b3573d6000803e3d6000fd5b505050506040513d601f19601f820116820180604052508101906105d79190610a02565b6106235760405162461bcd60e51b815260206004820152601a60248201527f5265776172644578743a204e6f7420612044414f2061646d696e0000000000006044820152606401610279565b60006001828154811061063857610638610a24565b60009182526020909120600690910201600481015490915060ff16156106935760405162461bcd60e51b815260206004820152601060248201526f105b1c9958591e48195e1958dd5d195960821b6044820152606401610279565b33600090815260058201602052604090205460ff16156106e85760405162461bcd60e51b815260206004820152601060248201526f105b1c9958591e48185c1c1c9bdd995960821b6044820152606401610279565b3360009081526005820160205260408120805460ff191660011790556003820180549161071483610a70565b9091555050604051339083907f7b39c92a7e1a86e846edaeff6eba715a046352c596794c2a374269c126a9976890600090a3600281600301541061075b5761075b8161075f565b5050565b60048101805460ff1916600117905560005b60028201548110156108f657600082600201828154811061079457610794610a24565b6000918252602082206002918202015490850180546001600160a01b03909216935090849081106107c7576107c7610a24565b6000918252602082206001600290920201810154908601549092506060919081906001600160a01b031661080f57505060408051602081019091526000815290508282610862565b6001870154604080516001600160a01b03888116602483015260448083018990528351808403909101815260649092019092526020810180516001600160e01b031663a9059cbb60e01b17905294501691505b600054604051639e5d4c4960e01b81526001600160a01b0390911690639e5d4c499061089690859085908890600401610abb565b6000604051808303816000875af11580156108b5573d6000803e3d6000fd5b505050506040513d6000823e601f3d908101601f191682016040526108dd9190810190610b1a565b50505050505080806108ee90610a70565b915050610771565b5080546040517fe9cc9bbe7de1cbb097a6357ca3182909488efe8d793e25665befc064a02d10a790600090a250565b60006020828403121561093757600080fd5b5035919050565b6001600160a01b038116811461095357600080fd5b50565b60008060006040848603121561096b57600080fd5b83356109768161093e565b9250602084013567ffffffffffffffff8082111561099357600080fd5b818601915086601f8301126109a757600080fd5b8135818111156109b657600080fd5b8760208260061b85010111156109cb57600080fd5b6020830194508093505050509250925092565b6000602082840312156109f057600080fd5b81356109fb8161093e565b9392505050565b600060208284031215610a1457600080fd5b815180151581146109fb57600080fd5b634e487b7160e01b600052603260045260246000fd5b8135610a458161093e565b81546001600160a01b0319166001600160a01b03919091161781556020919091013560019190910155565b600060018201610a9057634e487b7160e01b600052601160045260246000fd5b5060010190565b60005b83811015610ab2578181015183820152602001610a9a565b50506000910152565b60018060a01b03841681528260208201526060604082015260008251806060840152610aee816080850160208701610a97565b601f01601f191691909101608001949350505050565b634e487b7160e01b600052604160045260246000fd5b600060208284031215610b2c57600080fd5b815167ffffffffffffffff80821115610b4457600080fd5b818401915084601f830112610b5857600080fd5b815181811115610b6a57610b6a610b04565b604051601f8201601f19908116603f01168101908382118183101715610b9257610b92610b04565b81604052828152876020848701011115610bab57600080fd5b610bbc836020830160208801610a97565b97965050505050505056fea2646970667358221220c7c958fdef09020fb8a7632b82a2b868e5c7950b47449191981da210ea35393064736f6c63430008140033",
  "linkReferences": {},
  "deployedLinkReferences": {}
}