{
  "_format": "hh-sol-artifact-1",
  "contractName": "SpaceDAO",
  "sourceName": "SpaceDao.sol",
  "abi": [
    {
      "inputs": [
        {
          "internalType": "address[]",
          "name": "admins",
          "type": "address[]"
        },
        {
          "components": [
            {
              "internalType": "enum SpaceDAO.SamplingMode",
              "name": "mode",
              "type": "uint8"
            },
            {
              "internalType": "uint256",
              "name": "randomCount",
              "type": "uint256"
            }
          ],
          "internalType": "struct SpaceDAO.SamplingConfig",
          "name": "samplingConfig",
          "type": "tuple"
        }
      ],
      "stateMutability": "nonpayable",
      "type": "constructor"
    },
    {
      "anonymous": false,
      "inputs": [
        {
          "indexed": true,
          "internalType": "address",
          "name": "token",
          "type": "address"
        },
        {
          "indexed": false,
          "internalType": "uint256",
          "name": "count",
          "type": "uint256"
        },
        {
          "indexed": false,
          "internalType": "uint256",
          "name": "value",
          "type": "uint256"
        }
      ],
      "name": "Distributed",
      "type": "event"
    },
    {
      "anonymous": false,
      "inputs": [
        {
          "indexed": false,
          "internalType": "enum SpaceDAO.SamplingMode",
          "name": "mode",
          "type": "uint8"
        },
        {
          "indexed": false,
          "internalType": "uint256",
          "name": "count",
          "type": "uint256"
        }
      ],
      "name": "Sampled",
      "type": "event"
    },
    {
      "anonymous": false,
      "inputs": [
        {
          "indexed": false,
          "internalType": "enum SpaceDAO.SamplingMode",
          "name": "mode",
          "type": "uint8"
        },
        {
          "indexed": false,
          "internalType": "uint256",
          "name": "randomCount",
          "type": "uint256"
        }
      ],
      "name": "SamplingConfigUpdated",
      "type": "event"
    },
    {
      "inputs": [
        {
          "internalType": "address",
          "name": "token",
          "type": "address"
        },
        {
          "internalType": "address[]",
          "name": "recipients",
          "type": "address[]"
        },
        {
          "internalType": "uint256",
          "name": "value",
          "type": "uint256"
        }
      ],
      "name": "distribute",
      "outputs": [],
      "stateMutability": "nonpayable",
      "type": "function"
    },
    {
      "inputs": [],
      "name": "getAdmins",
      "outputs": [
        {
          "internalType": "address[]",
          "name": "",
          "type": "address[]"
        }
      ],
      "stateMutability": "view",
      "type": "function"
    },
    {
      "inputs": [
        {
          "internalType": "address",
          "name": "account",
          "type": "address"
        }
      ],
      "name": "getIsAdmin",
      "outputs": [
        {
          "internalType": "bool",
          "name": "",
          "type": "bool"
        }
      ],
      "stateMutability": "view",
      "type": "function"
    },
    {
      "inputs": [],
      "name": "getSampledAddresses",
      "outputs": [
        {
          "internalType": "address[]",
          "name": "",
          "type": "address[]"
        }
      ],
      "stateMutability": "view",
      "type": "function"
    },
    {
      "inputs": [],
      "name": "getSamplingConfig",
      "outputs": [
        {
          "components": [
            {
              "internalType": "enum SpaceDAO.SamplingMode",
              "name": "mode",
              "type": "uint8"
            },
            {
              "internalType": "uint256",
              "name": "randomCount",
              "type": "uint256"
            }
          ],
          "internalType": "struct SpaceDAO.SamplingConfig",
          "name": "",
          "type": "tuple"
        }
      ],
      "stateMutability": "view",
      "type": "function"
    },
    {
      "inputs": [
        {
          "internalType": "address[]",
          "name": "candidates",
          "type": "address[]"
        }
      ],
      "name": "sample",
      "outputs": [
        {
          "internalType": "address[]",
          "name": "",
          "type": "address[]"
        }
      ],
      "stateMutability": "nonpayable",
      "type": "function"
    },
    {
      "inputs": [
        {
          "internalType": "uint256",
          "name": "randomCount",
          "type": "uint256"
        }
      ],
      "name": "setSamplingCount",
      "outputs": [],
      "stateMutability": "nonpayable",
      "type": "function"
    }
  ],
  "bytecode": "0x60806040523480156200001157600080fd5b506040516200138a3803806200138a8339810160408190526200003491620002f6565b600382511015620000985760405162461bcd60e51b8152602060048201526024808201527f537061636544414f3a206174206c6561737420332061646d696e7320726571756044820152631a5c995960e21b60648201526084015b60405180910390fd5b60005b82518110156200020a576000838281518110620000bc57620000bc620003d5565b6020026020010151905060006001600160a01b0316816001600160a01b0316036200012a5760405162461bcd60e51b815260206004820152601760248201527f537061636544414f3a20696e76616c69642061646d696e00000000000000000060448201526064016200008f565b6001600160a01b03811660009081526001602052604090205460ff1615620001955760405162461bcd60e51b815260206004820152601960248201527f537061636544414f3a206475706c69636174652061646d696e0000000000000060448201526064016200008f565b6001600160a01b031660008181526001602081905260408220805460ff191682179055815490810182559080527f290decd9548b62a8d60345a988386fc84ba6bc95484008f6362f93160ef3e5630180546001600160a01b0319169091179055806200020181620003eb565b9150506200009b565b50805160028054839290829060ff19166001838381111562000230576200023062000413565b021790555060208201518160010155905050505062000429565b634e487b7160e01b600052604160045260246000fd5b604051601f8201601f191681016001600160401b03811182821017156200028b576200028b6200024a565b604052919050565b600060408284031215620002a657600080fd5b604080519081016001600160401b0381118282101715620002cb57620002cb6200024a565b8060405250809150825160038110620002e357600080fd5b8152602092830151920191909152919050565b600080606083850312156200030a57600080fd5b82516001600160401b03808211156200032257600080fd5b818501915085601f8301126200033757600080fd5b81516020828211156200034e576200034e6200024a565b8160051b92506200036181840162000260565b82815292840181019281810190898511156200037c57600080fd5b948201945b84861015620003b657855193506001600160a01b0384168414620003a55760008081fd5b838252948201949082019062000381565b9650620003c890508888830162000293565b9450505050509250929050565b634e487b7160e01b600052603260045260246000fd5b6000600182016200040c57634e487b7160e01b600052601160045260246000fd5b5060010190565b634e487b7160e01b600052602160045260246000fd5b610f5180620004396000396000f3fe608060405234801561001057600080fd5b506004361061007d5760003560e01c80637d226ada1161005b5780637d226ada146100c8578063822b0ceb146100dd578063d6d450ee14610119578063df9fe5351461012157600080fd5b806331ae450b1461008257806332b2b545146100a0578063790e51b2146100b5575b600080fd5b61008a610134565b6040516100979190610bff565b60405180910390f35b6100b36100ae366004610c4c565b610196565b005b6100b36100c3366004610ccd565b6102c3565b6100d0610658565b6040516100979190610d5f565b6101096100eb366004610d80565b6001600160a01b031660009081526001602052604090205460ff1690565b6040519015158152602001610097565b61008a6106b3565b61008a61012f366004610d9b565b610713565b6060600080548060200260200160405190810160405280929190818152602001828054801561018c57602002820191906000526020600020905b81546001600160a01b0316815260019091019060200180831161016e575b5050505050905090565b3360009081526001602052604090205460ff166101ce5760405162461bcd60e51b81526004016101c590610ddd565b60405180910390fd5b6000811161021e5760405162461bcd60e51b815260206004820152601e60248201527f537061636544414f3a20696e76616c69642073616d706c6520636f756e74000060448201526064016101c5565b6040805180820190915260028054829160ff9091169081111561024357610243610d27565b8152602001829052805160028054909190829060ff19166001838381111561026d5761026d610d27565b0217905550602091909101516001909101556002546040517f1afafeef6030f9d1e33cc26eaff6fa93b12ef663bf2ea483c467f2ed40cd9c0b916102b89160ff909116908490610e0b565b60405180910390a150565b3360009081526001602052604090205460ff166102f25760405162461bcd60e51b81526004016101c590610ddd565b6001600160a01b0384166103485760405162461bcd60e51b815260206004820152601760248201527f537061636544414f3a20696e76616c696420746f6b656e00000000000000000060448201526064016101c5565b816103955760405162461bcd60e51b815260206004820152601a60248201527f537061636544414f3a20656d70747920726563697069656e747300000000000060448201526064016101c5565b600081116103e55760405162461bcd60e51b815260206004820152601760248201527f537061636544414f3a20696e76616c69642076616c756500000000000000000060448201526064016101c5565b8360006103f28484610e3c565b6040516370a0823160e01b815230600482015290915081906001600160a01b038416906370a0823190602401602060405180830381865afa15801561043b573d6000803e3d6000fd5b505050506040513d601f19601f8201168201806040525081019061045f9190610e53565b10156104ad5760405162461bcd60e51b815260206004820152601e60248201527f537061636544414f3a20696e73756666696369656e742062616c616e6365000060448201526064016101c5565b60005b8481101561060b5760008686838181106104cc576104cc610e6c565b90506020020160208101906104e19190610d80565b90506001600160a01b0381166105395760405162461bcd60e51b815260206004820152601b60248201527f537061636544414f3a20696e76616c696420726563697069656e74000000000060448201526064016101c5565b60405163a9059cbb60e01b81526001600160a01b0382811660048301526024820187905285169063a9059cbb906044016020604051808303816000875af1158015610588573d6000803e3d6000fd5b505050506040513d601f19601f820116820180604052508101906105ac9190610e82565b6105f85760405162461bcd60e51b815260206004820152601960248201527f537061636544414f3a207472616e73666572206661696c65640000000000000060448201526064016101c5565b508061060381610ea4565b9150506104b0565b5060408051858152602081018590526001600160a01b038816917f60ce3cc2d133631eac66a476f14997a9fa682bd05a60dd993cf02285822d78d8910160405180910390a2505050505050565b60408051808201909152600080825260208201526040805180820190915260028054829060ff168281111561068f5761068f610d27565b60028111156106a0576106a0610d27565b8152602001600182015481525050905090565b6060600480548060200260200160405190810160405280929190818152602001828054801561018c576020028201919060005260206000209081546001600160a01b0316815260019091019060200180831161016e575050505050905090565b3360009081526001602052604090205460609060ff166107455760405162461bcd60e51b81526004016101c590610ddd565b816107925760405162461bcd60e51b815260206004820152601a60248201527f537061636544414f3a20656d7074792063616e6469646174657300000000000060448201526064016101c5565b60006002805460ff16908111156107ab576107ab610d27565b146107f85760405162461bcd60e51b815260206004820152601c60248201527f537061636544414f3a206d6f6465206e6f7420737570706f727465640000000060448201526064016101c5565b600354600081900361084c5760405162461bcd60e51b815260206004820152601e60248201527f537061636544414f3a20696e76616c69642073616d706c6520636f756e74000060448201526064016101c5565b828111156108575750815b60008367ffffffffffffffff81111561087257610872610ebd565b60405190808252806020026020018201604052801561089b578160200160208202803683370190505b50905060005b8481101561090c578585828181106108bb576108bb610e6c565b90506020020160208101906108d09190610d80565b8282815181106108e2576108e2610e6c565b6001600160a01b03909216602092830291909101909101528061090481610ea4565b9150506108a1565b5060008267ffffffffffffffff81111561092857610928610ebd565b604051908082528060200260200182016040528015610951578160200160208202803683370190505b50905060005b83811015610a82576000816109788386516109729190610ed3565b84610b49565b6109829190610ee6565b9050600084838151811061099857610998610e6c565b602002602001015190508482815181106109b4576109b4610e6c565b60200260200101518584815181106109ce576109ce610e6c565b60200260200101906001600160a01b031690816001600160a01b03168152505080858381518110610a0157610a01610e6c565b60200260200101906001600160a01b031690816001600160a01b031681525050848381518110610a3357610a33610e6c565b6020026020010151848481518110610a4d57610a4d610e6c565b60200260200101906001600160a01b031690816001600160a01b03168152505050508080610a7a90610ea4565b915050610957565b50610a8f60046000610bc5565b60005b8151811015610afc576004828281518110610aaf57610aaf610e6c565b60209081029190910181015182546001810184556000938452919092200180546001600160a01b0319166001600160a01b0390921691909117905580610af481610ea4565b915050610a92565b5060025481516040517fde8ec48a1cdb6c108da2ccc414166655187a9e0067deb03df604b9b98d63d91892610b369260ff90911691610e0b565b60405180910390a1925050505b92915050565b600082600003610b5b57506000610b43565b8244423385604051602001610b9b9493929190938452602084019290925260601b6bffffffffffffffffffffffff19166040830152605482015260740190565b6040516020818303038152906040528051906020012060001c610bbe9190610ef9565b9392505050565b5080546000825590600052602060002090810190610be39190610be6565b50565b5b80821115610bfb5760008155600101610be7565b5090565b6020808252825182820181905260009190848201906040850190845b81811015610c405783516001600160a01b031683529284019291840191600101610c1b565b50909695505050505050565b600060208284031215610c5e57600080fd5b5035919050565b80356001600160a01b0381168114610c7c57600080fd5b919050565b60008083601f840112610c9357600080fd5b50813567ffffffffffffffff811115610cab57600080fd5b6020830191508360208260051b8501011115610cc657600080fd5b9250929050565b60008060008060608587031215610ce357600080fd5b610cec85610c65565b9350602085013567ffffffffffffffff811115610d0857600080fd5b610d1487828801610c81565b9598909750949560400135949350505050565b634e487b7160e01b600052602160045260246000fd5b60038110610d5b57634e487b7160e01b600052602160045260246000fd5b9052565b6000604082019050610d72828451610d3d565b602092830151919092015290565b600060208284031215610d9257600080fd5b610bbe82610c65565b60008060208385031215610dae57600080fd5b823567ffffffffffffffff811115610dc557600080fd5b610dd185828601610c81565b90969095509350505050565b602080825260149082015273537061636544414f3a2061646d696e206f6e6c7960601b604082015260600190565b60408101610e198285610d3d565b8260208301529392505050565b634e487b7160e01b600052601160045260246000fd5b8082028115828204841417610b4357610b43610e26565b600060208284031215610e6557600080fd5b5051919050565b634e487b7160e01b600052603260045260246000fd5b600060208284031215610e9457600080fd5b81518015158114610bbe57600080fd5b600060018201610eb657610eb6610e26565b5060010190565b634e487b7160e01b600052604160045260246000fd5b81810381811115610b4357610b43610e26565b80820180821115610b4357610b43610e26565b600082610f1657634e487b7160e01b600052601260045260246000fd5b50069056fea26469706673582212202eb1dbfaa5166fb6bfc39083dd6d0221e8cbf49afbad02524fc5f88842e7bf8264736f6c63430008140033",
  "linkReferences": {},
  "deployedLinkReferences": {}
}