{
  "_format": "hh-sol-artifact-1",
  "contractName": "SpaceDAO",
  "sourceName": "SpaceDao.sol",
  "abi": [
    {
      "inputs": [
        {
          "internalType": "address[]",
          "name": "admins",
          "type": "address[]"
        },
        {
          "components": [
            {
              "internalType": "enum SpaceDAO.SamplingMode",
              "name": "mode",
              "type": "uint8"
            },
            {
              "internalType": "uint256",
              "name": "randomCount",
              "type": "uint256"
            }
          ],
          "internalType": "struct SpaceDAO.SamplingConfig",
          "name": "samplingConfig",
          "type": "tuple"
        }
      ],
      "stateMutability": "nonpayable",
      "type": "constructor"
    },
    {
      "anonymous": false,
      "inputs": [
        {
          "indexed": true,
          "internalType": "address",
          "name": "token",
          "type": "address"
        },
        {
          "indexed": false,
          "internalType": "uint256",
          "name": "count",
          "type": "uint256"
        },
        {
          "indexed": false,
          "internalType": "uint256",
          "name": "value",
          "type": "uint256"
        }
      ],
      "name": "Distributed",
      "type": "event"
    },
    {
      "anonymous": false,
      "inputs": [
        {
          "indexed": false,
          "internalType": "enum SpaceDAO.SamplingMode",
          "name": "mode",
          "type": "uint8"
        },
        {
          "indexed": false,
          "internalType": "uint256",
          "name": "count",
          "type": "uint256"
        }
      ],
      "name": "Sampled",
      "type": "event"
    },
    {
      "anonymous": false,
      "inputs": [
        {
          "indexed": false,
          "internalType": "enum SpaceDAO.SamplingMode",
          "name": "mode",
          "type": "uint8"
        },
        {
          "indexed": false,
          "internalType": "uint256",
          "name": "randomCount",
          "type": "uint256"
        }
      ],
      "name": "SamplingConfigUpdated",
      "type": "event"
    },
    {
      "inputs": [
        {
          "internalType": "address",
          "name": "token",
          "type": "address"
        },
        {
          "internalType": "address[]",
          "name": "recipients",
          "type": "address[]"
        },
        {
          "internalType": "uint256",
          "name": "value",
          "type": "uint256"
        }
      ],
      "name": "distribute",
      "outputs": [],
      "stateMutability": "nonpayable",
      "type": "function"
    },
    {
      "inputs": [],
      "name": "getAdmins",
      "outputs": [
        {
          "internalType": "address[]",
          "name": "",
          "type": "address[]"
        }
      ],
      "stateMutability": "view",
      "type": "function"
    },
    {
      "inputs": [
        {
          "internalType": "address",
          "name": "account",
          "type": "address"
        }
      ],
      "name": "getIsAdmin",
      "outputs": [
        {
          "internalType": "bool",
          "name": "",
          "type": "bool"
        }
      ],
      "stateMutability": "view",
      "type": "function"
    },
    {
      "inputs": [],
      "name": "getSampledAddresses",
      "outputs": [
        {
          "internalType": "address[]",
          "name": "",
          "type": "address[]"
        }
      ],
      "stateMutability": "view",
      "type": "function"
    },
    {
      "inputs": [],
      "name": "getSamplingConfig",
      "outputs": [
        {
          "components": [
            {
              "internalType": "enum SpaceDAO.SamplingMode",
              "name": "mode",
              "type": "uint8"
            },
            {
              "internalType": "uint256",
              "name": "randomCount",
              "type": "uint256"
            }
          ],
          "internalType": "struct SpaceDAO.SamplingConfig",
          "name": "",
          "type": "tuple"
        }
      ],
      "stateMutability": "view",
      "type": "function"
    },
    {
      "inputs": [
        {
          "internalType": "address",
          "name": "account",
          "type": "address"
        }
      ],
      "name": "isRewarded",
      "outputs": [
        {
          "internalType": "bool",
          "name": "",
          "type": "bool"
        }
      ],
      "stateMutability": "view",
      "type": "function"
    },
    {
      "inputs": [
        {
          "internalType": "address",
          "name": "account",
          "type": "address"
        }
      ],
      "name": "isSampled",
      "outputs": [
        {
          "internalType": "bool",
          "name": "",
          "type": "bool"
        }
      ],
      "stateMutability": "view",
      "type": "function"
    },
    {
      "inputs": [
        {
          "internalType": "address[]",
          "name": "candidates",
          "type": "address[]"
        }
      ],
      "name": "sample",
      "outputs": [
        {
          "internalType": "address[]",
          "name": "",
          "type": "address[]"
        }
      ],
      "stateMutability": "nonpayable",
      "type": "function"
    },
    {
      "inputs": [
        {
          "internalType": "uint256",
          "name": "randomCount",
          "type": "uint256"
        }
      ],
      "name": "setSamplingCount",
      "outputs": [],
      "stateMutability": "nonpayable",
      "type": "function"
    }
  ],
  "bytecode": "0x60806040523480156200001157600080fd5b50604051620015fd380380620015fd8339810160408190526200003491620002f6565b600382511015620000985760405162461bcd60e51b8152602060048201526024808201527f537061636544414f3a206174206c6561737420332061646d696e7320726571756044820152631a5c995960e21b60648201526084015b60405180910390fd5b60005b82518110156200020a576000838281518110620000bc57620000bc620003d5565b6020026020010151905060006001600160a01b0316816001600160a01b0316036200012a5760405162461bcd60e51b815260206004820152601760248201527f537061636544414f3a20696e76616c69642061646d696e00000000000000000060448201526064016200008f565b6001600160a01b03811660009081526001602052604090205460ff1615620001955760405162461bcd60e51b815260206004820152601960248201527f537061636544414f3a206475706c69636174652061646d696e0000000000000060448201526064016200008f565b6001600160a01b031660008181526001602081905260408220805460ff191682179055815490810182559080527f290decd9548b62a8d60345a988386fc84ba6bc95484008f6362f93160ef3e5630180546001600160a01b0319169091179055806200020181620003eb565b9150506200009b565b50805160028054839290829060ff19166001838381111562000230576200023062000413565b021790555060208201518160010155905050505062000429565b634e487b7160e01b600052604160045260246000fd5b604051601f8201601f191681016001600160401b03811182821017156200028b576200028b6200024a565b604052919050565b600060408284031215620002a657600080fd5b604080519081016001600160401b0381118282101715620002cb57620002cb6200024a565b8060405250809150825160038110620002e357600080fd5b8152602092830151920191909152919050565b600080606083850312156200030a57600080fd5b82516001600160401b03808211156200032257600080fd5b818501915085601f8301126200033757600080fd5b81516020828211156200034e576200034e6200024a565b8160051b92506200036181840162000260565b82815292840181019281810190898511156200037c57600080fd5b948201945b84861015620003b657855193506001600160a01b0384168414620003a55760008081fd5b838252948201949082019062000381565b9650620003c890508888830162000293565b9450505050509250929050565b634e487b7160e01b600052603260045260246000fd5b6000600182016200040c57634e487b7160e01b600052601160045260246000fd5b5060010190565b634e487b7160e01b600052602160045260246000fd5b6111c480620004396000396000f3fe608060405234801561001057600080fd5b50600436106100935760003560e01c8063822b0ceb11610066578063822b0ceb146100f3578063cc1f9bf51461012f578063d6d450ee1461015b578063df9fe53514610163578063fd3d1cc31461017657600080fd5b806331ae450b1461009857806332b2b545146100b6578063790e51b2146100cb5780637d226ada146100de575b600080fd5b6100a06101a2565b6040516100ad9190610e72565b60405180910390f35b6100c96100c4366004610ebf565b610204565b005b6100c96100d9366004610f40565b610331565b6100e66107b0565b6040516100ad9190610fd2565b61011f610101366004610ff3565b6001600160a01b031660009081526001602052604090205460ff1690565b60405190151581526020016100ad565b61011f61013d366004610ff3565b6001600160a01b031660009081526006602052604090205460ff1690565b6100a061080b565b6100a061017136600461100e565b61086b565b61011f610184366004610ff3565b6001600160a01b031660009081526005602052604090205460ff1690565b606060008054806020026020016040519081016040528092919081815260200182805480156101fa57602002820191906000526020600020905b81546001600160a01b031681526001909101906020018083116101dc575b5050505050905090565b3360009081526001602052604090205460ff1661023c5760405162461bcd60e51b815260040161023390611050565b60405180910390fd5b6000811161028c5760405162461bcd60e51b815260206004820152601e60248201527f537061636544414f3a20696e76616c69642073616d706c6520636f756e7400006044820152606401610233565b6040805180820190915260028054829160ff909116908111156102b1576102b1610f9a565b8152602001829052805160028054909190829060ff1916600183838111156102db576102db610f9a565b0217905550602091909101516001909101556002546040517f1afafeef6030f9d1e33cc26eaff6fa93b12ef663bf2ea483c467f2ed40cd9c0b916103269160ff90911690849061107e565b60405180910390a150565b3360009081526001602052604090205460ff166103605760405162461bcd60e51b815260040161023390611050565b6001600160a01b0384166103b65760405162461bcd60e51b815260206004820152601760248201527f537061636544414f3a20696e76616c696420746f6b656e0000000000000000006044820152606401610233565b816104035760405162461bcd60e51b815260206004820152601a60248201527f537061636544414f3a20656d70747920726563697069656e74730000000000006044820152606401610233565b600081116104535760405162461bcd60e51b815260206004820152601760248201527f537061636544414f3a20696e76616c69642076616c75650000000000000000006044820152606401610233565b83600061046084846110af565b6040516370a0823160e01b815230600482015290915081906001600160a01b038416906370a0823190602401602060405180830381865afa1580156104a9573d6000803e3d6000fd5b505050506040513d601f19601f820116820180604052508101906104cd91906110c6565b101561051b5760405162461bcd60e51b815260206004820152601e60248201527f537061636544414f3a20696e73756666696369656e742062616c616e636500006044820152606401610233565b60005b8481101561076357600086868381811061053a5761053a6110df565b905060200201602081019061054f9190610ff3565b90506001600160a01b0381166105a75760405162461bcd60e51b815260206004820152601b60248201527f537061636544414f3a20696e76616c696420726563697069656e7400000000006044820152606401610233565b6001600160a01b03811660009081526005602052604090205460ff166106075760405162461bcd60e51b815260206004820152601560248201527414dc1858d9511053ce881b9bdd081cd85b5c1b1959605a1b6044820152606401610233565b6001600160a01b03811660009081526006602052604090205460ff16156106705760405162461bcd60e51b815260206004820152601960248201527f537061636544414f3a207265776172642066696e6973686564000000000000006044820152606401610233565b60405163a9059cbb60e01b81526001600160a01b0382811660048301526024820187905285169063a9059cbb906044016020604051808303816000875af11580156106bf573d6000803e3d6000fd5b505050506040513d601f19601f820116820180604052508101906106e391906110f5565b61072f5760405162461bcd60e51b815260206004820152601960248201527f537061636544414f3a207472616e73666572206661696c6564000000000000006044820152606401610233565b6001600160a01b03166000908152600660205260409020805460ff191660011790558061075b81611117565b91505061051e565b5060408051858152602081018590526001600160a01b038816917f60ce3cc2d133631eac66a476f14997a9fa682bd05a60dd993cf02285822d78d8910160405180910390a2505050505050565b60408051808201909152600080825260208201526040805180820190915260028054829060ff16828111156107e7576107e7610f9a565b60028111156107f8576107f8610f9a565b8152602001600182015481525050905090565b606060048054806020026020016040519081016040528092919081815260200182805480156101fa576020028201919060005260206000209081546001600160a01b031681526001909101906020018083116101dc575050505050905090565b3360009081526001602052604090205460609060ff1661089d5760405162461bcd60e51b815260040161023390611050565b816108ea5760405162461bcd60e51b815260206004820152601a60248201527f537061636544414f3a20656d7074792063616e646964617465730000000000006044820152606401610233565b60006002805460ff169081111561090357610903610f9a565b146109505760405162461bcd60e51b815260206004820152601c60248201527f537061636544414f3a206d6f6465206e6f7420737570706f72746564000000006044820152606401610233565b60035460008190036109a45760405162461bcd60e51b815260206004820152601e60248201527f537061636544414f3a20696e76616c69642073616d706c6520636f756e7400006044820152606401610233565b828111156109af5750815b60008367ffffffffffffffff8111156109ca576109ca611130565b6040519080825280602002602001820160405280156109f3578160200160208202803683370190505b50905060005b84811015610a6457858582818110610a1357610a136110df565b9050602002016020810190610a289190610ff3565b828281518110610a3a57610a3a6110df565b6001600160a01b039092166020928302919091019091015280610a5c81611117565b9150506109f9565b5060008267ffffffffffffffff811115610a8057610a80611130565b604051908082528060200260200182016040528015610aa9578160200160208202803683370190505b50905060005b83811015610bda57600081610ad0838651610aca9190611146565b84610dbc565b610ada9190611159565b90506000848381518110610af057610af06110df565b60200260200101519050848281518110610b0c57610b0c6110df565b6020026020010151858481518110610b2657610b266110df565b60200260200101906001600160a01b031690816001600160a01b03168152505080858381518110610b5957610b596110df565b60200260200101906001600160a01b031690816001600160a01b031681525050848381518110610b8b57610b8b6110df565b6020026020010151848481518110610ba557610ba56110df565b60200260200101906001600160a01b031690816001600160a01b03168152505050508080610bd290611117565b915050610aaf565b5060005b600454811015610c4c57600060048281548110610bfd57610bfd6110df565b60009182526020808320909101546001600160a01b03168252600581526040808320805460ff199081169091556006909252909120805490911690555080610c4481611117565b915050610bde565b50610c5960046000610e38565b60005b8151811015610d6f576000828281518110610c7957610c796110df565b6020026020010151905060006001600160a01b0316816001600160a01b031603610ce55760405162461bcd60e51b815260206004820152601b60248201527f537061636544414f3a20696e76616c696420726563697069656e7400000000006044820152606401610233565b6001600160a01b031660008181526005602090815260408083208054600160ff199182168117909255600690935290832080549092169091556004805491820181559091527f8a35acfbc15ff81a39ae7d344fd709f28e8600b4aa8c65c6b64bfe7fe36bd19b0180546001600160a01b031916909117905580610d6781611117565b915050610c5c565b5060025481516040517fde8ec48a1cdb6c108da2ccc414166655187a9e0067deb03df604b9b98d63d91892610da99260ff9091169161107e565b60405180910390a1925050505b92915050565b600082600003610dce57506000610db6565b8244423385604051602001610e0e9493929190938452602084019290925260601b6bffffffffffffffffffffffff19166040830152605482015260740190565b6040516020818303038152906040528051906020012060001c610e31919061116c565b9392505050565b5080546000825590600052602060002090810190610e569190610e59565b50565b5b80821115610e6e5760008155600101610e5a565b5090565b6020808252825182820181905260009190848201906040850190845b81811015610eb35783516001600160a01b031683529284019291840191600101610e8e565b50909695505050505050565b600060208284031215610ed157600080fd5b5035919050565b80356001600160a01b0381168114610eef57600080fd5b919050565b60008083601f840112610f0657600080fd5b50813567ffffffffffffffff811115610f1e57600080fd5b6020830191508360208260051b8501011115610f3957600080fd5b9250929050565b60008060008060608587031215610f5657600080fd5b610f5f85610ed8565b9350602085013567ffffffffffffffff811115610f7b57600080fd5b610f8787828801610ef4565b9598909750949560400135949350505050565b634e487b7160e01b600052602160045260246000fd5b60038110610fce57634e487b7160e01b600052602160045260246000fd5b9052565b6000604082019050610fe5828451610fb0565b602092830151919092015290565b60006020828403121561100557600080fd5b610e3182610ed8565b6000806020838503121561102157600080fd5b823567ffffffffffffffff81111561103857600080fd5b61104485828601610ef4565b90969095509350505050565b602080825260149082015273537061636544414f3a2061646d696e206f6e6c7960601b604082015260600190565b6040810161108c8285610fb0565b8260208301529392505050565b634e487b7160e01b600052601160045260246000fd5b8082028115828204841417610db657610db6611099565b6000602082840312156110d857600080fd5b5051919050565b634e487b7160e01b600052603260045260246000fd5b60006020828403121561110757600080fd5b81518015158114610e3157600080fd5b60006001820161112957611129611099565b5060010190565b634e487b7160e01b600052604160045260246000fd5b81810381811115610db657610db6611099565b80820180821115610db657610db6611099565b60008261118957634e487b7160e01b600052601260045260246000fd5b50069056fea264697066735822122039a34851fe3df04bce872e840a941f86207867000fd9f7bfdd4e07542cdbfd6864736f6c63430008140033",
  "linkReferences": {},
  "deployedLinkReferences": {}
}