{
  "_format": "hh-sol-artifact-1",
  "contractName": "SpaceDAO",
  "sourceName": "SpaceDao.sol",
  "abi": [
    {
      "inputs": [
        {
          "internalType": "address[]",
          "name": "admins",
          "type": "address[]"
        },
        {
          "internalType": "address",
          "name": "usdt",
          "type": "address"
        },
        {
          "internalType": "uint256",
          "name": "withdrawalAmount",
          "type": "uint256"
        }
      ],
      "stateMutability": "nonpayable",
      "type": "constructor"
    },
    {
      "inputs": [
        {
          "internalType": "address",
          "name": "admin",
          "type": "address"
        }
      ],
      "name": "addAdmin",
      "outputs": [],
      "stateMutability": "nonpayable",
      "type": "function"
    },
    {
      "inputs": [
        {
          "internalType": "uint256",
          "name": "amount",
          "type": "uint256"
        }
      ],
      "name": "deposit",
      "outputs": [],
      "stateMutability": "nonpayable",
      "type": "function"
    },
    {
      "inputs": [
        {
          "internalType": "address[]",
          "name": "recipients",
          "type": "address[]"
        }
      ],
      "name": "distributeWithdrawal",
      "outputs": [],
      "stateMutability": "nonpayable",
      "type": "function"
    },
    {
      "inputs": [],
      "name": "getAdmins",
      "outputs": [
        {
          "internalType": "address[]",
          "name": "",
          "type": "address[]"
        }
      ],
      "stateMutability": "view",
      "type": "function"
    },
    {
      "inputs": [],
      "name": "getBalance",
      "outputs": [
        {
          "internalType": "uint256",
          "name": "",
          "type": "uint256"
        }
      ],
      "stateMutability": "view",
      "type": "function"
    },
    {
      "inputs": [
        {
          "internalType": "address",
          "name": "account",
          "type": "address"
        }
      ],
      "name": "getIsAdmin",
      "outputs": [
        {
          "internalType": "bool",
          "name": "",
          "type": "bool"
        }
      ],
      "stateMutability": "view",
      "type": "function"
    },
    {
      "inputs": [],
      "name": "getUsdt",
      "outputs": [
        {
          "internalType": "address",
          "name": "",
          "type": "address"
        }
      ],
      "stateMutability": "view",
      "type": "function"
    },
    {
      "inputs": [],
      "name": "getWithdrawalAmount",
      "outputs": [
        {
          "internalType": "uint256",
          "name": "",
          "type": "uint256"
        }
      ],
      "stateMutability": "view",
      "type": "function"
    },
    {
      "inputs": [
        {
          "internalType": "address",
          "name": "usdt",
          "type": "address"
        }
      ],
      "name": "setUsdtAddress",
      "outputs": [],
      "stateMutability": "nonpayable",
      "type": "function"
    },
    {
      "inputs": [
        {
          "internalType": "uint256",
          "name": "amount",
          "type": "uint256"
        }
      ],
      "name": "setWithdrawalAmount",
      "outputs": [],
      "stateMutability": "nonpayable",
      "type": "function"
    }
  ],
  "bytecode": "0x60806040523480156200001157600080fd5b5060405162000f2438038062000f2483398101604081905262000034916200031d565b6001600160a01b038216620000905760405162461bcd60e51b815260206004820152601f60248201527f537061636544414f3a20696e76616c696420746f6b656e20616464726573730060448201526064015b60405180910390fd5b60008111620000ee5760405162461bcd60e51b815260206004820152602360248201527f537061636544414f3a20696e76616c6964207769746864726177616c20616d6f6044820152621d5b9d60ea1b606482015260840162000087565b6003835110156200014e5760405162461bcd60e51b8152602060048201526024808201527f537061636544414f3a206174206c6561737420332061646d696e7320726571756044820152631a5c995960e21b606482015260840162000087565b600280546001600160a01b0319166001600160a01b038416179055600381905560005b8351811015620002e05760008482815181106200019257620001926200040c565b6020026020010151905060006001600160a01b0316816001600160a01b031603620002005760405162461bcd60e51b815260206004820152601760248201527f537061636544414f3a20696e76616c69642061646d696e000000000000000000604482015260640162000087565b6001600160a01b03811660009081526001602052604090205460ff16156200026b5760405162461bcd60e51b815260206004820152601960248201527f537061636544414f3a206475706c69636174652061646d696e00000000000000604482015260640162000087565b6001600160a01b031660008181526001602081905260408220805460ff191682179055815490810182559080527f290decd9548b62a8d60345a988386fc84ba6bc95484008f6362f93160ef3e5630180546001600160a01b031916909117905580620002d78162000422565b91505062000171565b505050506200044a565b634e487b7160e01b600052604160045260246000fd5b80516001600160a01b03811681146200031857600080fd5b919050565b6000806000606084860312156200033357600080fd5b83516001600160401b03808211156200034b57600080fd5b818601915086601f8301126200036057600080fd5b8151602082821115620003775762000377620002ea565b8160051b604051601f19603f830116810181811086821117156200039f576200039f620002ea565b60405292835281830193508481018201928a841115620003be57600080fd5b948201945b83861015620003e757620003d78662000300565b85529482019493820193620003c3565b9750620003f8905088820162000300565b955050505050604084015190509250925092565b634e487b7160e01b600052603260045260246000fd5b6000600182016200044357634e487b7160e01b600052601160045260246000fd5b5060010190565b610aca806200045a6000396000f3fe608060405234801561001057600080fd5b506004361061009e5760003560e01c806370480275116100665780637048027514610116578063822b0ceb14610129578063a4fb969114610165578063b6b55f2514610178578063dbd27a1e1461018b57600080fd5b8063089537ae146100a35780630cb46b75146100c357806312065fe0146100d8578063168ee33a146100ee57806331ae450b14610101575b600080fd5b6002546040516001600160a01b0390911681526020015b60405180910390f35b6100d66100d13660046108be565b610193565b005b6100e061023a565b6040519081526020016100ba565b6100d66100fc3660046108ee565b6102ac565b61010961033c565b6040516100ba9190610907565b6100d66101243660046108be565b61039e565b6101556101373660046108be565b6001600160a01b031660009081526001602052604090205460ff1690565b60405190151581526020016100ba565b6100d6610173366004610954565b6104ee565b6100d66101863660046108ee565b6107a8565b6003546100e0565b3360009081526001602052604090205460ff166101cb5760405162461bcd60e51b81526004016101c2906109c9565b60405180910390fd5b6001600160a01b0381166102185760405162461bcd60e51b8152602060048201526014602482015273496e76616c69642055534454204164647265737360601b60448201526064016101c2565b600280546001600160a01b0319166001600160a01b0392909216919091179055565b6002546040516370a0823160e01b81523060048201526000916001600160a01b0316906370a0823190602401602060405180830381865afa158015610283573d6000803e3d6000fd5b505050506040513d601f19601f820116820180604052508101906102a791906109f7565b905090565b3360009081526001602052604090205460ff166102db5760405162461bcd60e51b81526004016101c2906109c9565b600081116103375760405162461bcd60e51b815260206004820152602360248201527f537061636544414f3a20696e76616c6964207769746864726177616c20616d6f6044820152621d5b9d60ea1b60648201526084016101c2565b600355565b6060600080548060200260200160405190810160405280929190818152602001828054801561039457602002820191906000526020600020905b81546001600160a01b03168152600190910190602001808311610376575b5050505050905090565b3360009081526001602052604090205460ff166103cd5760405162461bcd60e51b81526004016101c2906109c9565b6001600160a01b0381166104235760405162461bcd60e51b815260206004820152601760248201527f537061636544414f3a20696e76616c69642061646d696e00000000000000000060448201526064016101c2565b6001600160a01b03811660009081526001602052604090205460ff161561048c5760405162461bcd60e51b815260206004820152601960248201527f537061636544414f3a206475706c69636174652061646d696e0000000000000060448201526064016101c2565b6001600160a01b031660008181526001602081905260408220805460ff191682179055815490810182559080527f290decd9548b62a8d60345a988386fc84ba6bc95484008f6362f93160ef3e5630180546001600160a01b0319169091179055565b3360009081526001602052604090205460ff1661051d5760405162461bcd60e51b81526004016101c2906109c9565b808061056b5760405162461bcd60e51b815260206004820152601a60248201527f537061636544414f3a20656d70747920726563697069656e747300000000000060448201526064016101c2565b60008160035461057b9190610a26565b6002546040516370a0823160e01b81523060048201529192506000916001600160a01b03909116906370a0823190602401602060405180830381865afa1580156105c9573d6000803e3d6000fd5b505050506040513d601f19601f820116820180604052508101906105ed91906109f7565b90508181101561063f5760405162461bcd60e51b815260206004820152601e60248201527f537061636544414f3a20696e73756666696369656e742062616c616e6365000060448201526064016101c2565b60005b838110156107a057600086868381811061065e5761065e610a43565b905060200201602081019061067391906108be565b90506001600160a01b0381166106cb5760405162461bcd60e51b815260206004820152601b60248201527f537061636544414f3a20696e76616c696420726563697069656e74000000000060448201526064016101c2565b60025460035460405163a9059cbb60e01b81526001600160a01b038481166004830152602482019290925291169063a9059cbb906044016020604051808303816000875af1158015610721573d6000803e3d6000fd5b505050506040513d601f19601f820116820180604052508101906107459190610a59565b61078d5760405162461bcd60e51b815260206004820152601960248201527814dc1858d9511053ce881d1c985b9cd9995c8819985a5b1959603a1b60448201526064016101c2565b508061079881610a7b565b915050610642565b505050505050565b600081116107f85760405162461bcd60e51b815260206004820152601860248201527f537061636544414f3a20616d6f756e74206973207a65726f000000000000000060448201526064016101c2565b6002546040516323b872dd60e01b8152336004820152306024820152604481018390526001600160a01b03909116906323b872dd906064016020604051808303816000875af115801561084f573d6000803e3d6000fd5b505050506040513d601f19601f820116820180604052508101906108739190610a59565b6108bb5760405162461bcd60e51b815260206004820152601960248201527814dc1858d9511053ce881d1c985b9cd9995c8819985a5b1959603a1b60448201526064016101c2565b50565b6000602082840312156108d057600080fd5b81356001600160a01b03811681146108e757600080fd5b9392505050565b60006020828403121561090057600080fd5b5035919050565b6020808252825182820181905260009190848201906040850190845b818110156109485783516001600160a01b031683529284019291840191600101610923565b50909695505050505050565b6000806020838503121561096757600080fd5b823567ffffffffffffffff8082111561097f57600080fd5b818501915085601f83011261099357600080fd5b8135818111156109a257600080fd5b8660208260051b85010111156109b757600080fd5b60209290920196919550909350505050565b602080825260149082015273537061636544414f3a2061646d696e206f6e6c7960601b604082015260600190565b600060208284031215610a0957600080fd5b5051919050565b634e487b7160e01b600052601160045260246000fd5b8082028115828204841417610a3d57610a3d610a10565b92915050565b634e487b7160e01b600052603260045260246000fd5b600060208284031215610a6b57600080fd5b815180151581146108e757600080fd5b600060018201610a8d57610a8d610a10565b506001019056fea2646970667358221220a92807f2b7e32db35f6a73dc349825d59e5abc1f05075f431e2928066d08311b64736f6c63430008140033",
  "linkReferences": {},
  "deployedLinkReferences": {}
}