{
  "_format": "hh-sol-artifact-1",
  "contractName": "SpaceDAO",
  "sourceName": "SpaceDao.sol",
  "abi": [
    {
      "inputs": [
        {
          "internalType": "address[]",
          "name": "admins",
          "type": "address[]"
        },
        {
          "components": [
            {
              "internalType": "enum SpaceDAO.RewardDistributionMode",
              "name": "mode",
              "type": "uint8"
            },
            {
              "internalType": "uint256",
              "name": "numOfTargets",
              "type": "uint256"
            }
          ],
          "internalType": "struct SpaceDAO.RewardDistributionConfig",
          "name": "rewardDistributionConfig",
          "type": "tuple"
        }
      ],
      "stateMutability": "nonpayable",
      "type": "constructor"
    },
    {
      "anonymous": false,
      "inputs": [
        {
          "indexed": true,
          "internalType": "address",
          "name": "token",
          "type": "address"
        },
        {
          "indexed": true,
          "internalType": "address",
          "name": "recipient",
          "type": "address"
        },
        {
          "indexed": false,
          "internalType": "uint256",
          "name": "value",
          "type": "uint256"
        }
      ],
      "name": "RewardClaimed",
      "type": "event"
    },
    {
      "anonymous": false,
      "inputs": [
        {
          "indexed": false,
          "internalType": "enum SpaceDAO.RewardDistributionMode",
          "name": "mode",
          "type": "uint8"
        },
        {
          "indexed": false,
          "internalType": "uint256",
          "name": "numOfTargets",
          "type": "uint256"
        }
      ],
      "name": "RewardDistributionConfigUpdated",
      "type": "event"
    },
    {
      "anonymous": false,
      "inputs": [
        {
          "indexed": false,
          "internalType": "enum SpaceDAO.RewardDistributionMode",
          "name": "mode",
          "type": "uint8"
        },
        {
          "indexed": false,
          "internalType": "uint256",
          "name": "count",
          "type": "uint256"
        }
      ],
      "name": "RewardDistributionSelected",
      "type": "event"
    },
    {
      "inputs": [
        {
          "internalType": "address",
          "name": "token",
          "type": "address"
        }
      ],
      "name": "claimReward",
      "outputs": [],
      "stateMutability": "nonpayable",
      "type": "function"
    },
    {
      "inputs": [],
      "name": "getAdmins",
      "outputs": [
        {
          "internalType": "address[]",
          "name": "",
          "type": "address[]"
        }
      ],
      "stateMutability": "view",
      "type": "function"
    },
    {
      "inputs": [
        {
          "internalType": "address",
          "name": "token",
          "type": "address"
        }
      ],
      "name": "getClaimAmount",
      "outputs": [
        {
          "internalType": "uint256",
          "name": "",
          "type": "uint256"
        }
      ],
      "stateMutability": "view",
      "type": "function"
    },
    {
      "inputs": [
        {
          "internalType": "address",
          "name": "account",
          "type": "address"
        }
      ],
      "name": "getIsAdmin",
      "outputs": [
        {
          "internalType": "bool",
          "name": "",
          "type": "bool"
        }
      ],
      "stateMutability": "view",
      "type": "function"
    },
    {
      "inputs": [],
      "name": "getRewardDistributionConfig",
      "outputs": [
        {
          "components": [
            {
              "internalType": "enum SpaceDAO.RewardDistributionMode",
              "name": "mode",
              "type": "uint8"
            },
            {
              "internalType": "uint256",
              "name": "numOfTargets",
              "type": "uint256"
            }
          ],
          "internalType": "struct SpaceDAO.RewardDistributionConfig",
          "name": "",
          "type": "tuple"
        }
      ],
      "stateMutability": "view",
      "type": "function"
    },
    {
      "inputs": [],
      "name": "getRewardRecipients",
      "outputs": [
        {
          "internalType": "address[]",
          "name": "",
          "type": "address[]"
        }
      ],
      "stateMutability": "view",
      "type": "function"
    },
    {
      "inputs": [
        {
          "internalType": "address",
          "name": "account",
          "type": "address"
        }
      ],
      "name": "isRewardRecipient",
      "outputs": [
        {
          "internalType": "bool",
          "name": "",
          "type": "bool"
        }
      ],
      "stateMutability": "view",
      "type": "function"
    },
    {
      "inputs": [
        {
          "internalType": "address",
          "name": "account",
          "type": "address"
        }
      ],
      "name": "isRewarded",
      "outputs": [
        {
          "internalType": "bool",
          "name": "",
          "type": "bool"
        }
      ],
      "stateMutability": "view",
      "type": "function"
    },
    {
      "inputs": [
        {
          "internalType": "address[]",
          "name": "candidates",
          "type": "address[]"
        }
      ],
      "name": "selectRewardRecipients",
      "outputs": [
        {
          "internalType": "address[]",
          "name": "",
          "type": "address[]"
        }
      ],
      "stateMutability": "nonpayable",
      "type": "function"
    },
    {
      "inputs": [
        {
          "internalType": "uint256",
          "name": "numOfTargets",
          "type": "uint256"
        }
      ],
      "name": "setRewardRecipientCount",
      "outputs": [],
      "stateMutability": "nonpayable",
      "type": "function"
    }
  ],
  "bytecode": "0x60806040523480156200001157600080fd5b5060405162001664380380620016648339810160408190526200003491620002f6565b600382511015620000985760405162461bcd60e51b8152602060048201526024808201527f537061636544414f3a206174206c6561737420332061646d696e7320726571756044820152631a5c995960e21b60648201526084015b60405180910390fd5b60005b82518110156200020a576000838281518110620000bc57620000bc620003d5565b6020026020010151905060006001600160a01b0316816001600160a01b0316036200012a5760405162461bcd60e51b815260206004820152601760248201527f537061636544414f3a20696e76616c69642061646d696e00000000000000000060448201526064016200008f565b6001600160a01b03811660009081526001602052604090205460ff1615620001955760405162461bcd60e51b815260206004820152601960248201527f537061636544414f3a206475706c69636174652061646d696e0000000000000060448201526064016200008f565b6001600160a01b031660008181526001602081905260408220805460ff191682179055815490810182559080527f290decd9548b62a8d60345a988386fc84ba6bc95484008f6362f93160ef3e5630180546001600160a01b0319169091179055806200020181620003eb565b9150506200009b565b50805160028054839290829060ff19166001838381111562000230576200023062000413565b021790555060208201518160010155905050505062000429565b634e487b7160e01b600052604160045260246000fd5b604051601f8201601f191681016001600160401b03811182821017156200028b576200028b6200024a565b604052919050565b600060408284031215620002a657600080fd5b604080519081016001600160401b0381118282101715620002cb57620002cb6200024a565b8060405250809150825160038110620002e357600080fd5b8152602092830151920191909152919050565b600080606083850312156200030a57600080fd5b82516001600160401b03808211156200032257600080fd5b818501915085601f8301126200033757600080fd5b81516020828211156200034e576200034e6200024a565b8160051b92506200036181840162000260565b82815292840181019281810190898511156200037c57600080fd5b948201945b84861015620003b657855193506001600160a01b0384168414620003a55760008081fd5b838252948201949082019062000381565b9650620003c890508888830162000293565b9450505050509250929050565b634e487b7160e01b600052603260045260246000fd5b6000600182016200040c57634e487b7160e01b600052601160045260246000fd5b5060010190565b634e487b7160e01b600052602160045260246000fd5b61122b80620004396000396000f3fe608060405234801561001057600080fd5b506004361061009e5760003560e01c8063a8de401d11610066578063a8de401d14610151578063cc1f9bf514610159578063d279c19114610185578063dde070e814610198578063f5e258b4146101b957600080fd5b8063040fa3a7146100a35780631d97662f146100b857806331ae450b146100e157806370ff55fd146100e9578063822b0ceb14610125575b600080fd5b6100b66100b1366004610f42565b6101ce565b005b6100cb6100c6366004610f5b565b6102ee565b6040516100d89190610fd0565b60405180910390f35b6100cb61084a565b6101156100f736600461101d565b6001600160a01b031660009081526005602052604090205460ff1690565b60405190151581526020016100d8565b61011561013336600461101d565b6001600160a01b031660009081526001602052604090205460ff1690565b6100cb6108ac565b61011561016736600461101d565b6001600160a01b031660009081526006602052604090205460ff1690565b6100b661019336600461101d565b61090c565b6101ab6101a636600461101d565b610d47565b6040519081526020016100d8565b6101c1610e31565b6040516100d8919061107e565b3360009081526001602052604090205460ff166102295760405162461bcd60e51b8152602060048201526014602482015273537061636544414f3a2061646d696e206f6e6c7960601b60448201526064015b60405180910390fd5b600081116102495760405162461bcd60e51b81526004016102209061109f565b6040805180820190915260028054829160ff9091169081111561026e5761026e611046565b8152602001829052805160028054909190829060ff19166001838381111561029857610298611046565b0217905550602091909101516001909101556002546040517f2bc2cdecaafa2f09877e7de654375fae3b8d3ababe1f49cdd9b82221f69c6804916102e39160ff9091169084906110e0565b60405180910390a150565b3360009081526001602052604090205460609060ff166103475760405162461bcd60e51b8152602060048201526014602482015273537061636544414f3a2061646d696e206f6e6c7960601b6044820152606401610220565b816103945760405162461bcd60e51b815260206004820152601a60248201527f537061636544414f3a20656d7074792063616e646964617465730000000000006044820152606401610220565b60006002805460ff16908111156103ad576103ad611046565b146103fa5760405162461bcd60e51b815260206004820152601c60248201527f537061636544414f3a206d6f6465206e6f7420737570706f72746564000000006044820152606401610220565b6003548061041a5760405162461bcd60e51b81526004016102209061109f565b828111156104255750815b60008367ffffffffffffffff811115610440576104406110fb565b604051908082528060200260200182016040528015610469578160200160208202803683370190505b50905060005b848110156104da5785858281811061048957610489611111565b905060200201602081019061049e919061101d565b8282815181106104b0576104b0611111565b6001600160a01b0390921660209283029190910190910152806104d28161113d565b91505061046f565b5060008267ffffffffffffffff8111156104f6576104f66110fb565b60405190808252806020026020018201604052801561051f578160200160208202803683370190505b50905060005b83811015610650576000816105468386516105409190611156565b84610e8c565b6105509190611169565b9050600084838151811061056657610566611111565b6020026020010151905084828151811061058257610582611111565b602002602001015185848151811061059c5761059c611111565b60200260200101906001600160a01b031690816001600160a01b031681525050808583815181106105cf576105cf611111565b60200260200101906001600160a01b031690816001600160a01b03168152505084838151811061060157610601611111565b602002602001015184848151811061061b5761061b611111565b60200260200101906001600160a01b031690816001600160a01b031681525050505080806106489061113d565b915050610525565b5060005b6004548110156106c25760006004828154811061067357610673611111565b60009182526020808320909101546001600160a01b03168252600581526040808320805460ff1990811690915560069092529091208054909116905550806106ba8161113d565b915050610654565b506106cf60046000610f08565b60005b81518110156107e55760008282815181106106ef576106ef611111565b6020026020010151905060006001600160a01b0316816001600160a01b03160361075b5760405162461bcd60e51b815260206004820152601b60248201527f537061636544414f3a20696e76616c696420726563697069656e7400000000006044820152606401610220565b6001600160a01b031660008181526005602090815260408083208054600160ff199182168117909255600690935290832080549092169091556004805491820181559091527f8a35acfbc15ff81a39ae7d344fd709f28e8600b4aa8c65c6b64bfe7fe36bd19b0180546001600160a01b0319169091179055806107dd8161113d565b9150506106d2565b506001600760008282546107f99190611169565b909155505060025481516040517f8ba962fb10cab10f895d71e796617f88a2d73fccf0b7c4bedd24b5cba2ed9c59926108379260ff909116916110e0565b60405180910390a1925050505b92915050565b606060008054806020026020016040519081016040528092919081815260200182805480156108a257602002820191906000526020600020905b81546001600160a01b03168152600190910190602001808311610884575b5050505050905090565b606060048054806020026020016040519081016040528092919081815260200182805480156108a2576020028201919060005260206000209081546001600160a01b03168152600190910190602001808311610884575050505050905090565b6001600160a01b0381166109625760405162461bcd60e51b815260206004820152601760248201527f537061636544414f3a20696e76616c696420746f6b656e0000000000000000006044820152606401610220565b3360008181526005602052604090205460ff166109ba5760405162461bcd60e51b815260206004820152601660248201527514dc1858d9511053ce881b9bdd081cd95b1958dd195960521b6044820152606401610220565b6001600160a01b03811660009081526006602052604090205460ff1615610a235760405162461bcd60e51b815260206004820152601960248201527f537061636544414f3a207265776172642066696e6973686564000000000000006044820152606401610220565b600454829080610a455760405162461bcd60e51b81526004016102209061109f565b6001600160a01b038416600090815260086020908152604080832054600754600990935292205414610b66576040516370a0823160e01b81523060048201526000906001600160a01b038516906370a0823190602401602060405180830381865afa158015610ab8573d6000803e3d6000fd5b505050506040513d601f19601f82011682018060405250810190610adc919061117c565b9050610ae883826111ab565b915060008211610b3a5760405162461bcd60e51b815260206004820152601760248201527f537061636544414f3a20696e76616c69642076616c75650000000000000000006044820152606401610220565b506001600160a01b03851660009081526008602090815260408083208490556007546009909252909120555b6040516370a0823160e01b815230600482015281906001600160a01b038516906370a0823190602401602060405180830381865afa158015610bac573d6000803e3d6000fd5b505050506040513d601f19601f82011682018060405250810190610bd0919061117c565b1015610c1e5760405162461bcd60e51b815260206004820152601e60248201527f537061636544414f3a20696e73756666696369656e742062616c616e636500006044820152606401610220565b60405163a9059cbb60e01b81526001600160a01b0385811660048301526024820183905284169063a9059cbb906044016020604051808303816000875af1158015610c6d573d6000803e3d6000fd5b505050506040513d601f19601f82011682018060405250810190610c9191906111bf565b610cdd5760405162461bcd60e51b815260206004820152601960248201527f537061636544414f3a207472616e73666572206661696c6564000000000000006044820152606401610220565b6001600160a01b0380851660008181526006602052604090819020805460ff191660011790555190918716907f0aa4d283470c904c551d18bb894d37e17674920f3261a7f854be501e25f421b790610d389085815260200190565b60405180910390a35050505050565b60006001600160a01b038216610d5f57506000919050565b6004546000819003610d745750600092915050565b6007546001600160a01b03841660009081526009602052604090205403610db25750506001600160a01b031660009081526008602052604090205490565b6040516370a0823160e01b81523060048201526000906001600160a01b038516906370a0823190602401602060405180830381865afa158015610df9573d6000803e3d6000fd5b505050506040513d601f19601f82011682018060405250810190610e1d919061117c565b9050610e2982826111ab565b949350505050565b60408051808201909152600080825260208201526040805180820190915260028054829060ff1682811115610e6857610e68611046565b6002811115610e7957610e79611046565b8152602001600182015481525050905090565b600082600003610e9e57506000610844565b8244423385604051602001610ede9493929190938452602084019290925260601b6bffffffffffffffffffffffff19166040830152605482015260740190565b6040516020818303038152906040528051906020012060001c610f0191906111e1565b9392505050565b5080546000825590600052602060002090810190610f269190610f29565b50565b5b80821115610f3e5760008155600101610f2a565b5090565b600060208284031215610f5457600080fd5b5035919050565b60008060208385031215610f6e57600080fd5b823567ffffffffffffffff80821115610f8657600080fd5b818501915085601f830112610f9a57600080fd5b813581811115610fa957600080fd5b8660208260051b8501011115610fbe57600080fd5b60209290920196919550909350505050565b6020808252825182820181905260009190848201906040850190845b818110156110115783516001600160a01b031683529284019291840191600101610fec565b50909695505050505050565b60006020828403121561102f57600080fd5b81356001600160a01b0381168114610f0157600080fd5b634e487b7160e01b600052602160045260246000fd5b6003811061107a57634e487b7160e01b600052602160045260246000fd5b9052565b600060408201905061109182845161105c565b602092830151919092015290565b60208082526021908201527f537061636544414f3a20696e76616c696420726563697069656e7420636f756e6040820152601d60fa1b606082015260800190565b604081016110ee828561105c565b8260208301529392505050565b634e487b7160e01b600052604160045260246000fd5b634e487b7160e01b600052603260045260246000fd5b634e487b7160e01b600052601160045260246000fd5b60006001820161114f5761114f611127565b5060010190565b8181038181111561084457610844611127565b8082018082111561084457610844611127565b60006020828403121561118e57600080fd5b5051919050565b634e487b7160e01b600052601260045260246000fd5b6000826111ba576111ba611195565b500490565b6000602082840312156111d157600080fd5b81518015158114610f0157600080fd5b6000826111f0576111f0611195565b50069056fea26469706673582212204bfd3e9a61717a06571a1f6368c550b60d1d4de45111500ed2fb728d1689ac9c64736f6c63430008140033",
  "linkReferences": {},
  "deployedLinkReferences": {}
}