{
  "_format": "hh-sol-artifact-1",
  "contractName": "SpaceDAO",
  "sourceName": "SpaceDao.sol",
  "abi": [
    {
      "inputs": [
        {
          "internalType": "address[]",
          "name": "admins",
          "type": "address[]"
        },
        {
          "components": [
            {
              "internalType": "enum SpaceDAO.RewardDistributionMode",
              "name": "mode",
              "type": "uint8"
            },
            {
              "internalType": "uint256",
              "name": "numOfTargets",
              "type": "uint256"
            }
          ],
          "internalType": "struct SpaceDAO.RewardDistributionConfig",
          "name": "rewardDistributionConfig",
          "type": "tuple"
        }
      ],
      "stateMutability": "nonpayable",
      "type": "constructor"
    },
    {
      "anonymous": false,
      "inputs": [
        {
          "indexed": true,
          "internalType": "address",
          "name": "token",
          "type": "address"
        },
        {
          "indexed": false,
          "internalType": "uint256",
          "name": "count",
          "type": "uint256"
        },
        {
          "indexed": false,
          "internalType": "uint256",
          "name": "value",
          "type": "uint256"
        }
      ],
      "name": "Distributed",
      "type": "event"
    },
    {
      "anonymous": false,
      "inputs": [
        {
          "indexed": false,
          "internalType": "enum SpaceDAO.RewardDistributionMode",
          "name": "mode",
          "type": "uint8"
        },
        {
          "indexed": false,
          "internalType": "uint256",
          "name": "numOfTargets",
          "type": "uint256"
        }
      ],
      "name": "RewardDistributionConfigUpdated",
      "type": "event"
    },
    {
      "anonymous": false,
      "inputs": [
        {
          "indexed": false,
          "internalType": "enum SpaceDAO.RewardDistributionMode",
          "name": "mode",
          "type": "uint8"
        },
        {
          "indexed": false,
          "internalType": "uint256",
          "name": "count",
          "type": "uint256"
        }
      ],
      "name": "RewardDistributionSelected",
      "type": "event"
    },
    {
      "inputs": [
        {
          "internalType": "address",
          "name": "token",
          "type": "address"
        },
        {
          "internalType": "address[]",
          "name": "recipients",
          "type": "address[]"
        },
        {
          "internalType": "uint256",
          "name": "value",
          "type": "uint256"
        }
      ],
      "name": "distribute",
      "outputs": [],
      "stateMutability": "nonpayable",
      "type": "function"
    },
    {
      "inputs": [],
      "name": "getAdmins",
      "outputs": [
        {
          "internalType": "address[]",
          "name": "",
          "type": "address[]"
        }
      ],
      "stateMutability": "view",
      "type": "function"
    },
    {
      "inputs": [
        {
          "internalType": "address",
          "name": "account",
          "type": "address"
        }
      ],
      "name": "getIsAdmin",
      "outputs": [
        {
          "internalType": "bool",
          "name": "",
          "type": "bool"
        }
      ],
      "stateMutability": "view",
      "type": "function"
    },
    {
      "inputs": [],
      "name": "getRewardDistributionConfig",
      "outputs": [
        {
          "components": [
            {
              "internalType": "enum SpaceDAO.RewardDistributionMode",
              "name": "mode",
              "type": "uint8"
            },
            {
              "internalType": "uint256",
              "name": "numOfTargets",
              "type": "uint256"
            }
          ],
          "internalType": "struct SpaceDAO.RewardDistributionConfig",
          "name": "",
          "type": "tuple"
        }
      ],
      "stateMutability": "view",
      "type": "function"
    },
    {
      "inputs": [],
      "name": "getRewardRecipients",
      "outputs": [
        {
          "internalType": "address[]",
          "name": "",
          "type": "address[]"
        }
      ],
      "stateMutability": "view",
      "type": "function"
    },
    {
      "inputs": [
        {
          "internalType": "address",
          "name": "account",
          "type": "address"
        }
      ],
      "name": "isRewardRecipient",
      "outputs": [
        {
          "internalType": "bool",
          "name": "",
          "type": "bool"
        }
      ],
      "stateMutability": "view",
      "type": "function"
    },
    {
      "inputs": [
        {
          "internalType": "address",
          "name": "account",
          "type": "address"
        }
      ],
      "name": "isRewarded",
      "outputs": [
        {
          "internalType": "bool",
          "name": "",
          "type": "bool"
        }
      ],
      "stateMutability": "view",
      "type": "function"
    },
    {
      "inputs": [
        {
          "internalType": "address[]",
          "name": "candidates",
          "type": "address[]"
        }
      ],
      "name": "selectRewardRecipients",
      "outputs": [
        {
          "internalType": "address[]",
          "name": "",
          "type": "address[]"
        }
      ],
      "stateMutability": "nonpayable",
      "type": "function"
    },
    {
      "inputs": [
        {
          "internalType": "uint256",
          "name": "numOfTargets",
          "type": "uint256"
        }
      ],
      "name": "setRewardRecipientCount",
      "outputs": [],
      "stateMutability": "nonpayable",
      "type": "function"
    }
  ],
  "bytecode": "0x60806040523480156200001157600080fd5b50604051620015db380380620015db8339810160408190526200003491620002f6565b600382511015620000985760405162461bcd60e51b8152602060048201526024808201527f537061636544414f3a206174206c6561737420332061646d696e7320726571756044820152631a5c995960e21b60648201526084015b60405180910390fd5b60005b82518110156200020a576000838281518110620000bc57620000bc620003d5565b6020026020010151905060006001600160a01b0316816001600160a01b0316036200012a5760405162461bcd60e51b815260206004820152601760248201527f537061636544414f3a20696e76616c69642061646d696e00000000000000000060448201526064016200008f565b6001600160a01b03811660009081526001602052604090205460ff1615620001955760405162461bcd60e51b815260206004820152601960248201527f537061636544414f3a206475706c69636174652061646d696e0000000000000060448201526064016200008f565b6001600160a01b031660008181526001602081905260408220805460ff191682179055815490810182559080527f290decd9548b62a8d60345a988386fc84ba6bc95484008f6362f93160ef3e5630180546001600160a01b0319169091179055806200020181620003eb565b9150506200009b565b50805160028054839290829060ff19166001838381111562000230576200023062000413565b021790555060208201518160010155905050505062000429565b634e487b7160e01b600052604160045260246000fd5b604051601f8201601f191681016001600160401b03811182821017156200028b576200028b6200024a565b604052919050565b600060408284031215620002a657600080fd5b604080519081016001600160401b0381118282101715620002cb57620002cb6200024a565b8060405250809150825160038110620002e357600080fd5b8152602092830151920191909152919050565b600080606083850312156200030a57600080fd5b82516001600160401b03808211156200032257600080fd5b818501915085601f8301126200033757600080fd5b81516020828211156200034e576200034e6200024a565b8160051b92506200036181840162000260565b82815292840181019281810190898511156200037c57600080fd5b948201945b84861015620003b657855193506001600160a01b0384168414620003a55760008081fd5b838252948201949082019062000381565b9650620003c890508888830162000293565b9450505050509250929050565b634e487b7160e01b600052603260045260246000fd5b6000600182016200040c57634e487b7160e01b600052601160045260246000fd5b5060010190565b634e487b7160e01b600052602160045260246000fd5b6111a280620004396000396000f3fe608060405234801561001057600080fd5b50600436106100935760003560e01c8063790e51b211610066578063790e51b21461011a578063822b0ceb1461012d578063a8de401d14610159578063cc1f9bf514610161578063f5e258b41461018d57600080fd5b8063040fa3a7146100985780631d97662f146100ad57806331ae450b146100d657806370ff55fd146100de575b600080fd5b6100ab6100a6366004610e0f565b6101a2565b005b6100c06100bb366004610e74565b61029f565b6040516100cd9190610eb6565b60405180910390f35b6100c06107bc565b61010a6100ec366004610f1f565b6001600160a01b031660009081526005602052604090205460ff1690565b60405190151581526020016100cd565b6100ab610128366004610f3a565b61081e565b61010a61013b366004610f1f565b6001600160a01b031660009081526001602052604090205460ff1690565b6100c0610c9e565b61010a61016f366004610f1f565b6001600160a01b031660009081526006602052604090205460ff1690565b610195610cfe565b6040516100cd9190610fcc565b3360009081526001602052604090205460ff166101da5760405162461bcd60e51b81526004016101d190610fed565b60405180910390fd5b600081116101fa5760405162461bcd60e51b81526004016101d19061101b565b6040805180820190915260028054829160ff9091169081111561021f5761021f610f94565b8152602001829052805160028054909190829060ff19166001838381111561024957610249610f94565b0217905550602091909101516001909101556002546040517f2bc2cdecaafa2f09877e7de654375fae3b8d3ababe1f49cdd9b82221f69c6804916102949160ff90911690849061105c565b60405180910390a150565b3360009081526001602052604090205460609060ff166102d15760405162461bcd60e51b81526004016101d190610fed565b8161031e5760405162461bcd60e51b815260206004820152601a60248201527f537061636544414f3a20656d7074792063616e6469646174657300000000000060448201526064016101d1565b60006002805460ff169081111561033757610337610f94565b146103845760405162461bcd60e51b815260206004820152601c60248201527f537061636544414f3a206d6f6465206e6f7420737570706f727465640000000060448201526064016101d1565b600354806103a45760405162461bcd60e51b81526004016101d19061101b565b828111156103af5750815b60008367ffffffffffffffff8111156103ca576103ca611077565b6040519080825280602002602001820160405280156103f3578160200160208202803683370190505b50905060005b84811015610464578585828181106104135761041361108d565b90506020020160208101906104289190610f1f565b82828151811061043a5761043a61108d565b6001600160a01b03909216602092830291909101909101528061045c816110b9565b9150506103f9565b5060008267ffffffffffffffff81111561048057610480611077565b6040519080825280602002602001820160405280156104a9578160200160208202803683370190505b50905060005b838110156105da576000816104d08386516104ca91906110d2565b84610d59565b6104da91906110e5565b905060008483815181106104f0576104f061108d565b6020026020010151905084828151811061050c5761050c61108d565b60200260200101518584815181106105265761052661108d565b60200260200101906001600160a01b031690816001600160a01b031681525050808583815181106105595761055961108d565b60200260200101906001600160a01b031690816001600160a01b03168152505084838151811061058b5761058b61108d565b60200260200101518484815181106105a5576105a561108d565b60200260200101906001600160a01b031690816001600160a01b031681525050505080806105d2906110b9565b9150506104af565b5060005b60045481101561064c576000600482815481106105fd576105fd61108d565b60009182526020808320909101546001600160a01b03168252600581526040808320805460ff199081169091556006909252909120805490911690555080610644816110b9565b9150506105de565b5061065960046000610dd5565b60005b815181101561076f5760008282815181106106795761067961108d565b6020026020010151905060006001600160a01b0316816001600160a01b0316036106e55760405162461bcd60e51b815260206004820152601b60248201527f537061636544414f3a20696e76616c696420726563697069656e74000000000060448201526064016101d1565b6001600160a01b031660008181526005602090815260408083208054600160ff199182168117909255600690935290832080549092169091556004805491820181559091527f8a35acfbc15ff81a39ae7d344fd709f28e8600b4aa8c65c6b64bfe7fe36bd19b0180546001600160a01b031916909117905580610767816110b9565b91505061065c565b5060025481516040517f8ba962fb10cab10f895d71e796617f88a2d73fccf0b7c4bedd24b5cba2ed9c59926107a99260ff9091169161105c565b60405180910390a1925050505b92915050565b6060600080548060200260200160405190810160405280929190818152602001828054801561081457602002820191906000526020600020905b81546001600160a01b031681526001909101906020018083116107f6575b5050505050905090565b3360009081526001602052604090205460ff1661084d5760405162461bcd60e51b81526004016101d190610fed565b6001600160a01b0384166108a35760405162461bcd60e51b815260206004820152601760248201527f537061636544414f3a20696e76616c696420746f6b656e00000000000000000060448201526064016101d1565b816108f05760405162461bcd60e51b815260206004820152601a60248201527f537061636544414f3a20656d70747920726563697069656e747300000000000060448201526064016101d1565b600081116109405760405162461bcd60e51b815260206004820152601760248201527f537061636544414f3a20696e76616c69642076616c756500000000000000000060448201526064016101d1565b83600061094d84846110f8565b6040516370a0823160e01b815230600482015290915081906001600160a01b038416906370a0823190602401602060405180830381865afa158015610996573d6000803e3d6000fd5b505050506040513d601f19601f820116820180604052508101906109ba919061110f565b1015610a085760405162461bcd60e51b815260206004820152601e60248201527f537061636544414f3a20696e73756666696369656e742062616c616e6365000060448201526064016101d1565b60005b84811015610c51576000868683818110610a2757610a2761108d565b9050602002016020810190610a3c9190610f1f565b90506001600160a01b038116610a945760405162461bcd60e51b815260206004820152601b60248201527f537061636544414f3a20696e76616c696420726563697069656e74000000000060448201526064016101d1565b6001600160a01b03811660009081526005602052604090205460ff16610af55760405162461bcd60e51b815260206004820152601660248201527514dc1858d9511053ce881b9bdd081cd95b1958dd195960521b60448201526064016101d1565b6001600160a01b03811660009081526006602052604090205460ff1615610b5e5760405162461bcd60e51b815260206004820152601960248201527f537061636544414f3a207265776172642066696e69736865640000000000000060448201526064016101d1565b60405163a9059cbb60e01b81526001600160a01b0382811660048301526024820187905285169063a9059cbb906044016020604051808303816000875af1158015610bad573d6000803e3d6000fd5b505050506040513d601f19601f82011682018060405250810190610bd19190611128565b610c1d5760405162461bcd60e51b815260206004820152601960248201527f537061636544414f3a207472616e73666572206661696c65640000000000000060448201526064016101d1565b6001600160a01b03166000908152600660205260409020805460ff1916600117905580610c49816110b9565b915050610a0b565b5060408051858152602081018590526001600160a01b038816917f60ce3cc2d133631eac66a476f14997a9fa682bd05a60dd993cf02285822d78d8910160405180910390a2505050505050565b60606004805480602002602001604051908101604052809291908181526020018280548015610814576020028201919060005260206000209081546001600160a01b031681526001909101906020018083116107f6575050505050905090565b60408051808201909152600080825260208201526040805180820190915260028054829060ff1682811115610d3557610d35610f94565b6002811115610d4657610d46610f94565b8152602001600182015481525050905090565b600082600003610d6b575060006107b6565b8244423385604051602001610dab9493929190938452602084019290925260601b6bffffffffffffffffffffffff19166040830152605482015260740190565b6040516020818303038152906040528051906020012060001c610dce919061114a565b9392505050565b5080546000825590600052602060002090810190610df39190610df6565b50565b5b80821115610e0b5760008155600101610df7565b5090565b600060208284031215610e2157600080fd5b5035919050565b60008083601f840112610e3a57600080fd5b50813567ffffffffffffffff811115610e5257600080fd5b6020830191508360208260051b8501011115610e6d57600080fd5b9250929050565b60008060208385031215610e8757600080fd5b823567ffffffffffffffff811115610e9e57600080fd5b610eaa85828601610e28565b90969095509350505050565b6020808252825182820181905260009190848201906040850190845b81811015610ef75783516001600160a01b031683529284019291840191600101610ed2565b50909695505050505050565b80356001600160a01b0381168114610f1a57600080fd5b919050565b600060208284031215610f3157600080fd5b610dce82610f03565b60008060008060608587031215610f5057600080fd5b610f5985610f03565b9350602085013567ffffffffffffffff811115610f7557600080fd5b610f8187828801610e28565b9598909750949560400135949350505050565b634e487b7160e01b600052602160045260246000fd5b60038110610fc857634e487b7160e01b600052602160045260246000fd5b9052565b6000604082019050610fdf828451610faa565b602092830151919092015290565b602080825260149082015273537061636544414f3a2061646d696e206f6e6c7960601b604082015260600190565b60208082526021908201527f537061636544414f3a20696e76616c696420726563697069656e7420636f756e6040820152601d60fa1b606082015260800190565b6040810161106a8285610faa565b8260208301529392505050565b634e487b7160e01b600052604160045260246000fd5b634e487b7160e01b600052603260045260246000fd5b634e487b7160e01b600052601160045260246000fd5b6000600182016110cb576110cb6110a3565b5060010190565b818103818111156107b6576107b66110a3565b808201808211156107b6576107b66110a3565b80820281158282048414176107b6576107b66110a3565b60006020828403121561112157600080fd5b5051919050565b60006020828403121561113a57600080fd5b81518015158114610dce57600080fd5b60008261116757634e487b7160e01b600052601260045260246000fd5b50069056fea26469706673582212205e8bc05b19272b950aec03571dccb4440d9b4f9dbdc2bf93f11c1fe2f0ede00964736f6c63430008140033",
  "linkReferences": {},
  "deployedLinkReferences": {}
}