{
  "_format": "hh-sol-artifact-1",
  "contractName": "SpaceDAO",
  "sourceName": "SpaceDao.sol",
  "abi": [
    {
      "inputs": [
        {
          "internalType": "address[]",
          "name": "admins",
          "type": "address[]"
        },
        {
          "internalType": "address",
          "name": "usdt",
          "type": "address"
        },
        {
          "internalType": "uint256",
          "name": "withdrawalAmount",
          "type": "uint256"
        }
      ],
      "stateMutability": "nonpayable",
      "type": "constructor"
    },
    {
      "inputs": [
        {
          "internalType": "address",
          "name": "admin",
          "type": "address"
        }
      ],
      "name": "addAdmin",
      "outputs": [],
      "stateMutability": "nonpayable",
      "type": "function"
    },
    {
      "inputs": [
        {
          "internalType": "uint256",
          "name": "id",
          "type": "uint256"
        }
      ],
      "name": "approveShareWithdrawal",
      "outputs": [],
      "stateMutability": "nonpayable",
      "type": "function"
    },
    {
      "inputs": [
        {
          "internalType": "uint256",
          "name": "amount",
          "type": "uint256"
        }
      ],
      "name": "deposit",
      "outputs": [],
      "stateMutability": "nonpayable",
      "type": "function"
    },
    {
      "inputs": [
        {
          "internalType": "address[]",
          "name": "recipients",
          "type": "address[]"
        }
      ],
      "name": "distributeWithdrawal",
      "outputs": [],
      "stateMutability": "nonpayable",
      "type": "function"
    },
    {
      "inputs": [],
      "name": "getAdmins",
      "outputs": [
        {
          "internalType": "address[]",
          "name": "",
          "type": "address[]"
        }
      ],
      "stateMutability": "view",
      "type": "function"
    },
    {
      "inputs": [
        {
          "internalType": "address",
          "name": "depositor",
          "type": "address"
        }
      ],
      "name": "getAvailableShare",
      "outputs": [
        {
          "internalType": "uint256",
          "name": "",
          "type": "uint256"
        }
      ],
      "stateMutability": "view",
      "type": "function"
    },
    {
      "inputs": [],
      "name": "getBalance",
      "outputs": [
        {
          "internalType": "uint256",
          "name": "",
          "type": "uint256"
        }
      ],
      "stateMutability": "view",
      "type": "function"
    },
    {
      "inputs": [],
      "name": "getDepositorCount",
      "outputs": [
        {
          "internalType": "uint256",
          "name": "",
          "type": "uint256"
        }
      ],
      "stateMutability": "view",
      "type": "function"
    },
    {
      "inputs": [
        {
          "internalType": "address",
          "name": "depositor",
          "type": "address"
        }
      ],
      "name": "getDepositorDeposit",
      "outputs": [
        {
          "internalType": "uint256",
          "name": "",
          "type": "uint256"
        }
      ],
      "stateMutability": "view",
      "type": "function"
    },
    {
      "inputs": [
        {
          "internalType": "address",
          "name": "account",
          "type": "address"
        }
      ],
      "name": "getIsAdmin",
      "outputs": [
        {
          "internalType": "bool",
          "name": "",
          "type": "bool"
        }
      ],
      "stateMutability": "view",
      "type": "function"
    },
    {
      "inputs": [
        {
          "internalType": "uint256",
          "name": "id",
          "type": "uint256"
        }
      ],
      "name": "getShareWithdrawProposal",
      "outputs": [
        {
          "internalType": "address",
          "name": "proposer",
          "type": "address"
        },
        {
          "internalType": "uint256",
          "name": "amount",
          "type": "uint256"
        },
        {
          "internalType": "uint256",
          "name": "approvals",
          "type": "uint256"
        },
        {
          "internalType": "bool",
          "name": "executed",
          "type": "bool"
        }
      ],
      "stateMutability": "view",
      "type": "function"
    },
    {
      "inputs": [],
      "name": "getShareWithdrawProposalCount",
      "outputs": [
        {
          "internalType": "uint256",
          "name": "",
          "type": "uint256"
        }
      ],
      "stateMutability": "view",
      "type": "function"
    },
    {
      "inputs": [],
      "name": "getTotalDepositorDeposited",
      "outputs": [
        {
          "internalType": "uint256",
          "name": "",
          "type": "uint256"
        }
      ],
      "stateMutability": "view",
      "type": "function"
    },
    {
      "inputs": [],
      "name": "getTotalRewardDistributed",
      "outputs": [
        {
          "internalType": "uint256",
          "name": "",
          "type": "uint256"
        }
      ],
      "stateMutability": "view",
      "type": "function"
    },
    {
      "inputs": [],
      "name": "getUsdt",
      "outputs": [
        {
          "internalType": "address",
          "name": "",
          "type": "address"
        }
      ],
      "stateMutability": "view",
      "type": "function"
    },
    {
      "inputs": [],
      "name": "getWithdrawalAmount",
      "outputs": [
        {
          "internalType": "uint256",
          "name": "",
          "type": "uint256"
        }
      ],
      "stateMutability": "view",
      "type": "function"
    },
    {
      "inputs": [
        {
          "internalType": "uint256",
          "name": "id",
          "type": "uint256"
        },
        {
          "internalType": "address",
          "name": "approver",
          "type": "address"
        }
      ],
      "name": "isShareWithdrawApproved",
      "outputs": [
        {
          "internalType": "bool",
          "name": "",
          "type": "bool"
        }
      ],
      "stateMutability": "view",
      "type": "function"
    },
    {
      "inputs": [
        {
          "internalType": "uint256",
          "name": "amount",
          "type": "uint256"
        }
      ],
      "name": "proposeShareWithdrawal",
      "outputs": [],
      "stateMutability": "nonpayable",
      "type": "function"
    },
    {
      "inputs": [
        {
          "internalType": "address",
          "name": "usdt",
          "type": "address"
        }
      ],
      "name": "setUsdtAddress",
      "outputs": [],
      "stateMutability": "nonpayable",
      "type": "function"
    },
    {
      "inputs": [
        {
          "internalType": "uint256",
          "name": "amount",
          "type": "uint256"
        }
      ],
      "name": "setWithdrawalAmount",
      "outputs": [],
      "stateMutability": "nonpayable",
      "type": "function"
    }
  ],
  "bytecode": "0x60806040523480156200001157600080fd5b5060405162001a4738038062001a4783398101604081905262000034916200031d565b6001600160a01b038216620000905760405162461bcd60e51b815260206004820152601f60248201527f537061636544414f3a20696e76616c696420746f6b656e20616464726573730060448201526064015b60405180910390fd5b60008111620000ee5760405162461bcd60e51b815260206004820152602360248201527f537061636544414f3a20696e76616c6964207769746864726177616c20616d6f6044820152621d5b9d60ea1b606482015260840162000087565b6003835110156200014e5760405162461bcd60e51b8152602060048201526024808201527f537061636544414f3a206174206c6561737420332061646d696e7320726571756044820152631a5c995960e21b606482015260840162000087565b600780546001600160a01b0319166001600160a01b038416179055600881905560005b8351811015620002e05760008482815181106200019257620001926200040c565b6020026020010151905060006001600160a01b0316816001600160a01b031603620002005760405162461bcd60e51b815260206004820152601760248201527f537061636544414f3a20696e76616c69642061646d696e000000000000000000604482015260640162000087565b6001600160a01b03811660009081526001602052604090205460ff16156200026b5760405162461bcd60e51b815260206004820152601960248201527f537061636544414f3a206475706c69636174652061646d696e00000000000000604482015260640162000087565b6001600160a01b031660008181526001602081905260408220805460ff191682179055815490810182559080527f290decd9548b62a8d60345a988386fc84ba6bc95484008f6362f93160ef3e5630180546001600160a01b031916909117905580620002d78162000422565b91505062000171565b505050506200044a565b634e487b7160e01b600052604160045260246000fd5b80516001600160a01b03811681146200031857600080fd5b919050565b6000806000606084860312156200033357600080fd5b83516001600160401b03808211156200034b57600080fd5b818601915086601f8301126200036057600080fd5b8151602082821115620003775762000377620002ea565b8160051b604051601f19603f830116810181811086821117156200039f576200039f620002ea565b60405292835281830193508481018201928a841115620003be57600080fd5b948201945b83861015620003e757620003d78662000300565b85529482019493820193620003c3565b9750620003f8905088820162000300565b955050505050604084015190509250925092565b634e487b7160e01b600052603260045260246000fd5b6000600182016200044357634e487b7160e01b600052601160045260246000fd5b5060010190565b6115ed806200045a6000396000f3fe608060405234801561001057600080fd5b506004361061012c5760003560e01c8063822b0ceb116100ad578063b5b060c111610071578063b5b060c1146102ac578063b6b55f25146102d5578063c17f1425146102e8578063dbd27a1e146102fb578063f17bb4621461030357600080fd5b8063822b0ceb146102195780639017cf771461025557806399a58f461461027e578063a0e0fa9b14610286578063a4fb96911461029957600080fd5b806351bf7aef116100f457806351bf7aef146101a457806359199c6c146101b757806370480275146101bf57806376f544da146101d2578063817be2e0146101da57600080fd5b8063089537ae146101315780630cb46b751461015157806312065fe014610166578063168ee33a1461017c57806331ae450b1461018f575b600080fd5b6007546040516001600160a01b0390911681526020015b60405180910390f35b61016461015f36600461132e565b61030b565b005b61016e6103b2565b604051908152602001610148565b61016461018a366004611350565b610424565b6101976104b4565b6040516101489190611369565b6101646101b2366004611350565b610516565b600b5461016e565b6101646101cd36600461132e565b6106ed565b60095461016e565b6101ed6101e8366004611350565b61083d565b604080516001600160a01b03909516855260208501939093529183015215156060820152608001610148565b61024561022736600461132e565b6001600160a01b031660009081526001602052604090205460ff1690565b6040519015158152602001610148565b61016e61026336600461132e565b6001600160a01b031660009081526004602052604090205490565b600d5461016e565b610164610294366004611350565b610897565b6101646102a73660046113b6565b610a38565b61016e6102ba36600461132e565b6001600160a01b031660009081526006602052604090205490565b6101646102e3366004611350565b610ce6565b6102456102f636600461142b565b610eb8565b60085461016e565b600c5461016e565b3360009081526001602052604090205460ff166103435760405162461bcd60e51b815260040161033a90611457565b60405180910390fd5b6001600160a01b0381166103905760405162461bcd60e51b8152602060048201526014602482015273496e76616c69642055534454204164647265737360601b604482015260640161033a565b600780546001600160a01b0319166001600160a01b0392909216919091179055565b6007546040516370a0823160e01b81523060048201526000916001600160a01b0316906370a0823190602401602060405180830381865afa1580156103fb573d6000803e3d6000fd5b505050506040513d601f19601f8201168201806040525081019061041f9190611485565b905090565b3360009081526001602052604090205460ff166104535760405162461bcd60e51b815260040161033a90611457565b600081116104af5760405162461bcd60e51b815260206004820152602360248201527f537061636544414f3a20696e76616c6964207769746864726177616c20616d6f6044820152621d5b9d60ea1b606482015260840161033a565b600855565b6060600080548060200260200160405190810160405280929190818152602001828054801561050c57602002820191906000526020600020905b81546001600160a01b031681526001909101906020018083116104ee575b5050505050905090565b3360009081526002602052604090205460ff166105705760405162461bcd60e51b8152602060048201526018602482015277537061636544414f3a206465706f7369746f72206f6e6c7960401b604482015260640161033a565b6000600d82815481106105855761058561149e565b60009182526020909120600590910201600381015490915060ff16156105ed5760405162461bcd60e51b815260206004820152601a60248201527f537061636544414f3a20616c7265616479206578656375746564000000000000604482015260640161033a565b33600090815260048201602052604090205460ff161561064f5760405162461bcd60e51b815260206004820152601a60248201527f537061636544414f3a20616c726561647920617070726f766564000000000000604482015260640161033a565b3360009081526004820160205260408120805460ff19166001908117909155600283018054919290916106839084906114ca565b9091555050600c5460009061069a906002906114f3565b6000036106b7576002600c546106b09190611507565b90506106d4565b6002600c546106c69190611507565b6106d19060016114ca565b90505b808260020154106106e8576106e882610f04565b505050565b3360009081526001602052604090205460ff1661071c5760405162461bcd60e51b815260040161033a90611457565b6001600160a01b0381166107725760405162461bcd60e51b815260206004820152601760248201527f537061636544414f3a20696e76616c69642061646d696e000000000000000000604482015260640161033a565b6001600160a01b03811660009081526001602052604090205460ff16156107db5760405162461bcd60e51b815260206004820152601960248201527f537061636544414f3a206475706c69636174652061646d696e00000000000000604482015260640161033a565b6001600160a01b031660008181526001602081905260408220805460ff191682179055815490810182559080527f290decd9548b62a8d60345a988386fc84ba6bc95484008f6362f93160ef3e5630180546001600160a01b0319169091179055565b6000806000806000600d86815481106108585761085861149e565b600091825260209091206005909102018054600182015460028301546003909301546001600160a01b039092169990985091965060ff16945092505050565b3360009081526002602052604090205460ff166108f15760405162461bcd60e51b8152602060048201526018602482015277537061636544414f3a206465706f7369746f72206f6e6c7960401b604482015260640161033a565b6000811161093c5760405162461bcd60e51b8152602060048201526018602482015277537061636544414f3a20616d6f756e74206973207a65726f60401b604482015260640161033a565b3360009081526004602052604090205461098f5760405162461bcd60e51b815260206004820152601460248201527314dc1858d9511053ce881b9bc819195c1bdcda5d60621b604482015260640161033a565b33600090815260066020526040902054808211156109e95760405162461bcd60e51b8152602060048201526017602482015276537061636544414f3a206578636565647320736861726560481b604482015260640161033a565b600d805460018101808355600083815291929083908110610a0c57610a0c61149e565b6000918252602090912060059091020180546001600160a01b0319163317815560010193909355505050565b3360009081526001602052604090205460ff16610a675760405162461bcd60e51b815260040161033a90611457565b8080610ab55760405162461bcd60e51b815260206004820152601a60248201527f537061636544414f3a20656d70747920726563697069656e7473000000000000604482015260640161033a565b600081600854610ac5919061151b565b6007546040516370a0823160e01b81523060048201529192506000916001600160a01b03909116906370a0823190602401602060405180830381865afa158015610b13573d6000803e3d6000fd5b505050506040513d601f19601f82011682018060405250810190610b379190611485565b905081811015610b895760405162461bcd60e51b815260206004820152601e60248201527f537061636544414f3a20696e73756666696369656e742062616c616e63650000604482015260640161033a565b60005b83811015610cbe576000868683818110610ba857610ba861149e565b9050602002016020810190610bbd919061132e565b90506001600160a01b038116610c155760405162461bcd60e51b815260206004820152601b60248201527f537061636544414f3a20696e76616c696420726563697069656e740000000000604482015260640161033a565b60075460085460405163a9059cbb60e01b81526001600160a01b038481166004830152602482019290925291169063a9059cbb906044016020604051808303816000875af1158015610c6b573d6000803e3d6000fd5b505050506040513d601f19601f82011682018060405250810190610c8f9190611532565b610cab5760405162461bcd60e51b815260040161033a90611554565b5080610cb68161158b565b915050610b8c565b5081600b6000828254610cd191906114ca565b90915550610cdf90506111a4565b5050505050565b60008111610d315760405162461bcd60e51b8152602060048201526018602482015277537061636544414f3a20616d6f756e74206973207a65726f60401b604482015260640161033a565b6007546040516323b872dd60e01b8152336004820152306024820152604481018390526001600160a01b03909116906323b872dd906064016020604051808303816000875af1158015610d88573d6000803e3d6000fd5b505050506040513d601f19601f82011682018060405250810190610dac9190611532565b610dc85760405162461bcd60e51b815260040161033a90611554565b3360009081526002602052604090205460ff16610e5457336000818152600260205260408120805460ff191660019081179091556003805480830182559083527fc2575a0e9e593c00f959f8c92f12db2869c3395a3b0502d05e2516446f71f85b0180546001600160a01b031916909317909255600c8054909190610e4e9084906114ca565b90915550505b3360009081526004602052604081208054839290610e739084906114ca565b925050819055508060096000828254610e8c91906114ca565b90915550503360009081526006602052604081208054839290610eb09084906114ca565b909155505050565b600080600d8481548110610ece57610ece61149e565b600091825260208083206001600160a01b03871684526004600590930201919091019052604090205460ff169150505b92915050565b600381015460ff1615610f595760405162461bcd60e51b815260206004820152601a60248201527f537061636544414f3a20616c7265616479206578656375746564000000000000604482015260640161033a565b60018101546007546040516370a0823160e01b81523060048201526001600160a01b03909116906370a0823190602401602060405180830381865afa158015610fa6573d6000803e3d6000fd5b505050506040513d601f19601f82011682018060405250810190610fca9190611485565b10156110185760405162461bcd60e51b815260206004820152601e60248201527f537061636544414f3a20696e73756666696369656e742062616c616e63650000604482015260640161033a565b80546001600160a01b031660009081526006602052604090205460018201548110156110805760405162461bcd60e51b8152602060048201526017602482015276537061636544414f3a206578636565647320736861726560481b604482015260640161033a565b60038201805460ff1916600190811790915582015461109f90826115a4565b82546001600160a01b03908116600090815260066020908152604080832094909455600186015486549093168252600590529182208054919290916110e59084906114ca565b90915550506001820154600a80546000906111019084906114ca565b90915550506007548254600184015460405163a9059cbb60e01b81526001600160a01b039283166004820152602481019190915291169063a9059cbb906044016020604051808303816000875af1158015611160573d6000803e3d6000fd5b505050506040513d601f19601f820116820180604052508101906111849190611532565b6111a05760405162461bcd60e51b815260040161033a90611554565b5050565b6000600a546009546111b691906115a4565b6003549091506000036111c65750565b8015806111d5575080600b5410155b156112375760005b6003548110156111a057600060066000600384815481106112005761120061149e565b60009182526020808320909101546001600160a01b031683528201929092526040019020558061122f8161158b565b9150506111dd565b6000600b548261124791906115a4565b905060005b6003548110156106e85760006003828154811061126b5761126b61149e565b60009182526020808320909101546001600160a01b03168083526005825260408084205460049093528320549093506112a491906115a4565b9050806000036112cc57506001600160a01b0316600090815260066020526040812055611300565b846112d7828661151b565b6112e19190611507565b6001600160a01b03909216600090815260066020526040902091909155505b8061130a8161158b565b91505061124c565b80356001600160a01b038116811461132957600080fd5b919050565b60006020828403121561134057600080fd5b61134982611312565b9392505050565b60006020828403121561136257600080fd5b5035919050565b6020808252825182820181905260009190848201906040850190845b818110156113aa5783516001600160a01b031683529284019291840191600101611385565b50909695505050505050565b600080602083850312156113c957600080fd5b823567ffffffffffffffff808211156113e157600080fd5b818501915085601f8301126113f557600080fd5b81358181111561140457600080fd5b8660208260051b850101111561141957600080fd5b60209290920196919550909350505050565b6000806040838503121561143e57600080fd5b8235915061144e60208401611312565b90509250929050565b602080825260149082015273537061636544414f3a2061646d696e206f6e6c7960601b604082015260600190565b60006020828403121561149757600080fd5b5051919050565b634e487b7160e01b600052603260045260246000fd5b634e487b7160e01b600052601160045260246000fd5b80820180821115610efe57610efe6114b4565b634e487b7160e01b600052601260045260246000fd5b600082611502576115026114dd565b500690565b600082611516576115166114dd565b500490565b8082028115828204841417610efe57610efe6114b4565b60006020828403121561154457600080fd5b8151801515811461134957600080fd5b60208082526019908201527f537061636544414f3a207472616e73666572206661696c656400000000000000604082015260600190565b60006001820161159d5761159d6114b4565b5060010190565b81810381811115610efe57610efe6114b456fea264697066735822122056244ed7c295828c456a11b39769485a653920d34fd75cc6da52826a602fe44c64736f6c63430008140033",
  "linkReferences": {},
  "deployedLinkReferences": {}
}