{
  "_format": "hh-sol-artifact-1",
  "contractName": "SpaceIncentive",
  "sourceName": "SpaceIncentive.sol",
  "abi": [
    {
      "inputs": [
        {
          "internalType": "address[]",
          "name": "admins",
          "type": "address[]"
        },
        {
          "components": [
            {
              "internalType": "enum SpaceIncentive.IncentiveDistributionMode",
              "name": "mode",
              "type": "uint8"
            },
            {
              "internalType": "uint256",
              "name": "numOfTargets",
              "type": "uint256"
            },
            {
              "internalType": "uint16",
              "name": "rankingBps",
              "type": "uint16"
            }
          ],
          "internalType": "struct SpaceIncentive.IncentiveDistributionConfig",
          "name": "incentiveDistributionConfig",
          "type": "tuple"
        }
      ],
      "stateMutability": "nonpayable",
      "type": "constructor"
    },
    {
      "anonymous": false,
      "inputs": [
        {
          "indexed": true,
          "internalType": "address",
          "name": "token",
          "type": "address"
        },
        {
          "indexed": true,
          "internalType": "address",
          "name": "recipient",
          "type": "address"
        },
        {
          "indexed": false,
          "internalType": "uint256",
          "name": "value",
          "type": "uint256"
        }
      ],
      "name": "IncentiveClaimed",
      "type": "event"
    },
    {
      "anonymous": false,
      "inputs": [
        {
          "indexed": false,
          "internalType": "enum SpaceIncentive.IncentiveDistributionMode",
          "name": "mode",
          "type": "uint8"
        },
        {
          "indexed": false,
          "internalType": "uint256",
          "name": "numOfTargets",
          "type": "uint256"
        },
        {
          "indexed": false,
          "internalType": "uint16",
          "name": "rankingBps",
          "type": "uint16"
        }
      ],
      "name": "IncentiveDistributionConfigUpdated",
      "type": "event"
    },
    {
      "anonymous": false,
      "inputs": [
        {
          "indexed": false,
          "internalType": "enum SpaceIncentive.IncentiveDistributionMode",
          "name": "mode",
          "type": "uint8"
        },
        {
          "indexed": false,
          "internalType": "uint256",
          "name": "count",
          "type": "uint256"
        }
      ],
      "name": "IncentiveDistributionSelected",
      "type": "event"
    },
    {
      "inputs": [
        {
          "internalType": "address",
          "name": "token",
          "type": "address"
        }
      ],
      "name": "claimIncentive",
      "outputs": [],
      "stateMutability": "nonpayable",
      "type": "function"
    },
    {
      "inputs": [],
      "name": "getAdmins",
      "outputs": [
        {
          "internalType": "address[]",
          "name": "",
          "type": "address[]"
        }
      ],
      "stateMutability": "view",
      "type": "function"
    },
    {
      "inputs": [
        {
          "internalType": "address",
          "name": "token",
          "type": "address"
        }
      ],
      "name": "getIncentiveAmount",
      "outputs": [
        {
          "internalType": "uint256",
          "name": "",
          "type": "uint256"
        }
      ],
      "stateMutability": "view",
      "type": "function"
    },
    {
      "inputs": [],
      "name": "getIncentiveDistributionConfig",
      "outputs": [
        {
          "components": [
            {
              "internalType": "enum SpaceIncentive.IncentiveDistributionMode",
              "name": "mode",
              "type": "uint8"
            },
            {
              "internalType": "uint256",
              "name": "numOfTargets",
              "type": "uint256"
            },
            {
              "internalType": "uint16",
              "name": "rankingBps",
              "type": "uint16"
            }
          ],
          "internalType": "struct SpaceIncentive.IncentiveDistributionConfig",
          "name": "",
          "type": "tuple"
        }
      ],
      "stateMutability": "view",
      "type": "function"
    },
    {
      "inputs": [],
      "name": "getIncentiveRecipients",
      "outputs": [
        {
          "internalType": "address[]",
          "name": "",
          "type": "address[]"
        }
      ],
      "stateMutability": "view",
      "type": "function"
    },
    {
      "inputs": [
        {
          "internalType": "address",
          "name": "account",
          "type": "address"
        }
      ],
      "name": "getIsAdmin",
      "outputs": [
        {
          "internalType": "bool",
          "name": "",
          "type": "bool"
        }
      ],
      "stateMutability": "view",
      "type": "function"
    },
    {
      "inputs": [
        {
          "internalType": "address",
          "name": "account",
          "type": "address"
        }
      ],
      "name": "isIncentiveClaimed",
      "outputs": [
        {
          "internalType": "bool",
          "name": "",
          "type": "bool"
        }
      ],
      "stateMutability": "view",
      "type": "function"
    },
    {
      "inputs": [
        {
          "internalType": "address",
          "name": "account",
          "type": "address"
        }
      ],
      "name": "isIncentiveRecipient",
      "outputs": [
        {
          "internalType": "bool",
          "name": "",
          "type": "bool"
        }
      ],
      "stateMutability": "view",
      "type": "function"
    },
    {
      "inputs": [
        {
          "internalType": "address[]",
          "name": "candidates",
          "type": "address[]"
        },
        {
          "internalType": "uint256[]",
          "name": "scores",
          "type": "uint256[]"
        }
      ],
      "name": "selectIncentiveRecipients",
      "outputs": [
        {
          "internalType": "address[]",
          "name": "",
          "type": "address[]"
        }
      ],
      "stateMutability": "nonpayable",
      "type": "function"
    },
    {
      "inputs": [
        {
          "internalType": "uint16",
          "name": "rankingBps",
          "type": "uint16"
        }
      ],
      "name": "setIncentiveRankingBps",
      "outputs": [],
      "stateMutability": "nonpayable",
      "type": "function"
    },
    {
      "inputs": [
        {
          "internalType": "uint256",
          "name": "numOfTargets",
          "type": "uint256"
        }
      ],
      "name": "setIncentiveRecipientCount",
      "outputs": [],
      "stateMutability": "nonpayable",
      "type": "function"
    }
  ],
  "bytecode": "0x60806040523480156200001157600080fd5b50604051620023c6380380620023c6833981016040819052620000349162000389565b60008251116200008b5760405162461bcd60e51b815260206004820152601c60248201527f5370616365496e63656e746976653a20656d7074792061646d696e730000000060448201526064015b60405180910390fd5b612710816040015161ffff161115620000f35760405162461bcd60e51b815260206004820152602360248201527f5370616365496e63656e746976653a20696e76616c69642072616e6b696e672060448201526262707360e81b606482015260840162000082565b60005b82518110156200026557600083828151811062000117576200011762000468565b6020026020010151905060006001600160a01b0316816001600160a01b031603620001855760405162461bcd60e51b815260206004820152601d60248201527f5370616365496e63656e746976653a20696e76616c69642061646d696e000000604482015260640162000082565b6001600160a01b03811660009081526001602052604090205460ff1615620001f05760405162461bcd60e51b815260206004820152601f60248201527f5370616365496e63656e746976653a206475706c69636174652061646d696e00604482015260640162000082565b6001600160a01b031660008181526001602081905260408220805460ff191682179055815490810182559080527f290decd9548b62a8d60345a988386fc84ba6bc95484008f6362f93160ef3e5630180546001600160a01b0319169091179055806200025c816200047e565b915050620000f6565b50805160028054839290829060ff1916600183838111156200028b576200028b620004a6565b0217905550602082015160018201556040909101516002909101805461ffff191661ffff90921691909117905550620004bc9050565b634e487b7160e01b600052604160045260246000fd5b604051601f8201601f191681016001600160401b0381118282101715620003025762000302620002c1565b604052919050565b6000606082840312156200031d57600080fd5b604051606081016001600160401b0381118282101715620003425762000342620002c1565b80604052508091508251600381106200035a57600080fd5b815260208381015190820152604083015161ffff811681146200037c57600080fd5b6040919091015292915050565b600080608083850312156200039d57600080fd5b82516001600160401b0380821115620003b557600080fd5b818501915085601f830112620003ca57600080fd5b8151602082821115620003e157620003e1620002c1565b8160051b9250620003f4818401620002d7565b82815292840181019281810190898511156200040f57600080fd5b948201945b848610156200044957855193506001600160a01b0384168414620004385760008081fd5b838252948201949082019062000414565b96506200045b9050888883016200030a565b9450505050509250929050565b634e487b7160e01b600052603260045260246000fd5b6000600182016200049f57634e487b7160e01b600052601160045260246000fd5b5060010190565b634e487b7160e01b600052602160045260246000fd5b611efa80620004cc6000396000f3fe608060405234801561001057600080fd5b50600436106100a95760003560e01c80635097fc31116100715780635097fc3114610145578063822b0ceb1461015857806386efcab614610184578063b44be4f3146101a5578063d619f07c146101d1578063dfa9f205146101d957600080fd5b806314e0010d146100ae5780631874bb68146100c357806331ae450b146100d657806335109c66146100f45780634517abeb14610109575b600080fd5b6100c16100bc366004611b20565b6101ec565b005b6100c16100d1366004611b44565b610352565b6100de610466565b6040516100eb9190611b5d565b60405180910390f35b6100fc6104c8565b6040516100eb9190611be2565b610135610117366004611c13565b6001600160a01b031660009081526006602052604090205460ff1690565b60405190151581526020016100eb565b6100de610153366004611c88565b61053b565b610135610166366004611c13565b6001600160a01b031660009081526001602052604090205460ff1690565b610197610192366004611c13565b610a73565b6040519081526020016100eb565b6101356101b3366004611c13565b6001600160a01b031660009081526007602052604090205460ff1690565b6100de610b55565b6100c16101e7366004611c13565b610bb5565b3360009081526001602052604090205460ff166102245760405162461bcd60e51b815260040161021b90611cf4565b60405180910390fd5b6127108161ffff1611156102865760405162461bcd60e51b815260206004820152602360248201527f5370616365496e63656e746976653a20696e76616c69642072616e6b696e672060448201526262707360e81b606482015260840161021b565b604080516060810190915260028054829160ff909116908111156102ac576102ac611baa565b8152600354602082015261ffff8316604090910152805160028054909190829060ff1916600183838111156102e3576102e3611baa565b0217905550602082015160018201556040918201516002918201805461ffff191661ffff9092169190911790555460035491517fd9b521f6416b47eb97d15eff39722101c0ae870fb77dbff30b5160432c75e0c0926103479260ff16918590611d2b565b60405180910390a150565b3360009081526001602052604090205460ff166103815760405162461bcd60e51b815260040161021b90611cf4565b600081116103a15760405162461bcd60e51b815260040161021b90611d51565b604080516060810190915260028054829160ff909116908111156103c7576103c7611baa565b81526020810183905260045461ffff16604090910152805160028054909190829060ff1916600183838111156103ff576103ff611baa565b0217905550602082015160018201556040918201516002918201805461ffff191661ffff928316179055905460045492517fd9b521f6416b47eb97d15eff39722101c0ae870fb77dbff30b5160432c75e0c0936103479360ff909316928692911690611d2b565b606060008054806020026020016040519081016040528092919081815260200182805480156104be57602002820191906000526020600020905b81546001600160a01b031681526001909101906020018083116104a0575b5050505050905090565b6040805160608101825260008082526020820181905291810191909152604080516060810190915260028054829060ff168281111561050957610509611baa565b600281111561051a5761051a611baa565b81526001820154602082015260029091015461ffff16604090910152919050565b3360009081526001602052604090205460609060ff1661056d5760405162461bcd60e51b815260040161021b90611cf4565b836105ba5760405162461bcd60e51b815260206004820181905260248201527f5370616365496e63656e746976653a20656d7074792063616e64696461746573604482015260640161021b565b8382146106095760405162461bcd60e51b815260206004820152601e60248201527f5370616365496e63656e746976653a20696e76616c69642073636f7265730000604482015260640161021b565b600354806106295760405162461bcd60e51b815260040161021b90611d51565b848111156106345750835b6000805b8481101561068157600086868381811061065457610654611d98565b90506020020135111561066f5761066c600183611dc4565b91505b8061067981611dd7565b915050610638565b508082111561068e578091505b60008667ffffffffffffffff8111156106a9576106a9611df0565b6040519080825280602002602001820160405280156106d2578160200160208202803683370190505b509050606060016002805460ff16908111156106f0576106f0611baa565b0361076d5761076689898080602002602001604051908101604052809392919081815260200183836020028082843760009201919091525050604080516020808d0282810182019093528c82529093508c92508b9182918501908490808284376000920191909152508992508791506110159050565b905061086d565b6002805460ff168181111561078457610784611baa565b036107fa5761076689898080602002602001604051908101604052809392919081815260200183836020028082843760009201919091525050604080516020808d0282810182019093528c82529093508c92508b9182918501908490808284376000920191909152508992508791506112509050565b61086a89898080602002602001604051908101604052809392919081815260200183836020028082843760009201919091525050604080516020808d0282810182019093528c82529093508c92508b91829185019084908082843760009201829052508a935088925090506114b2565b90505b60005b6005548110156108de5760006005828154811061088f5761088f611d98565b60009182526020808320909101546001600160a01b03168252600681526040808320805460ff1990811690915560079092529091208054909116905550806108d681611dd7565b915050610870565b506108eb60056000611ae6565b60005b8151811015610a0b57600082828151811061090b5761090b611d98565b6020026020010151905060006001600160a01b0316816001600160a01b0316036109815760405162461bcd60e51b815260206004820152602160248201527f5370616365496e63656e746976653a20696e76616c696420726563697069656e6044820152601d60fa1b606482015260840161021b565b6001600160a01b031660008181526006602090815260408083208054600160ff199182168117909255600790935290832080549092169091556005805491820181559091527f036b6384b5eca791c62761152d0c79bb0604c104a5fb6f4eb0703f3154bb3db00180546001600160a01b031916909117905580610a0381611dd7565b9150506108ee565b50600160086000828254610a1f9190611dc4565b909155505060025481516040517fc45bfd50a8ecaa005a4192abcfd7b6287928923027568e56f26f125a2622056e92610a5d9260ff90911691611e06565b60405180910390a193505050505b949350505050565b60006001600160a01b038216610a8b57506000919050565b6005546000819003610aa05750600092915050565b6008546001600160a01b0384166000908152600a602052604090205403610ade5750506001600160a01b031660009081526009602052604090205490565b6040516370a0823160e01b81523060048201526000906001600160a01b038516906370a0823190602401602060405180830381865afa158015610b25573d6000803e3d6000fd5b505050506040513d601f19601f82011682018060405250810190610b499190611e21565b9050610a6b8282611e50565b606060058054806020026020016040519081016040528092919081815260200182805480156104be576020028201919060005260206000209081546001600160a01b031681526001909101906020018083116104a0575050505050905090565b6001600160a01b038116610c0b5760405162461bcd60e51b815260206004820152601d60248201527f5370616365496e63656e746976653a20696e76616c696420746f6b656e000000604482015260640161021b565b3360008181526006602052604090205460ff16610c6a5760405162461bcd60e51b815260206004820152601c60248201527f5370616365496e63656e746976653a206e6f742073656c656374656400000000604482015260640161021b565b6001600160a01b03811660009081526007602052604090205460ff1615610cde5760405162461bcd60e51b815260206004820152602260248201527f5370616365496e63656e746976653a20696e63656e746976652066696e697368604482015261195960f21b606482015260840161021b565b600554829080610d005760405162461bcd60e51b815260040161021b90611d51565b6001600160a01b038416600090815260096020908152604080832054600854600a90935292205414610e21576040516370a0823160e01b81523060048201526000906001600160a01b038516906370a0823190602401602060405180830381865afa158015610d73573d6000803e3d6000fd5b505050506040513d601f19601f82011682018060405250810190610d979190611e21565b9050610da38382611e50565b915060008211610df55760405162461bcd60e51b815260206004820152601d60248201527f5370616365496e63656e746976653a20696e76616c69642076616c7565000000604482015260640161021b565b506001600160a01b0385166000908152600960209081526040808320849055600854600a909252909120555b6040516370a0823160e01b815230600482015281906001600160a01b038516906370a0823190602401602060405180830381865afa158015610e67573d6000803e3d6000fd5b505050506040513d601f19601f82011682018060405250810190610e8b9190611e21565b1015610ee55760405162461bcd60e51b8152602060048201526024808201527f5370616365496e63656e746976653a20696e73756666696369656e742062616c604482015263616e636560e01b606482015260840161021b565b6001600160a01b0384811660008181526007602052604090819020805460ff191660011790555163a9059cbb60e01b81526004810191909152602481018390529084169063a9059cbb906044016020604051808303816000875af1158015610f51573d6000803e3d6000fd5b505050506040513d601f19601f82011682018060405250810190610f759190611e64565b610fc15760405162461bcd60e51b815260206004820152601f60248201527f5370616365496e63656e746976653a207472616e73666572206661696c656400604482015260640161021b565b836001600160a01b0316856001600160a01b03167f13eaaf2df2dcca9417c8f725f7fd973c2cb89c37169e1df364bc3ae2609a9de28360405161100691815260200190565b60405180910390a35050505050565b606060008367ffffffffffffffff81111561103257611032611df0565b60405190808252806020026020018201604052801561105b578160200160208202803683370190505b5090506000805b8581101561118c576000600019815b8a518110156110e55787818151811061108c5761108c611d98565b60200260200101516110d35760008a82815181106110ac576110ac611d98565b602002602001015190506000198314806110c557508381115b156110d1578093508192505b505b806110dd81611dd7565b915050611071565b506000198114806110f4575081155b1561110057505061118c565b600187828151811061111457611114611d98565b60200260200101901515908115158152505089818151811061113857611138611d98565b602002602001015185858151811061115257611152611d98565b6001600160a01b0390921660209283029190910190910152611175600185611dc4565b93505050808061118490611dd7565b915050611062565b5084810361119c57509050610a6b565b60008167ffffffffffffffff8111156111b7576111b7611df0565b6040519080825280602002602001820160405280156111e0578160200160208202803683370190505b50905060005b828110156112445783818151811061120057611200611d98565b602002602001015182828151811061121a5761121a611d98565b6001600160a01b03909216602092830291909101909101528061123c81611dd7565b9150506111e6565b50979650505050505050565b6004546060906000906127109061126b9061ffff1686611e86565b6112759190611e50565b9050838111156112825750825b600061128e8286611e9d565b905060008567ffffffffffffffff8111156112ab576112ab611df0565b6040519080825280602002602001820160405280156112d4578160200160208202803683370190505b509050600083156113615760006112ed8a8a878a611015565b905060005b815181101561135e5781818151811061130d5761130d611d98565b602002602001015184848151811061132757611327611d98565b6001600160a01b039092166020928302919091019091015261134a600184611dc4565b92508061135681611dd7565b9150506112f2565b50505b82156113ea5760006113768a8a868a896114b2565b905060005b81518110156113e75781818151811061139657611396611d98565b60200260200101518484815181106113b0576113b0611d98565b6001600160a01b03909216602092830291909101909101526113d3600184611dc4565b9250806113df81611dd7565b91505061137b565b50505b8681036113fc57509250610a6b915050565b60008167ffffffffffffffff81111561141757611417611df0565b604051908082528060200260200182016040528015611440578160200160208202803683370190505b50905060005b828110156114a45783818151811061146057611460611d98565b602002602001015182828151811061147a5761147a611d98565b6001600160a01b03909216602092830291909101909101528061149c81611dd7565b915050611446565b509998505050505050505050565b835160609060006114c4826001611dc4565b67ffffffffffffffff8111156114dc576114dc611df0565b604051908082528060200260200182016040528015611505578160200160208202803683370190505b50905060008267ffffffffffffffff81111561152357611523611df0565b60405190808252806020026020018201604052801561154c578160200160208202803683370190505b50905060005b838110156115ea57600087828151811061156e5761156e611d98565b60200260200101516115995789828151811061158c5761158c611d98565b602002602001015161159c565b60005b9050808383815181106115b1576115b1611d98565b602090810291909101015280156115d7576115d7846115d1846001611dc4565b8361188f565b50806115e281611dd7565b915050611552565b5060008767ffffffffffffffff81111561160657611606611df0565b60405190808252806020026020018201604052801561162f578160200160208202803683370190505b5090506000805b898110156117c157600061164a86886118f8565b90508060000361165a57506117c1565b600061166f8261166a858d611dc4565b611951565b9050600061168788611682846001611dc4565b6119c6565b90508881106116d85760405162461bcd60e51b815260206004820152601d60248201527f5370616365496e63656e746976653a206e6f2063616e64696461746573000000604482015260640161021b565b60018c82815181106116ec576116ec611d98565b6020026020010190151590811515815250508e818151811061171057611710611d98565b602002602001015186868151811061172a5761172a611d98565b6001600160a01b039092166020928302919091019091015261174d600186611dc4565b9450600087828151811061176357611763611d98565b6020026020010151905060008111156117aa57600088838151811061178a5761178a611d98565b60209081029190910101526117aa896117a4846001611dc4565b83611a83565b5050505080806117b990611dd7565b915050611636565b508881036117d55750935061188692505050565b60008167ffffffffffffffff8111156117f0576117f0611df0565b604051908082528060200260200182016040528015611819578160200160208202803683370190505b50905060005b8281101561187d5783818151811061183957611839611d98565b602002602001015182828151811061185357611853611d98565b6001600160a01b03909216602092830291909101909101528061187581611dd7565b91505061181f565b50955050505050505b95945050505050565b60006001845161189f9190611e9d565b90505b8083116118f257818484815181106118bc576118bc611d98565b602002602001018181516118d09190611dc4565b9052506118df83196001611dc4565b6118eb90841684611dc4565b92506118a2565b50505050565b6000805b82156119485783838151811061191457611914611d98565b6020026020010151816119279190611dc4565b905061193583196001611dc4565b61194190841684611e9d565b92506118fc565b90505b92915050565b6000826000036119635750600061194b565b82444233856040516020016119a39493929190938452602084019290925260601b6bffffffffffffffffffffffff19166040830152605482015260740190565b6040516020818303038152906040528051906020012060001c6119489190611eb0565b8151600090819060019082906119dd908390611e9d565b90505b8082116119f357600182901b91506119e0565b6000825b8015611a77576000611a098287611dc4565b9050838111158015611a3e575087898281518110611a2957611a29611d98565b602002602001015184611a3c9190611dc4565b105b15611a6e57888181518110611a5557611a55611d98565b602002602001015183611a689190611dc4565b92508095505b5060011c6119f7565b50929695505050505050565b600060018451611a939190611e9d565b90505b8083116118f25781848481518110611ab057611ab0611d98565b60200260200101818151611ac49190611e9d565b905250611ad383196001611dc4565b611adf90841684611dc4565b9250611a96565b5080546000825590600052602060002090810190611b049190611b07565b50565b5b80821115611b1c5760008155600101611b08565b5090565b600060208284031215611b3257600080fd5b813561ffff8116811461194857600080fd5b600060208284031215611b5657600080fd5b5035919050565b6020808252825182820181905260009190848201906040850190845b81811015611b9e5783516001600160a01b031683529284019291840191600101611b79565b50909695505050505050565b634e487b7160e01b600052602160045260246000fd5b60038110611bde57634e487b7160e01b600052602160045260246000fd5b9052565b6000606082019050611bf5828451611bc0565b6020830151602083015261ffff604084015116604083015292915050565b600060208284031215611c2557600080fd5b81356001600160a01b038116811461194857600080fd5b60008083601f840112611c4e57600080fd5b50813567ffffffffffffffff811115611c6657600080fd5b6020830191508360208260051b8501011115611c8157600080fd5b9250929050565b60008060008060408587031215611c9e57600080fd5b843567ffffffffffffffff80821115611cb657600080fd5b611cc288838901611c3c565b90965094506020870135915080821115611cdb57600080fd5b50611ce887828801611c3c565b95989497509550505050565b6020808252601a908201527f5370616365496e63656e746976653a2061646d696e206f6e6c79000000000000604082015260600190565b60608101611d398286611bc0565b83602083015261ffff83166040830152949350505050565b60208082526027908201527f5370616365496e63656e746976653a20696e76616c696420726563697069656e6040820152661d0818dbdd5b9d60ca1b606082015260800190565b634e487b7160e01b600052603260045260246000fd5b634e487b7160e01b600052601160045260246000fd5b8082018082111561194b5761194b611dae565b600060018201611de957611de9611dae565b5060010190565b634e487b7160e01b600052604160045260246000fd5b60408101611e148285611bc0565b8260208301529392505050565b600060208284031215611e3357600080fd5b5051919050565b634e487b7160e01b600052601260045260246000fd5b600082611e5f57611e5f611e3a565b500490565b600060208284031215611e7657600080fd5b8151801515811461194857600080fd5b808202811582820484141761194b5761194b611dae565b8181038181111561194b5761194b611dae565b600082611ebf57611ebf611e3a565b50069056fea2646970667358221220db070e479ed5073468bd9f5fc3d60ae9f4ca2cc03a066f95109656415b684aad64736f6c63430008140033",
  "linkReferences": {},
  "deployedLinkReferences": {}
}