{
  "_format": "hh-sol-artifact-1",
  "contractName": "SpaceFactory",
  "sourceName": "SpaceDaoFactory.sol",
  "abi": [
    {
      "inputs": [
        {
          "internalType": "address",
          "name": "_daoImpl",
          "type": "address"
        },
        {
          "internalType": "address",
          "name": "_extImpl",
          "type": "address"
        }
      ],
      "stateMutability": "nonpayable",
      "type": "constructor"
    },
    {
      "inputs": [],
      "name": "FailedDeployment",
      "type": "error"
    },
    {
      "inputs": [
        {
          "internalType": "uint256",
          "name": "balance",
          "type": "uint256"
        },
        {
          "internalType": "uint256",
          "name": "needed",
          "type": "uint256"
        }
      ],
      "name": "InsufficientBalance",
      "type": "error"
    },
    {
      "anonymous": false,
      "inputs": [
        {
          "indexed": true,
          "internalType": "address",
          "name": "dao",
          "type": "address"
        },
        {
          "indexed": true,
          "internalType": "address",
          "name": "rewardExtension",
          "type": "address"
        }
      ],
      "name": "SpaceCreated",
      "type": "event"
    },
    {
      "inputs": [
        {
          "internalType": "address[]",
          "name": "_admins",
          "type": "address[]"
        }
      ],
      "name": "createSpace",
      "outputs": [
        {
          "internalType": "address",
          "name": "",
          "type": "address"
        }
      ],
      "stateMutability": "nonpayable",
      "type": "function"
    },
    {
      "inputs": [],
      "name": "daoImplementation",
      "outputs": [
        {
          "internalType": "address",
          "name": "",
          "type": "address"
        }
      ],
      "stateMutability": "view",
      "type": "function"
    },
    {
      "inputs": [
        {
          "internalType": "uint256",
          "name": "",
          "type": "uint256"
        }
      ],
      "name": "deployedDAOs",
      "outputs": [
        {
          "internalType": "address",
          "name": "",
          "type": "address"
        }
      ],
      "stateMutability": "view",
      "type": "function"
    },
    {
      "inputs": [],
      "name": "extImplementation",
      "outputs": [
        {
          "internalType": "address",
          "name": "",
          "type": "address"
        }
      ],
      "stateMutability": "view",
      "type": "function"
    },
    {
      "inputs": [],
      "name": "getDeployedDAOs",
      "outputs": [
        {
          "internalType": "address[]",
          "name": "",
          "type": "address[]"
        }
      ],
      "stateMutability": "view",
      "type": "function"
    }
  ],
  "bytecode": "0x60c060405234801561001057600080fd5b506040516105dc3803806105dc83398101604081905261002f91610062565b6001600160a01b039182166080521660a052610095565b80516001600160a01b038116811461005d57600080fd5b919050565b6000806040838503121561007557600080fd5b61007e83610046565b915061008c60208401610046565b90509250929050565b60805160a0516105166100c6600039600081816091015261016101526000818160cb015261013401526105166000f3fe608060405234801561001057600080fd5b50600436106100575760003560e01c806319e0b2881461005c5780635a8e6ef51461008c57806371bf41e7146100b35780639d699326146100c6578063c43965cf146100ed575b600080fd5b61006f61006a36600461039c565b610102565b6040516001600160a01b0390911681526020015b60405180910390f35b61006f7f000000000000000000000000000000000000000000000000000000000000000081565b61006f6100c13660046103b5565b61012c565b61006f7f000000000000000000000000000000000000000000000000000000000000000081565b6100f56102c8565b604051610083919061042a565b6000818154811061011257600080fd5b6000918252602090912001546001600160a01b0316905081565b6000806101587f000000000000000000000000000000000000000000000000000000000000000061032a565b905060006101857f000000000000000000000000000000000000000000000000000000000000000061032a565b60405163189acdbd60e31b81526001600160a01b0384811660048301529192509082169063c4d66de890602401600060405180830381600087803b1580156101cc57600080fd5b505af11580156101e0573d6000803e3d6000fd5b5050604051632316859760e11b81526001600160a01b038516925063462d0b2e915061021490889088908690600401610477565b600060405180830381600087803b15801561022e57600080fd5b505af1158015610242573d6000803e3d6000fd5b5050600080546001810182558180527f290decd9548b62a8d60345a988386fc84ba6bc95484008f6362f93160ef3e5630180546001600160a01b0319166001600160a01b03878116918217909255604051918616945092507f133cf1d1c688fe9ff341b3c73812a4e88008f45ea55669a9f7bf6b316a9ed7c19190a35090505b92915050565b6060600080548060200260200160405190810160405280929190818152602001828054801561032057602002820191906000526020600020905b81546001600160a01b03168152600190910190602001808311610302575b5050505050905090565b60006102c2828280763d602d80600a3d3981f3363d3d373d3d3d363d730000008360601b60e81c176000526e5af43d82803e903d91602b57fd5bf38360781b176020526037600983f090506001600160a01b0381166102c25760405163b06ebf3d60e01b815260040160405180910390fd5b6000602082840312156103ae57600080fd5b5035919050565b600080602083850312156103c857600080fd5b823567ffffffffffffffff808211156103e057600080fd5b818501915085601f8301126103f457600080fd5b81358181111561040357600080fd5b8660208260051b850101111561041857600080fd5b60209290920196919550909350505050565b6020808252825182820181905260009190848201906040850190845b8181101561046b5783516001600160a01b031683529284019291840191600101610446565b50909695505050505050565b604080825281018390526000846060830182805b878110156104bf5783356001600160a01b0381168082146104aa578384fd5b8452506020938401939092019160010161048b565b50506001600160a01b0394909416602093909301929092525090939250505056fea26469706673582212204e7d819590ae56058c22b6f68eef25b0e12d00762c9a6b47e9b46702e4e7ff5a64736f6c63430008140033",
  "linkReferences": {},
  "deployedLinkReferences": {}
}