{
  "_format": "hh-sol-artifact-1",
  "contractName": "SpaceDAO",
  "sourceName": "SpaceDao.sol",
  "abi": [
    {
      "inputs": [
        {
          "internalType": "address[]",
          "name": "admins",
          "type": "address[]"
        },
        {
          "components": [
            {
              "internalType": "enum SpaceDAO.IncentiveDistributionMode",
              "name": "mode",
              "type": "uint8"
            },
            {
              "internalType": "uint256",
              "name": "numOfTargets",
              "type": "uint256"
            },
            {
              "internalType": "uint16",
              "name": "rankingBps",
              "type": "uint16"
            }
          ],
          "internalType": "struct SpaceDAO.IncentiveDistributionConfig",
          "name": "incentiveDistributionConfig",
          "type": "tuple"
        }
      ],
      "stateMutability": "nonpayable",
      "type": "constructor"
    },
    {
      "anonymous": false,
      "inputs": [
        {
          "indexed": true,
          "internalType": "address",
          "name": "token",
          "type": "address"
        },
        {
          "indexed": true,
          "internalType": "address",
          "name": "recipient",
          "type": "address"
        },
        {
          "indexed": false,
          "internalType": "uint256",
          "name": "value",
          "type": "uint256"
        }
      ],
      "name": "IncentiveClaimed",
      "type": "event"
    },
    {
      "anonymous": false,
      "inputs": [
        {
          "indexed": false,
          "internalType": "enum SpaceDAO.IncentiveDistributionMode",
          "name": "mode",
          "type": "uint8"
        },
        {
          "indexed": false,
          "internalType": "uint256",
          "name": "numOfTargets",
          "type": "uint256"
        },
        {
          "indexed": false,
          "internalType": "uint16",
          "name": "rankingBps",
          "type": "uint16"
        }
      ],
      "name": "IncentiveDistributionConfigUpdated",
      "type": "event"
    },
    {
      "anonymous": false,
      "inputs": [
        {
          "indexed": false,
          "internalType": "enum SpaceDAO.IncentiveDistributionMode",
          "name": "mode",
          "type": "uint8"
        },
        {
          "indexed": false,
          "internalType": "uint256",
          "name": "count",
          "type": "uint256"
        }
      ],
      "name": "IncentiveDistributionSelected",
      "type": "event"
    },
    {
      "inputs": [
        {
          "internalType": "address",
          "name": "token",
          "type": "address"
        }
      ],
      "name": "claimIncentive",
      "outputs": [],
      "stateMutability": "nonpayable",
      "type": "function"
    },
    {
      "inputs": [],
      "name": "getAdmins",
      "outputs": [
        {
          "internalType": "address[]",
          "name": "",
          "type": "address[]"
        }
      ],
      "stateMutability": "view",
      "type": "function"
    },
    {
      "inputs": [
        {
          "internalType": "address",
          "name": "token",
          "type": "address"
        }
      ],
      "name": "getIncentiveAmount",
      "outputs": [
        {
          "internalType": "uint256",
          "name": "",
          "type": "uint256"
        }
      ],
      "stateMutability": "view",
      "type": "function"
    },
    {
      "inputs": [],
      "name": "getIncentiveDistributionConfig",
      "outputs": [
        {
          "components": [
            {
              "internalType": "enum SpaceDAO.IncentiveDistributionMode",
              "name": "mode",
              "type": "uint8"
            },
            {
              "internalType": "uint256",
              "name": "numOfTargets",
              "type": "uint256"
            },
            {
              "internalType": "uint16",
              "name": "rankingBps",
              "type": "uint16"
            }
          ],
          "internalType": "struct SpaceDAO.IncentiveDistributionConfig",
          "name": "",
          "type": "tuple"
        }
      ],
      "stateMutability": "view",
      "type": "function"
    },
    {
      "inputs": [],
      "name": "getIncentiveRecipients",
      "outputs": [
        {
          "internalType": "address[]",
          "name": "",
          "type": "address[]"
        }
      ],
      "stateMutability": "view",
      "type": "function"
    },
    {
      "inputs": [
        {
          "internalType": "address",
          "name": "account",
          "type": "address"
        }
      ],
      "name": "getIsAdmin",
      "outputs": [
        {
          "internalType": "bool",
          "name": "",
          "type": "bool"
        }
      ],
      "stateMutability": "view",
      "type": "function"
    },
    {
      "inputs": [
        {
          "internalType": "address",
          "name": "account",
          "type": "address"
        }
      ],
      "name": "isIncentiveClaimed",
      "outputs": [
        {
          "internalType": "bool",
          "name": "",
          "type": "bool"
        }
      ],
      "stateMutability": "view",
      "type": "function"
    },
    {
      "inputs": [
        {
          "internalType": "address",
          "name": "account",
          "type": "address"
        }
      ],
      "name": "isIncentiveRecipient",
      "outputs": [
        {
          "internalType": "bool",
          "name": "",
          "type": "bool"
        }
      ],
      "stateMutability": "view",
      "type": "function"
    },
    {
      "inputs": [
        {
          "internalType": "address[]",
          "name": "candidates",
          "type": "address[]"
        },
        {
          "internalType": "uint256[]",
          "name": "scores",
          "type": "uint256[]"
        }
      ],
      "name": "selectIncentiveRecipients",
      "outputs": [
        {
          "internalType": "address[]",
          "name": "",
          "type": "address[]"
        }
      ],
      "stateMutability": "nonpayable",
      "type": "function"
    },
    {
      "inputs": [
        {
          "internalType": "uint16",
          "name": "rankingBps",
          "type": "uint16"
        }
      ],
      "name": "setIncentiveRankingBps",
      "outputs": [],
      "stateMutability": "nonpayable",
      "type": "function"
    },
    {
      "inputs": [
        {
          "internalType": "uint256",
          "name": "numOfTargets",
          "type": "uint256"
        }
      ],
      "name": "setIncentiveRecipientCount",
      "outputs": [],
      "stateMutability": "nonpayable",
      "type": "function"
    }
  ],
  "bytecode": "0x60806040523480156200001157600080fd5b50604051620023773803806200237783398101604081905262000034916200037d565b60008251116200008b5760405162461bcd60e51b815260206004820152601660248201527f537061636544414f3a20656d7074792061646d696e730000000000000000000060448201526064015b60405180910390fd5b612710816040015161ffff161115620000e75760405162461bcd60e51b815260206004820152601d60248201527f537061636544414f3a20696e76616c69642072616e6b696e6720627073000000604482015260640162000082565b60005b8251811015620002595760008382815181106200010b576200010b6200045c565b6020026020010151905060006001600160a01b0316816001600160a01b031603620001795760405162461bcd60e51b815260206004820152601760248201527f537061636544414f3a20696e76616c69642061646d696e000000000000000000604482015260640162000082565b6001600160a01b03811660009081526001602052604090205460ff1615620001e45760405162461bcd60e51b815260206004820152601960248201527f537061636544414f3a206475706c69636174652061646d696e00000000000000604482015260640162000082565b6001600160a01b031660008181526001602081905260408220805460ff191682179055815490810182559080527f290decd9548b62a8d60345a988386fc84ba6bc95484008f6362f93160ef3e5630180546001600160a01b031916909117905580620002508162000472565b915050620000ea565b50805160028054839290829060ff1916600183838111156200027f576200027f6200049a565b0217905550602082015160018201556040909101516002909101805461ffff191661ffff90921691909117905550620004b09050565b634e487b7160e01b600052604160045260246000fd5b604051601f8201601f191681016001600160401b0381118282101715620002f657620002f6620002b5565b604052919050565b6000606082840312156200031157600080fd5b604051606081016001600160401b0381118282101715620003365762000336620002b5565b80604052508091508251600381106200034e57600080fd5b815260208381015190820152604083015161ffff811681146200037057600080fd5b6040919091015292915050565b600080608083850312156200039157600080fd5b82516001600160401b0380821115620003a957600080fd5b818501915085601f830112620003be57600080fd5b8151602082821115620003d557620003d5620002b5565b8160051b9250620003e8818401620002cb565b82815292840181019281810190898511156200040357600080fd5b948201945b848610156200043d57855193506001600160a01b03841684146200042c5760008081fd5b838252948201949082019062000408565b96506200044f905088888301620002fe565b9450505050509250929050565b634e487b7160e01b600052603260045260246000fd5b6000600182016200049357634e487b7160e01b600052601160045260246000fd5b5060010190565b634e487b7160e01b600052602160045260246000fd5b611eb780620004c06000396000f3fe608060405234801561001057600080fd5b50600436106100a95760003560e01c80635097fc31116100715780635097fc3114610145578063822b0ceb1461015857806386efcab614610184578063b44be4f3146101a5578063d619f07c146101d1578063dfa9f205146101d957600080fd5b806314e0010d146100ae5780631874bb68146100c357806331ae450b146100d657806335109c66146100f45780634517abeb14610109575b600080fd5b6100c16100bc366004611aec565b6101ec565b005b6100c16100d1366004611b10565b610346565b6100de61045a565b6040516100eb9190611b29565b60405180910390f35b6100fc6104bc565b6040516100eb9190611bae565b610135610117366004611bdf565b6001600160a01b031660009081526006602052604090205460ff1690565b60405190151581526020016100eb565b6100de610153366004611c54565b61052f565b610135610166366004611bdf565b6001600160a01b031660009081526001602052604090205460ff1690565b610197610192366004611bdf565b610a5d565b6040519081526020016100eb565b6101356101b3366004611bdf565b6001600160a01b031660009081526007602052604090205460ff1690565b6100de610b3f565b6100c16101e7366004611bdf565b610b9f565b3360009081526001602052604090205460ff166102245760405162461bcd60e51b815260040161021b90611cc0565b60405180910390fd5b6127108161ffff16111561027a5760405162461bcd60e51b815260206004820152601d60248201527f537061636544414f3a20696e76616c69642072616e6b696e6720627073000000604482015260640161021b565b604080516060810190915260028054829160ff909116908111156102a0576102a0611b76565b8152600354602082015261ffff8316604090910152805160028054909190829060ff1916600183838111156102d7576102d7611b76565b0217905550602082015160018201556040918201516002918201805461ffff191661ffff9092169190911790555460035491517fd9b521f6416b47eb97d15eff39722101c0ae870fb77dbff30b5160432c75e0c09261033b9260ff16918590611cee565b60405180910390a150565b3360009081526001602052604090205460ff166103755760405162461bcd60e51b815260040161021b90611cc0565b600081116103955760405162461bcd60e51b815260040161021b90611d14565b604080516060810190915260028054829160ff909116908111156103bb576103bb611b76565b81526020810183905260045461ffff16604090910152805160028054909190829060ff1916600183838111156103f3576103f3611b76565b0217905550602082015160018201556040918201516002918201805461ffff191661ffff928316179055905460045492517fd9b521f6416b47eb97d15eff39722101c0ae870fb77dbff30b5160432c75e0c09361033b9360ff909316928692911690611cee565b606060008054806020026020016040519081016040528092919081815260200182805480156104b257602002820191906000526020600020905b81546001600160a01b03168152600190910190602001808311610494575b5050505050905090565b6040805160608101825260008082526020820181905291810191909152604080516060810190915260028054829060ff16828111156104fd576104fd611b76565b600281111561050e5761050e611b76565b81526001820154602082015260029091015461ffff16604090910152919050565b3360009081526001602052604090205460609060ff166105615760405162461bcd60e51b815260040161021b90611cc0565b836105ae5760405162461bcd60e51b815260206004820152601a60248201527f537061636544414f3a20656d7074792063616e64696461746573000000000000604482015260640161021b565b8382146105fd5760405162461bcd60e51b815260206004820152601860248201527f537061636544414f3a20696e76616c69642073636f7265730000000000000000604482015260640161021b565b6003548061061d5760405162461bcd60e51b815260040161021b90611d14565b848111156106285750835b6000805b8481101561067557600086868381811061064857610648611d55565b90506020020135111561066357610660600183611d81565b91505b8061066d81611d94565b91505061062c565b5080821115610682578091505b60008667ffffffffffffffff81111561069d5761069d611dad565b6040519080825280602002602001820160405280156106c6578160200160208202803683370190505b509050606060016002805460ff16908111156106e4576106e4611b76565b036107615761075a89898080602002602001604051908101604052809392919081815260200183836020028082843760009201919091525050604080516020808d0282810182019093528c82529093508c92508b918291850190849080828437600092019190915250899250879150610fe19050565b9050610861565b6002805460ff168181111561077857610778611b76565b036107ee5761075a89898080602002602001604051908101604052809392919081815260200183836020028082843760009201919091525050604080516020808d0282810182019093528c82529093508c92508b91829185019084908082843760009201919091525089925087915061121c9050565b61085e89898080602002602001604051908101604052809392919081815260200183836020028082843760009201919091525050604080516020808d0282810182019093528c82529093508c92508b91829185019084908082843760009201829052508a9350889250905061147e565b90505b60005b6005548110156108d25760006005828154811061088357610883611d55565b60009182526020808320909101546001600160a01b03168252600681526040808320805460ff1990811690915560079092529091208054909116905550806108ca81611d94565b915050610864565b506108df60056000611ab2565b60005b81518110156109f55760008282815181106108ff576108ff611d55565b6020026020010151905060006001600160a01b0316816001600160a01b03160361096b5760405162461bcd60e51b815260206004820152601b60248201527f537061636544414f3a20696e76616c696420726563697069656e740000000000604482015260640161021b565b6001600160a01b031660008181526006602090815260408083208054600160ff199182168117909255600790935290832080549092169091556005805491820181559091527f036b6384b5eca791c62761152d0c79bb0604c104a5fb6f4eb0703f3154bb3db00180546001600160a01b0319169091179055806109ed81611d94565b9150506108e2565b50600160086000828254610a099190611d81565b909155505060025481516040517fc45bfd50a8ecaa005a4192abcfd7b6287928923027568e56f26f125a2622056e92610a479260ff90911691611dc3565b60405180910390a193505050505b949350505050565b60006001600160a01b038216610a7557506000919050565b6005546000819003610a8a5750600092915050565b6008546001600160a01b0384166000908152600a602052604090205403610ac85750506001600160a01b031660009081526009602052604090205490565b6040516370a0823160e01b81523060048201526000906001600160a01b038516906370a0823190602401602060405180830381865afa158015610b0f573d6000803e3d6000fd5b505050506040513d601f19601f82011682018060405250810190610b339190611dde565b9050610a558282611e0d565b606060058054806020026020016040519081016040528092919081815260200182805480156104b2576020028201919060005260206000209081546001600160a01b03168152600190910190602001808311610494575050505050905090565b6001600160a01b038116610bf55760405162461bcd60e51b815260206004820152601760248201527f537061636544414f3a20696e76616c696420746f6b656e000000000000000000604482015260640161021b565b3360008181526006602052604090205460ff16610c4d5760405162461bcd60e51b815260206004820152601660248201527514dc1858d9511053ce881b9bdd081cd95b1958dd195960521b604482015260640161021b565b6001600160a01b03811660009081526007602052604090205460ff1615610cb65760405162461bcd60e51b815260206004820152601c60248201527f537061636544414f3a20696e63656e746976652066696e697368656400000000604482015260640161021b565b600554829080610cd85760405162461bcd60e51b815260040161021b90611d14565b6001600160a01b038416600090815260096020908152604080832054600854600a90935292205414610df9576040516370a0823160e01b81523060048201526000906001600160a01b038516906370a0823190602401602060405180830381865afa158015610d4b573d6000803e3d6000fd5b505050506040513d601f19601f82011682018060405250810190610d6f9190611dde565b9050610d7b8382611e0d565b915060008211610dcd5760405162461bcd60e51b815260206004820152601760248201527f537061636544414f3a20696e76616c69642076616c7565000000000000000000604482015260640161021b565b506001600160a01b0385166000908152600960209081526040808320849055600854600a909252909120555b6040516370a0823160e01b815230600482015281906001600160a01b038516906370a0823190602401602060405180830381865afa158015610e3f573d6000803e3d6000fd5b505050506040513d601f19601f82011682018060405250810190610e639190611dde565b1015610eb15760405162461bcd60e51b815260206004820152601e60248201527f537061636544414f3a20696e73756666696369656e742062616c616e63650000604482015260640161021b565b6001600160a01b0384811660008181526007602052604090819020805460ff191660011790555163a9059cbb60e01b81526004810191909152602481018390529084169063a9059cbb906044016020604051808303816000875af1158015610f1d573d6000803e3d6000fd5b505050506040513d601f19601f82011682018060405250810190610f419190611e21565b610f8d5760405162461bcd60e51b815260206004820152601960248201527f537061636544414f3a207472616e73666572206661696c656400000000000000604482015260640161021b565b836001600160a01b0316856001600160a01b03167f13eaaf2df2dcca9417c8f725f7fd973c2cb89c37169e1df364bc3ae2609a9de283604051610fd291815260200190565b60405180910390a35050505050565b606060008367ffffffffffffffff811115610ffe57610ffe611dad565b604051908082528060200260200182016040528015611027578160200160208202803683370190505b5090506000805b85811015611158576000600019815b8a518110156110b15787818151811061105857611058611d55565b602002602001015161109f5760008a828151811061107857611078611d55565b6020026020010151905060001983148061109157508381115b1561109d578093508192505b505b806110a981611d94565b91505061103d565b506000198114806110c0575081155b156110cc575050611158565b60018782815181106110e0576110e0611d55565b60200260200101901515908115158152505089818151811061110457611104611d55565b602002602001015185858151811061111e5761111e611d55565b6001600160a01b0390921660209283029190910190910152611141600185611d81565b93505050808061115090611d94565b91505061102e565b5084810361116857509050610a55565b60008167ffffffffffffffff81111561118357611183611dad565b6040519080825280602002602001820160405280156111ac578160200160208202803683370190505b50905060005b82811015611210578381815181106111cc576111cc611d55565b60200260200101518282815181106111e6576111e6611d55565b6001600160a01b03909216602092830291909101909101528061120881611d94565b9150506111b2565b50979650505050505050565b600454606090600090612710906112379061ffff1686611e43565b6112419190611e0d565b90508381111561124e5750825b600061125a8286611e5a565b905060008567ffffffffffffffff81111561127757611277611dad565b6040519080825280602002602001820160405280156112a0578160200160208202803683370190505b5090506000831561132d5760006112b98a8a878a610fe1565b905060005b815181101561132a578181815181106112d9576112d9611d55565b60200260200101518484815181106112f3576112f3611d55565b6001600160a01b0390921660209283029190910190910152611316600184611d81565b92508061132281611d94565b9150506112be565b50505b82156113b65760006113428a8a868a8961147e565b905060005b81518110156113b35781818151811061136257611362611d55565b602002602001015184848151811061137c5761137c611d55565b6001600160a01b039092166020928302919091019091015261139f600184611d81565b9250806113ab81611d94565b915050611347565b50505b8681036113c857509250610a55915050565b60008167ffffffffffffffff8111156113e3576113e3611dad565b60405190808252806020026020018201604052801561140c578160200160208202803683370190505b50905060005b828110156114705783818151811061142c5761142c611d55565b602002602001015182828151811061144657611446611d55565b6001600160a01b03909216602092830291909101909101528061146881611d94565b915050611412565b509998505050505050505050565b83516060906000611490826001611d81565b67ffffffffffffffff8111156114a8576114a8611dad565b6040519080825280602002602001820160405280156114d1578160200160208202803683370190505b50905060008267ffffffffffffffff8111156114ef576114ef611dad565b604051908082528060200260200182016040528015611518578160200160208202803683370190505b50905060005b838110156115b657600087828151811061153a5761153a611d55565b60200260200101516115655789828151811061155857611558611d55565b6020026020010151611568565b60005b90508083838151811061157d5761157d611d55565b602090810291909101015280156115a3576115a38461159d846001611d81565b8361185b565b50806115ae81611d94565b91505061151e565b5060008767ffffffffffffffff8111156115d2576115d2611dad565b6040519080825280602002602001820160405280156115fb578160200160208202803683370190505b5090506000805b8981101561178d57600061161686886118c4565b905080600003611626575061178d565b600061163b82611636858d611d81565b61191d565b905060006116538861164e846001611d81565b611992565b90508881106116a45760405162461bcd60e51b815260206004820152601760248201527f537061636544414f3a206e6f2063616e64696461746573000000000000000000604482015260640161021b565b60018c82815181106116b8576116b8611d55565b6020026020010190151590811515815250508e81815181106116dc576116dc611d55565b60200260200101518686815181106116f6576116f6611d55565b6001600160a01b0390921660209283029190910190910152611719600186611d81565b9450600087828151811061172f5761172f611d55565b60200260200101519050600081111561177657600088838151811061175657611756611d55565b602090810291909101015261177689611770846001611d81565b83611a4f565b50505050808061178590611d94565b915050611602565b508881036117a15750935061185292505050565b60008167ffffffffffffffff8111156117bc576117bc611dad565b6040519080825280602002602001820160405280156117e5578160200160208202803683370190505b50905060005b828110156118495783818151811061180557611805611d55565b602002602001015182828151811061181f5761181f611d55565b6001600160a01b03909216602092830291909101909101528061184181611d94565b9150506117eb565b50955050505050505b95945050505050565b60006001845161186b9190611e5a565b90505b8083116118be578184848151811061188857611888611d55565b6020026020010181815161189c9190611d81565b9052506118ab83196001611d81565b6118b790841684611d81565b925061186e565b50505050565b6000805b8215611914578383815181106118e0576118e0611d55565b6020026020010151816118f39190611d81565b905061190183196001611d81565b61190d90841684611e5a565b92506118c8565b90505b92915050565b60008260000361192f57506000611917565b824442338560405160200161196f9493929190938452602084019290925260601b6bffffffffffffffffffffffff19166040830152605482015260740190565b6040516020818303038152906040528051906020012060001c6119149190611e6d565b8151600090819060019082906119a9908390611e5a565b90505b8082116119bf57600182901b91506119ac565b6000825b8015611a435760006119d58287611d81565b9050838111158015611a0a5750878982815181106119f5576119f5611d55565b602002602001015184611a089190611d81565b105b15611a3a57888181518110611a2157611a21611d55565b602002602001015183611a349190611d81565b92508095505b5060011c6119c3565b50929695505050505050565b600060018451611a5f9190611e5a565b90505b8083116118be5781848481518110611a7c57611a7c611d55565b60200260200101818151611a909190611e5a565b905250611a9f83196001611d81565b611aab90841684611d81565b9250611a62565b5080546000825590600052602060002090810190611ad09190611ad3565b50565b5b80821115611ae85760008155600101611ad4565b5090565b600060208284031215611afe57600080fd5b813561ffff8116811461191457600080fd5b600060208284031215611b2257600080fd5b5035919050565b6020808252825182820181905260009190848201906040850190845b81811015611b6a5783516001600160a01b031683529284019291840191600101611b45565b50909695505050505050565b634e487b7160e01b600052602160045260246000fd5b60038110611baa57634e487b7160e01b600052602160045260246000fd5b9052565b6000606082019050611bc1828451611b8c565b6020830151602083015261ffff604084015116604083015292915050565b600060208284031215611bf157600080fd5b81356001600160a01b038116811461191457600080fd5b60008083601f840112611c1a57600080fd5b50813567ffffffffffffffff811115611c3257600080fd5b6020830191508360208260051b8501011115611c4d57600080fd5b9250929050565b60008060008060408587031215611c6a57600080fd5b843567ffffffffffffffff80821115611c8257600080fd5b611c8e88838901611c08565b90965094506020870135915080821115611ca757600080fd5b50611cb487828801611c08565b95989497509550505050565b602080825260149082015273537061636544414f3a2061646d696e206f6e6c7960601b604082015260600190565b60608101611cfc8286611b8c565b83602083015261ffff83166040830152949350505050565b60208082526021908201527f537061636544414f3a20696e76616c696420726563697069656e7420636f756e6040820152601d60fa1b606082015260800190565b634e487b7160e01b600052603260045260246000fd5b634e487b7160e01b600052601160045260246000fd5b8082018082111561191757611917611d6b565b600060018201611da657611da6611d6b565b5060010190565b634e487b7160e01b600052604160045260246000fd5b60408101611dd18285611b8c565b8260208301529392505050565b600060208284031215611df057600080fd5b5051919050565b634e487b7160e01b600052601260045260246000fd5b600082611e1c57611e1c611df7565b500490565b600060208284031215611e3357600080fd5b8151801515811461191457600080fd5b808202811582820484141761191757611917611d6b565b8181038181111561191757611917611d6b565b600082611e7c57611e7c611df7565b50069056fea2646970667358221220bb023a073701229d87f5b3f1d2a4a937d54c1951961fd4860520970dc6604d1e64736f6c63430008140033",
  "linkReferences": {},
  "deployedLinkReferences": {}
}