{
  "_format": "hh-sol-artifact-1",
  "contractName": "SpaceDAO",
  "sourceName": "SpaceDao.sol",
  "abi": [
    {
      "inputs": [
        {
          "internalType": "address[]",
          "name": "admins",
          "type": "address[]"
        },
        {
          "components": [
            {
              "internalType": "enum SpaceDAO.SamplingMode",
              "name": "mode",
              "type": "uint8"
            },
            {
              "internalType": "uint256",
              "name": "randomCount",
              "type": "uint256"
            }
          ],
          "internalType": "struct SpaceDAO.SamplingConfig",
          "name": "samplingConfig",
          "type": "tuple"
        }
      ],
      "stateMutability": "nonpayable",
      "type": "constructor"
    },
    {
      "anonymous": false,
      "inputs": [
        {
          "indexed": true,
          "internalType": "address",
          "name": "token",
          "type": "address"
        },
        {
          "indexed": false,
          "internalType": "uint256",
          "name": "count",
          "type": "uint256"
        },
        {
          "indexed": false,
          "internalType": "uint256",
          "name": "value",
          "type": "uint256"
        }
      ],
      "name": "Distributed",
      "type": "event"
    },
    {
      "anonymous": false,
      "inputs": [
        {
          "indexed": false,
          "internalType": "enum SpaceDAO.SamplingMode",
          "name": "mode",
          "type": "uint8"
        },
        {
          "indexed": false,
          "internalType": "uint256",
          "name": "count",
          "type": "uint256"
        }
      ],
      "name": "Sampled",
      "type": "event"
    },
    {
      "inputs": [
        {
          "internalType": "address",
          "name": "token",
          "type": "address"
        },
        {
          "internalType": "address[]",
          "name": "recipients",
          "type": "address[]"
        },
        {
          "internalType": "uint256",
          "name": "value",
          "type": "uint256"
        }
      ],
      "name": "distribute",
      "outputs": [],
      "stateMutability": "nonpayable",
      "type": "function"
    },
    {
      "inputs": [],
      "name": "getAdmins",
      "outputs": [
        {
          "internalType": "address[]",
          "name": "",
          "type": "address[]"
        }
      ],
      "stateMutability": "view",
      "type": "function"
    },
    {
      "inputs": [
        {
          "internalType": "address",
          "name": "account",
          "type": "address"
        }
      ],
      "name": "getIsAdmin",
      "outputs": [
        {
          "internalType": "bool",
          "name": "",
          "type": "bool"
        }
      ],
      "stateMutability": "view",
      "type": "function"
    },
    {
      "inputs": [],
      "name": "getSampledAddresses",
      "outputs": [
        {
          "internalType": "address[]",
          "name": "",
          "type": "address[]"
        }
      ],
      "stateMutability": "view",
      "type": "function"
    },
    {
      "inputs": [],
      "name": "getSamplingConfig",
      "outputs": [
        {
          "components": [
            {
              "internalType": "enum SpaceDAO.SamplingMode",
              "name": "mode",
              "type": "uint8"
            },
            {
              "internalType": "uint256",
              "name": "randomCount",
              "type": "uint256"
            }
          ],
          "internalType": "struct SpaceDAO.SamplingConfig",
          "name": "",
          "type": "tuple"
        }
      ],
      "stateMutability": "view",
      "type": "function"
    },
    {
      "inputs": [
        {
          "internalType": "address[]",
          "name": "candidates",
          "type": "address[]"
        }
      ],
      "name": "sample",
      "outputs": [
        {
          "internalType": "address[]",
          "name": "",
          "type": "address[]"
        }
      ],
      "stateMutability": "nonpayable",
      "type": "function"
    }
  ],
  "bytecode": "0x60806040523480156200001157600080fd5b506040516200123b3803806200123b8339810160408190526200003491620002f6565b600382511015620000985760405162461bcd60e51b8152602060048201526024808201527f537061636544414f3a206174206c6561737420332061646d696e7320726571756044820152631a5c995960e21b60648201526084015b60405180910390fd5b60005b82518110156200020a576000838281518110620000bc57620000bc620003d5565b6020026020010151905060006001600160a01b0316816001600160a01b0316036200012a5760405162461bcd60e51b815260206004820152601760248201527f537061636544414f3a20696e76616c69642061646d696e00000000000000000060448201526064016200008f565b6001600160a01b03811660009081526001602052604090205460ff1615620001955760405162461bcd60e51b815260206004820152601960248201527f537061636544414f3a206475706c69636174652061646d696e0000000000000060448201526064016200008f565b6001600160a01b031660008181526001602081905260408220805460ff191682179055815490810182559080527f290decd9548b62a8d60345a988386fc84ba6bc95484008f6362f93160ef3e5630180546001600160a01b0319169091179055806200020181620003eb565b9150506200009b565b50805160028054839290829060ff19166001838381111562000230576200023062000413565b021790555060208201518160010155905050505062000429565b634e487b7160e01b600052604160045260246000fd5b604051601f8201601f191681016001600160401b03811182821017156200028b576200028b6200024a565b604052919050565b600060408284031215620002a657600080fd5b604080519081016001600160401b0381118282101715620002cb57620002cb6200024a565b8060405250809150825160038110620002e357600080fd5b8152602092830151920191909152919050565b600080606083850312156200030a57600080fd5b82516001600160401b03808211156200032257600080fd5b818501915085601f8301126200033757600080fd5b81516020828211156200034e576200034e6200024a565b8160051b92506200036181840162000260565b82815292840181019281810190898511156200037c57600080fd5b948201945b84861015620003b657855193506001600160a01b0384168414620003a55760008081fd5b838252948201949082019062000381565b9650620003c890508888830162000293565b9450505050509250929050565b634e487b7160e01b600052603260045260246000fd5b6000600182016200040c57634e487b7160e01b600052601160045260246000fd5b5060010190565b634e487b7160e01b600052602160045260246000fd5b610e0280620004396000396000f3fe608060405234801561001057600080fd5b50600436106100625760003560e01c806331ae450b14610067578063790e51b2146100855780637d226ada1461009a578063822b0ceb146100af578063d6d450ee146100eb578063df9fe535146100f3575b600080fd5b61006f610106565b60405161007c9190610af7565b60405180910390f35b610098610093366004610bac565b610168565b005b6100a2610529565b60405161007c9190610c3e565b6100db6100bd366004610c5f565b6001600160a01b031660009081526001602052604090205460ff1690565b604051901515815260200161007c565b61006f610584565b61006f610101366004610c7a565b6105e4565b6060600080548060200260200160405190810160405280929190818152602001828054801561015e57602002820191906000526020600020905b81546001600160a01b03168152600190910190602001808311610140575b5050505050905090565b3360009081526001602052604090205460ff166101c35760405162461bcd60e51b8152602060048201526014602482015273537061636544414f3a2061646d696e206f6e6c7960601b60448201526064015b60405180910390fd5b6001600160a01b0384166102195760405162461bcd60e51b815260206004820152601760248201527f537061636544414f3a20696e76616c696420746f6b656e00000000000000000060448201526064016101ba565b816102665760405162461bcd60e51b815260206004820152601a60248201527f537061636544414f3a20656d70747920726563697069656e747300000000000060448201526064016101ba565b600081116102b65760405162461bcd60e51b815260206004820152601760248201527f537061636544414f3a20696e76616c69642076616c756500000000000000000060448201526064016101ba565b8360006102c38484610cd2565b6040516370a0823160e01b815230600482015290915081906001600160a01b038416906370a0823190602401602060405180830381865afa15801561030c573d6000803e3d6000fd5b505050506040513d601f19601f820116820180604052508101906103309190610ce9565b101561037e5760405162461bcd60e51b815260206004820152601e60248201527f537061636544414f3a20696e73756666696369656e742062616c616e6365000060448201526064016101ba565b60005b848110156104dc57600086868381811061039d5761039d610d02565b90506020020160208101906103b29190610c5f565b90506001600160a01b03811661040a5760405162461bcd60e51b815260206004820152601b60248201527f537061636544414f3a20696e76616c696420726563697069656e74000000000060448201526064016101ba565b60405163a9059cbb60e01b81526001600160a01b0382811660048301526024820187905285169063a9059cbb906044016020604051808303816000875af1158015610459573d6000803e3d6000fd5b505050506040513d601f19601f8201168201806040525081019061047d9190610d18565b6104c95760405162461bcd60e51b815260206004820152601960248201527f537061636544414f3a207472616e73666572206661696c65640000000000000060448201526064016101ba565b50806104d481610d3a565b915050610381565b5060408051858152602081018590526001600160a01b038816917f60ce3cc2d133631eac66a476f14997a9fa682bd05a60dd993cf02285822d78d8910160405180910390a2505050505050565b60408051808201909152600080825260208201526040805180820190915260028054829060ff168281111561056057610560610c06565b600281111561057157610571610c06565b8152602001600182015481525050905090565b6060600480548060200260200160405190810160405280929190818152602001828054801561015e576020028201919060005260206000209081546001600160a01b03168152600190910190602001808311610140575050505050905090565b3360009081526001602052604090205460609060ff1661063d5760405162461bcd60e51b8152602060048201526014602482015273537061636544414f3a2061646d696e206f6e6c7960601b60448201526064016101ba565b8161068a5760405162461bcd60e51b815260206004820152601a60248201527f537061636544414f3a20656d7074792063616e6469646174657300000000000060448201526064016101ba565b60006002805460ff16908111156106a3576106a3610c06565b146106f05760405162461bcd60e51b815260206004820152601c60248201527f537061636544414f3a206d6f6465206e6f7420737570706f727465640000000060448201526064016101ba565b60035460008190036107445760405162461bcd60e51b815260206004820152601e60248201527f537061636544414f3a20696e76616c69642073616d706c6520636f756e74000060448201526064016101ba565b8281111561074f5750815b60008367ffffffffffffffff81111561076a5761076a610d53565b604051908082528060200260200182016040528015610793578160200160208202803683370190505b50905060005b84811015610804578585828181106107b3576107b3610d02565b90506020020160208101906107c89190610c5f565b8282815181106107da576107da610d02565b6001600160a01b0390921660209283029190910190910152806107fc81610d3a565b915050610799565b5060008267ffffffffffffffff81111561082057610820610d53565b604051908082528060200260200182016040528015610849578160200160208202803683370190505b50905060005b8381101561097a5760008161087083865161086a9190610d69565b84610a41565b61087a9190610d7c565b9050600084838151811061089057610890610d02565b602002602001015190508482815181106108ac576108ac610d02565b60200260200101518584815181106108c6576108c6610d02565b60200260200101906001600160a01b031690816001600160a01b031681525050808583815181106108f9576108f9610d02565b60200260200101906001600160a01b031690816001600160a01b03168152505084838151811061092b5761092b610d02565b602002602001015184848151811061094557610945610d02565b60200260200101906001600160a01b031690816001600160a01b0316815250505050808061097290610d3a565b91505061084f565b5061098760046000610abd565b60005b81518110156109f45760048282815181106109a7576109a7610d02565b60209081029190910181015182546001810184556000938452919092200180546001600160a01b0319166001600160a01b03909216919091179055806109ec81610d3a565b91505061098a565b5060025481516040517fde8ec48a1cdb6c108da2ccc414166655187a9e0067deb03df604b9b98d63d91892610a2e9260ff90911691610d8f565b60405180910390a1925050505b92915050565b600082600003610a5357506000610a3b565b8244423385604051602001610a939493929190938452602084019290925260601b6bffffffffffffffffffffffff19166040830152605482015260740190565b6040516020818303038152906040528051906020012060001c610ab69190610daa565b9392505050565b5080546000825590600052602060002090810190610adb9190610ade565b50565b5b80821115610af35760008155600101610adf565b5090565b6020808252825182820181905260009190848201906040850190845b81811015610b385783516001600160a01b031683529284019291840191600101610b13565b50909695505050505050565b80356001600160a01b0381168114610b5b57600080fd5b919050565b60008083601f840112610b7257600080fd5b50813567ffffffffffffffff811115610b8a57600080fd5b6020830191508360208260051b8501011115610ba557600080fd5b9250929050565b60008060008060608587031215610bc257600080fd5b610bcb85610b44565b9350602085013567ffffffffffffffff811115610be757600080fd5b610bf387828801610b60565b9598909750949560400135949350505050565b634e487b7160e01b600052602160045260246000fd5b60038110610c3a57634e487b7160e01b600052602160045260246000fd5b9052565b6000604082019050610c51828451610c1c565b602092830151919092015290565b600060208284031215610c7157600080fd5b610ab682610b44565b60008060208385031215610c8d57600080fd5b823567ffffffffffffffff811115610ca457600080fd5b610cb085828601610b60565b90969095509350505050565b634e487b7160e01b600052601160045260246000fd5b8082028115828204841417610a3b57610a3b610cbc565b600060208284031215610cfb57600080fd5b5051919050565b634e487b7160e01b600052603260045260246000fd5b600060208284031215610d2a57600080fd5b81518015158114610ab657600080fd5b600060018201610d4c57610d4c610cbc565b5060010190565b634e487b7160e01b600052604160045260246000fd5b81810381811115610a3b57610a3b610cbc565b80820180821115610a3b57610a3b610cbc565b60408101610d9d8285610c1c565b8260208301529392505050565b600082610dc757634e487b7160e01b600052601260045260246000fd5b50069056fea26469706673582212202a6faa78dfd2ae12200df9467e38580942f6cf4aec93f39a849bde2876a9f67264736f6c63430008140033",
  "linkReferences": {},
  "deployedLinkReferences": {}
}