{
  "_format": "hh-sol-artifact-1",
  "contractName": "TeamDAO",
  "sourceName": "TeamDao.sol",
  "abi": [
    {
      "inputs": [],
      "stateMutability": "nonpayable",
      "type": "constructor"
    },
    {
      "inputs": [],
      "name": "InvalidInitialization",
      "type": "error"
    },
    {
      "inputs": [],
      "name": "NotInitializing",
      "type": "error"
    },
    {
      "inputs": [],
      "name": "ReentrancyGuardReentrantCall",
      "type": "error"
    },
    {
      "anonymous": false,
      "inputs": [
        {
          "indexed": true,
          "internalType": "address",
          "name": "extension",
          "type": "address"
        },
        {
          "indexed": true,
          "internalType": "address",
          "name": "target",
          "type": "address"
        },
        {
          "indexed": false,
          "internalType": "uint256",
          "name": "value",
          "type": "uint256"
        },
        {
          "indexed": false,
          "internalType": "bytes",
          "name": "data",
          "type": "bytes"
        }
      ],
      "name": "ExtensionCall",
      "type": "event"
    },
    {
      "anonymous": false,
      "inputs": [
        {
          "indexed": false,
          "internalType": "uint64",
          "name": "version",
          "type": "uint64"
        }
      ],
      "name": "Initialized",
      "type": "event"
    },
    {
      "anonymous": false,
      "inputs": [
        {
          "indexed": false,
          "internalType": "address[]",
          "name": "admins",
          "type": "address[]"
        },
        {
          "indexed": false,
          "internalType": "address",
          "name": "extension",
          "type": "address"
        }
      ],
      "name": "Initialized",
      "type": "event"
    },
    {
      "anonymous": false,
      "inputs": [
        {
          "indexed": true,
          "internalType": "address",
          "name": "sender",
          "type": "address"
        },
        {
          "indexed": false,
          "internalType": "uint256",
          "name": "amount",
          "type": "uint256"
        }
      ],
      "name": "Received",
      "type": "event"
    },
    {
      "inputs": [
        {
          "internalType": "uint256",
          "name": "",
          "type": "uint256"
        }
      ],
      "name": "admins",
      "outputs": [
        {
          "internalType": "address",
          "name": "",
          "type": "address"
        }
      ],
      "stateMutability": "view",
      "type": "function"
    },
    {
      "inputs": [
        {
          "internalType": "address",
          "name": "_user",
          "type": "address"
        }
      ],
      "name": "checkAdmin",
      "outputs": [
        {
          "internalType": "bool",
          "name": "",
          "type": "bool"
        }
      ],
      "stateMutability": "view",
      "type": "function"
    },
    {
      "inputs": [
        {
          "internalType": "address",
          "name": "_target",
          "type": "address"
        },
        {
          "internalType": "uint256",
          "name": "_value",
          "type": "uint256"
        },
        {
          "internalType": "bytes",
          "name": "_data",
          "type": "bytes"
        }
      ],
      "name": "executeCall",
      "outputs": [
        {
          "internalType": "bytes",
          "name": "",
          "type": "bytes"
        }
      ],
      "stateMutability": "nonpayable",
      "type": "function"
    },
    {
      "inputs": [
        {
          "internalType": "address[]",
          "name": "_admins",
          "type": "address[]"
        },
        {
          "internalType": "address",
          "name": "_initialExtension",
          "type": "address"
        }
      ],
      "name": "initialize",
      "outputs": [],
      "stateMutability": "nonpayable",
      "type": "function"
    },
    {
      "inputs": [
        {
          "internalType": "address",
          "name": "",
          "type": "address"
        }
      ],
      "name": "isAdmin",
      "outputs": [
        {
          "internalType": "bool",
          "name": "",
          "type": "bool"
        }
      ],
      "stateMutability": "view",
      "type": "function"
    },
    {
      "inputs": [],
      "name": "isDaoActive",
      "outputs": [
        {
          "internalType": "bool",
          "name": "",
          "type": "bool"
        }
      ],
      "stateMutability": "view",
      "type": "function"
    },
    {
      "inputs": [
        {
          "internalType": "address",
          "name": "",
          "type": "address"
        }
      ],
      "name": "isExtension",
      "outputs": [
        {
          "internalType": "bool",
          "name": "",
          "type": "bool"
        }
      ],
      "stateMutability": "view",
      "type": "function"
    },
    {
      "inputs": [],
      "name": "rewardExtension",
      "outputs": [
        {
          "internalType": "address",
          "name": "",
          "type": "address"
        }
      ],
      "stateMutability": "view",
      "type": "function"
    },
    {
      "stateMutability": "payable",
      "type": "receive"
    }
  ],
  "bytecode": "0x608060405234801561001057600080fd5b50600160005561001e610023565b6100d5565b7ff0c57e16840df040f15088dc2f81fe391c3923bec73e23a9662efc9c229c6a00805468010000000000000000900460ff16156100735760405163f92ee8a960e01b815260040160405180910390fd5b80546001600160401b03908116146100d25780546001600160401b0319166001600160401b0390811782556040519081527fc7f505b2f371ae2175ee4913f4499e1f2633a7b5936321eed1cdaeb6115181d29060200160405180910390a15b50565b6109f3806100e46000396000f3fe60806040526004361061007f5760003560e01c80639026dee81161004e5780639026dee81461017f5780639e5d4c49146101b8578063de15ae04146101e5578063f847ed48146101ff57600080fd5b806314bfd6d0146100c057806324d7806c146100fd578063462d0b2e1461013d57806352c2d25b1461015f57600080fd5b366100bb5760405134815233907f88a5966d370b9919b20f3e2c13ff65706f196a4e32cc2c12bf57088f885258749060200160405180910390a2005b600080fd5b3480156100cc57600080fd5b506100e06100db366004610729565b61022f565b6040516001600160a01b0390911681526020015b60405180910390f35b34801561010957600080fd5b5061012d61011836600461075e565b60036020526000908152604090205460ff1681565b60405190151581526020016100f4565b34801561014957600080fd5b5061015d610158366004610780565b610259565b005b34801561016b57600080fd5b506005546100e0906001600160a01b031681565b34801561018b57600080fd5b5061012d61019a36600461075e565b6001600160a01b031660009081526003602052604090205460ff1690565b3480156101c457600080fd5b506101d86101d3366004610804565b610521565b6040516100f4919061088b565b3480156101f157600080fd5b5060015461012d9060ff1681565b34801561020b57600080fd5b5061012d61021a36600461075e565b60046020526000908152604090205460ff1681565b6002818154811061023f57600080fd5b6000918252602090912001546001600160a01b0316905081565b7ff0c57e16840df040f15088dc2f81fe391c3923bec73e23a9662efc9c229c6a008054600160401b810460ff16159067ffffffffffffffff1660008115801561029f5750825b905060008267ffffffffffffffff1660011480156102bc5750303b155b9050811580156102ca575080155b156102e85760405163f92ee8a960e01b815260040160405180910390fd5b845467ffffffffffffffff19166001178555831561031257845460ff60401b1916600160401b1785555b60038710156103765760405162461bcd60e51b815260206004820152602560248201527f537061636544414f3a204d7573742068617665206174206c6561737420332061604482015264646d696e7360d81b60648201526084015b60405180910390fd5b60005b87811015610443576002898983818110610395576103956108d9565b90506020020160208101906103aa919061075e565b81546001808201845560009384526020842090910180546001600160a01b0319166001600160a01b039390931692909217909155906003908b8b858181106103f4576103f46108d9565b9050602002016020810190610409919061075e565b6001600160a01b031681526020810191909152604001600020805460ff19169115159190911790558061043b816108ef565b915050610379565b506001805460ff1916811790556001600160a01b03861615610496576001600160a01b0386166000818152600460205260409020805460ff19166001179055600580546001600160a01b03191690911790555b7f4182a6dabdd02197bad4d9eb82c4599379454d455ac4d58da7091c92cb645c8c8888886040516104c993929190610916565b60405180910390a1831561051757845460ff60401b19168555604051600181527fc7f505b2f371ae2175ee4913f4499e1f2633a7b5936321eed1cdaeb6115181d29060200160405180910390a15b5050505050505050565b3360009081526004602052604090205460609060ff1661058f5760405162461bcd60e51b8152602060048201526024808201527f537061636544414f3a2043616c6c6572206973206e6f7420616e20657874656e60448201526339b4b7b760e11b606482015260840161036d565b60015460ff166105e15760405162461bcd60e51b815260206004820152601960248201527f537061636544414f3a2044414f20697320696e61637469766500000000000000604482015260640161036d565b6105e96106ff565b600080866001600160a01b0316868686604051610607929190610977565b60006040518083038185875af1925050503d8060008114610644576040519150601f19603f3d011682016040523d82523d6000602084013e610649565b606091505b50915091508161069b5760405162461bcd60e51b815260206004820152601f60248201527f537061636544414f3a204c6f772d6c6576656c2063616c6c206661696c656400604482015260640161036d565b866001600160a01b0316336001600160a01b03167fd2ae105af60156537f27ab3fae278c0fe76ede89326e9181e70a65ee86e328bb8888886040516106e293929190610987565b60405180910390a39150506106f76001600055565b949350505050565b60026000540361072257604051633ee5aeb560e01b815260040160405180910390fd5b6002600055565b60006020828403121561073b57600080fd5b5035919050565b80356001600160a01b038116811461075957600080fd5b919050565b60006020828403121561077057600080fd5b61077982610742565b9392505050565b60008060006040848603121561079557600080fd5b833567ffffffffffffffff808211156107ad57600080fd5b818601915086601f8301126107c157600080fd5b8135818111156107d057600080fd5b8760208260051b85010111156107e557600080fd5b6020928301955093506107fb9186019050610742565b90509250925092565b6000806000806060858703121561081a57600080fd5b61082385610742565b935060208501359250604085013567ffffffffffffffff8082111561084757600080fd5b818701915087601f83011261085b57600080fd5b81358181111561086a57600080fd5b88602082850101111561087c57600080fd5b95989497505060200194505050565b600060208083528351808285015260005b818110156108b85785810183015185820160400152820161089c565b506000604082860101526040601f19601f8301168501019250505092915050565b634e487b7160e01b600052603260045260246000fd5b60006001820161090f57634e487b7160e01b600052601160045260246000fd5b5060010190565b6040808252810183905260008460608301825b86811015610957576001600160a01b0361094284610742565b16825260209283019290910190600101610929565b506001600160a01b03949094166020939093019290925250909392505050565b8183823760009101908152919050565b83815260406020820152816040820152818360608301376000818301606090810191909152601f909201601f191601019291505056fea264697066735822122044de4ed5d999fea204dd6d5589a1b6f5767fb8fd88def24c5eccff1aff473e0c64736f6c63430008140033",
  "linkReferences": {},
  "deployedLinkReferences": {}
}