{
  "_format": "hh-sol-artifact-1",
  "contractName": "TeamDAO",
  "sourceName": "contracts/contracts/team_dao/TeamDao.sol",
  "abi": [
    {
      "inputs": [
        {
          "internalType": "address[]",
          "name": "_admins",
          "type": "address[]"
        }
      ],
      "stateMutability": "nonpayable",
      "type": "constructor"
    },
    {
      "inputs": [],
      "name": "ReentrancyGuardReentrantCall",
      "type": "error"
    },
    {
      "anonymous": false,
      "inputs": [
        {
          "indexed": true,
          "internalType": "uint256",
          "name": "id",
          "type": "uint256"
        },
        {
          "indexed": true,
          "internalType": "address",
          "name": "approver",
          "type": "address"
        }
      ],
      "name": "Approved",
      "type": "event"
    },
    {
      "anonymous": false,
      "inputs": [
        {
          "indexed": true,
          "internalType": "uint256",
          "name": "id",
          "type": "uint256"
        }
      ],
      "name": "BatchExecuted",
      "type": "event"
    },
    {
      "anonymous": false,
      "inputs": [
        {
          "indexed": false,
          "internalType": "address[]",
          "name": "admins",
          "type": "address[]"
        }
      ],
      "name": "Initialized",
      "type": "event"
    },
    {
      "anonymous": false,
      "inputs": [
        {
          "indexed": true,
          "internalType": "uint256",
          "name": "id",
          "type": "uint256"
        },
        {
          "indexed": true,
          "internalType": "address",
          "name": "proposer",
          "type": "address"
        },
        {
          "indexed": false,
          "internalType": "uint256",
          "name": "count",
          "type": "uint256"
        }
      ],
      "name": "ProposalCreated",
      "type": "event"
    },
    {
      "anonymous": false,
      "inputs": [
        {
          "indexed": true,
          "internalType": "address",
          "name": "sender",
          "type": "address"
        },
        {
          "indexed": false,
          "internalType": "uint256",
          "name": "amount",
          "type": "uint256"
        }
      ],
      "name": "Received",
      "type": "event"
    },
    {
      "inputs": [
        {
          "internalType": "uint256",
          "name": "",
          "type": "uint256"
        }
      ],
      "name": "admins",
      "outputs": [
        {
          "internalType": "address",
          "name": "",
          "type": "address"
        }
      ],
      "stateMutability": "view",
      "type": "function"
    },
    {
      "inputs": [
        {
          "internalType": "uint256",
          "name": "_id",
          "type": "uint256"
        }
      ],
      "name": "approveAndExecute",
      "outputs": [],
      "stateMutability": "nonpayable",
      "type": "function"
    },
    {
      "inputs": [
        {
          "internalType": "address",
          "name": "_user",
          "type": "address"
        }
      ],
      "name": "checkAdmin",
      "outputs": [
        {
          "internalType": "bool",
          "name": "",
          "type": "bool"
        }
      ],
      "stateMutability": "view",
      "type": "function"
    },
    {
      "inputs": [
        {
          "internalType": "uint256",
          "name": "_id",
          "type": "uint256"
        }
      ],
      "name": "getProposalInfo",
      "outputs": [
        {
          "internalType": "address",
          "name": "token",
          "type": "address"
        },
        {
          "internalType": "uint256",
          "name": "count",
          "type": "uint256"
        },
        {
          "internalType": "uint256",
          "name": "approvals",
          "type": "uint256"
        },
        {
          "internalType": "bool",
          "name": "executed",
          "type": "bool"
        }
      ],
      "stateMutability": "view",
      "type": "function"
    },
    {
      "inputs": [],
      "name": "getRequiredApprovals",
      "outputs": [
        {
          "internalType": "uint256",
          "name": "",
          "type": "uint256"
        }
      ],
      "stateMutability": "view",
      "type": "function"
    },
    {
      "inputs": [
        {
          "internalType": "address",
          "name": "",
          "type": "address"
        }
      ],
      "name": "isAdmin",
      "outputs": [
        {
          "internalType": "bool",
          "name": "",
          "type": "bool"
        }
      ],
      "stateMutability": "view",
      "type": "function"
    },
    {
      "inputs": [],
      "name": "isDaoActive",
      "outputs": [
        {
          "internalType": "bool",
          "name": "",
          "type": "bool"
        }
      ],
      "stateMutability": "view",
      "type": "function"
    },
    {
      "inputs": [
        {
          "internalType": "uint256",
          "name": "",
          "type": "uint256"
        }
      ],
      "name": "proposals",
      "outputs": [
        {
          "internalType": "uint256",
          "name": "id",
          "type": "uint256"
        },
        {
          "internalType": "address",
          "name": "token",
          "type": "address"
        },
        {
          "internalType": "uint256",
          "name": "approvalCount",
          "type": "uint256"
        },
        {
          "internalType": "bool",
          "name": "executed",
          "type": "bool"
        }
      ],
      "stateMutability": "view",
      "type": "function"
    },
    {
      "inputs": [
        {
          "internalType": "address",
          "name": "_token",
          "type": "address"
        },
        {
          "components": [
            {
              "internalType": "address",
              "name": "recipient",
              "type": "address"
            },
            {
              "internalType": "uint256",
              "name": "amount",
              "type": "uint256"
            }
          ],
          "internalType": "struct TeamDAO.TransferPair[]",
          "name": "_pairs",
          "type": "tuple[]"
        }
      ],
      "name": "proposeBatch",
      "outputs": [],
      "stateMutability": "nonpayable",
      "type": "function"
    },
    {
      "stateMutability": "payable",
      "type": "receive"
    }
  ],
  "bytecode": "0x60806040523480156200001157600080fd5b5060405162000e7638038062000e768339810160408190526200003491620001df565b60016000558051600311156200009c5760405162461bcd60e51b8152602060048201526024808201527f5465616d44414f3a204d7573742068617665206174206c6561737420332061646044820152636d696e7360e01b606482015260840160405180910390fd5b60005b81518110156200015e576002828281518110620000c057620000c0620002b1565b60209081029190910181015182546001808201855560009485529284200180546001600160a01b0319166001600160a01b0390921691909117905583519091600391859085908110620001175762000117620002b1565b6020908102919091018101516001600160a01b03168252810191909152604001600020805460ff1916911515919091179055806200015581620002c7565b9150506200009f565b506001805460ff1916811790556040517fe58d4b3592c74e580b584cc31679cad3eefea91577f47aabd1764352d4b4901b906200019d908390620002ef565b60405180910390a1506200033e565b634e487b7160e01b600052604160045260246000fd5b80516001600160a01b0381168114620001da57600080fd5b919050565b60006020808385031215620001f357600080fd5b82516001600160401b03808211156200020b57600080fd5b818501915085601f8301126200022057600080fd5b815181811115620002355762000235620001ac565b8060051b604051601f19603f830116810181811085821117156200025d576200025d620001ac565b6040529182528482019250838101850191888311156200027c57600080fd5b938501935b82851015620002a5576200029585620001c2565b8452938501939285019262000281565b98975050505050505050565b634e487b7160e01b600052603260045260246000fd5b600060018201620002e857634e487b7160e01b600052601160045260246000fd5b5060010190565b6020808252825182820181905260009190848201906040850190845b81811015620003325783516001600160a01b0316835292840192918401916001016200030b565b50909695505050505050565b610b28806200034e6000396000f3fe60806040526004361061008a5760003560e01c80638b1e24ab116100595780638b1e24ab146101b45780639026dee8146101d7578063bc903cb814610210578063de15ae041461025c578063fa01d9ba1461027657600080fd5b8063013cf08b146100cb57806314bfd6d01461011a57806324d7806c14610152578063374c45451461019257600080fd5b366100c65760405134815233907f88a5966d370b9919b20f3e2c13ff65706f196a4e32cc2c12bf57088f885258749060200160405180910390a2005b600080fd5b3480156100d757600080fd5b506100eb6100e6366004610940565b610296565b604080519485526001600160a01b03909316602085015291830152151560608201526080015b60405180910390f35b34801561012657600080fd5b5061013a610135366004610940565b6102dc565b6040516001600160a01b039091168152602001610111565b34801561015e57600080fd5b5061018261016d36600461096e565b60036020526000908152604090205460ff1681565b6040519015158152602001610111565b34801561019e57600080fd5b506101b26101ad366004610992565b610306565b005b3480156101c057600080fd5b506101c9610541565b604051908152602001610111565b3480156101e357600080fd5b506101826101f236600461096e565b6001600160a01b031660009081526003602052604090205460ff1690565b34801561021c57600080fd5b5061023061022b366004610940565b610561565b604080516001600160a01b03909516855260208501939093529183015215156060820152608001610111565b34801561026857600080fd5b506001546101829060ff1681565b34801561028257600080fd5b506101b2610291366004610940565b6105be565b600481815481106102a657600080fd5b600091825260209091206006909102018054600182015460038301546004909301549193506001600160a01b0316919060ff1684565b600281815481106102ec57600080fd5b6000918252602090912001546001600160a01b0316905081565b3360009081526003602052604090205460ff166103625760405162461bcd60e51b81526020600482015260156024820152742a32b0b6a220a79d102737ba1030b71030b236b4b760591b60448201526064015b60405180910390fd5b8015801590610372575060648111155b6103be5760405162461bcd60e51b815260206004820152601c60248201527f5465616d44414f3a20496e76616c696420706169727320636f756e74000000006044820152606401610359565b6001600160a01b0383166104225760405162461bcd60e51b815260206004820152602560248201527f5465616d44414f3a20546f6b656e20616464726573732063616e6e6f74206265604482015264207a65726f60d81b6064820152608401610359565b600480546001810180835560008381529192908390811061044557610445610a1a565b600091825260208220600691909102018381556001810180546001600160a01b0319166001600160a01b03891617905591505b838110156104d9578160020185858381811061049657610496610a1a565b8354600181018555600094855260209094206040909102929092019260020290910190506104c48282610a30565b505080806104d190610a7c565b915050610478565b5033600081815260058301602052604090819020805460ff1916600190811790915560038401555183907f3417b456fad6209c73445d5efd446d686e75e4560f0f50c13b5a5cde976447b4906105329087815260200190565b60405180910390a35050505050565b6002805460009161055191610a95565b61055c906001610ab7565b905090565b60008060008060006004868154811061057c5761057c610a1a565b600091825260209091206006909102016001810154600282015460038301546004909301546001600160a01b039092169990985091965060ff16945092505050565b3360009081526003602052604090205460ff166106155760405162461bcd60e51b81526020600482015260156024820152742a32b0b6a220a79d102737ba1030b71030b236b4b760591b6044820152606401610359565b60006004828154811061062a5761062a610a1a565b60009182526020909120600690910201600481015490915060ff16156106925760405162461bcd60e51b815260206004820152601960248201527f5465616d44414f3a20416c7265616479206578656375746564000000000000006044820152606401610359565b33600090815260058201602052604090205460ff16156106f45760405162461bcd60e51b815260206004820152601960248201527f5465616d44414f3a20416c726561647920617070726f766564000000000000006044820152606401610359565b3360009081526005820160205260408120805460ff191660011790556003820180549161072083610a7c565b9091555050604051339083907f7b39c92a7e1a86e846edaeff6eba715a046352c596794c2a374269c126a9976890600090a361075a610541565b81600301541061076d5761076d81610771565b5050565b610779610916565b60048101805460ff191660019081179091558101546001600160a01b031660005b60028301548110156108dc5760008360020182815481106107bd576107bd610a1a565b6000918252602082206002918202015490860180546001600160a01b03909216935090849081106107f0576107f0610a1a565b600091825260209091206001600290920201015460405163a9059cbb60e01b81526001600160a01b038481166004830152602482018390529192509085169063a9059cbb906044016020604051808303816000875af1158015610857573d6000803e3d6000fd5b505050506040513d601f19601f8201168201806040525081019061087b9190610ad0565b6108c75760405162461bcd60e51b815260206004820152601e60248201527f5465616d44414f3a20546f6b656e207472616e73666572206661696c656400006044820152606401610359565b505080806108d490610a7c565b91505061079a565b5081546040517fe9cc9bbe7de1cbb097a6357ca3182909488efe8d793e25665befc064a02d10a790600090a2506109136001600055565b50565b60026000540361093957604051633ee5aeb560e01b815260040160405180910390fd5b6002600055565b60006020828403121561095257600080fd5b5035919050565b6001600160a01b038116811461091357600080fd5b60006020828403121561098057600080fd5b813561098b81610959565b9392505050565b6000806000604084860312156109a757600080fd5b83356109b281610959565b9250602084013567ffffffffffffffff808211156109cf57600080fd5b818601915086601f8301126109e357600080fd5b8135818111156109f257600080fd5b8760208260061b8501011115610a0757600080fd5b6020830194508093505050509250925092565b634e487b7160e01b600052603260045260246000fd5b8135610a3b81610959565b81546001600160a01b0319166001600160a01b03919091161781556020919091013560019190910155565b634e487b7160e01b600052601160045260246000fd5b600060018201610a8e57610a8e610a66565b5060010190565b600082610ab257634e487b7160e01b600052601260045260246000fd5b500490565b80820180821115610aca57610aca610a66565b92915050565b600060208284031215610ae257600080fd5b8151801515811461098b57600080fdfea2646970667358221220ac047515e0d5c600ab1026645a6fe9a15c34648f451e5838b2e158aefa71942964736f6c63430008140033",
  "linkReferences": {},
  "deployedLinkReferences": {}
}