{
  "_format": "hh-sol-artifact-1",
  "contractName": "TeamDAO",
  "sourceName": "contracts/contracts/team_dao/TeamDao.sol",
  "abi": [
    {
      "inputs": [
        {
          "internalType": "address[]",
          "name": "_admins",
          "type": "address[]"
        }
      ],
      "stateMutability": "nonpayable",
      "type": "constructor"
    },
    {
      "inputs": [],
      "name": "ReentrancyGuardReentrantCall",
      "type": "error"
    },
    {
      "inputs": [],
      "name": "TeamDAO__AlreadyApproved",
      "type": "error"
    },
    {
      "inputs": [],
      "name": "TeamDAO__DuplicateAdmin",
      "type": "error"
    },
    {
      "inputs": [],
      "name": "TeamDAO__InsufficientAdmins",
      "type": "error"
    },
    {
      "inputs": [],
      "name": "TeamDAO__InvalidPairCount",
      "type": "error"
    },
    {
      "inputs": [],
      "name": "TeamDAO__InvalidTokenAddress",
      "type": "error"
    },
    {
      "inputs": [],
      "name": "TeamDAO__NotAdmin",
      "type": "error"
    },
    {
      "inputs": [],
      "name": "TeamDAO__ProposalAlreadyExecuted",
      "type": "error"
    },
    {
      "inputs": [],
      "name": "TeamDAO__TransferFailed",
      "type": "error"
    },
    {
      "inputs": [],
      "name": "TeamDAO__ZeroAddress",
      "type": "error"
    },
    {
      "anonymous": false,
      "inputs": [
        {
          "indexed": true,
          "internalType": "uint256",
          "name": "id",
          "type": "uint256"
        },
        {
          "indexed": true,
          "internalType": "address",
          "name": "approver",
          "type": "address"
        }
      ],
      "name": "Approved",
      "type": "event"
    },
    {
      "anonymous": false,
      "inputs": [
        {
          "indexed": true,
          "internalType": "uint256",
          "name": "id",
          "type": "uint256"
        }
      ],
      "name": "BatchExecuted",
      "type": "event"
    },
    {
      "anonymous": false,
      "inputs": [
        {
          "indexed": false,
          "internalType": "address[]",
          "name": "admins",
          "type": "address[]"
        }
      ],
      "name": "Initialized",
      "type": "event"
    },
    {
      "anonymous": false,
      "inputs": [
        {
          "indexed": true,
          "internalType": "uint256",
          "name": "id",
          "type": "uint256"
        },
        {
          "indexed": true,
          "internalType": "address",
          "name": "proposer",
          "type": "address"
        },
        {
          "indexed": false,
          "internalType": "uint256",
          "name": "count",
          "type": "uint256"
        }
      ],
      "name": "ProposalCreated",
      "type": "event"
    },
    {
      "inputs": [
        {
          "internalType": "uint256",
          "name": "",
          "type": "uint256"
        }
      ],
      "name": "admins",
      "outputs": [
        {
          "internalType": "address",
          "name": "",
          "type": "address"
        }
      ],
      "stateMutability": "view",
      "type": "function"
    },
    {
      "inputs": [
        {
          "internalType": "uint256",
          "name": "_id",
          "type": "uint256"
        }
      ],
      "name": "approveAndExecute",
      "outputs": [],
      "stateMutability": "nonpayable",
      "type": "function"
    },
    {
      "inputs": [
        {
          "internalType": "address",
          "name": "_user",
          "type": "address"
        }
      ],
      "name": "checkAdmin",
      "outputs": [
        {
          "internalType": "bool",
          "name": "",
          "type": "bool"
        }
      ],
      "stateMutability": "view",
      "type": "function"
    },
    {
      "inputs": [
        {
          "internalType": "uint256",
          "name": "_id",
          "type": "uint256"
        }
      ],
      "name": "getProposalInfo",
      "outputs": [
        {
          "internalType": "address",
          "name": "token",
          "type": "address"
        },
        {
          "internalType": "uint256",
          "name": "count",
          "type": "uint256"
        },
        {
          "internalType": "uint256",
          "name": "approvals",
          "type": "uint256"
        },
        {
          "internalType": "enum TeamDAO.ProposalStatus",
          "name": "status",
          "type": "uint8"
        }
      ],
      "stateMutability": "view",
      "type": "function"
    },
    {
      "inputs": [],
      "name": "getRequiredApprovals",
      "outputs": [
        {
          "internalType": "uint256",
          "name": "",
          "type": "uint256"
        }
      ],
      "stateMutability": "view",
      "type": "function"
    },
    {
      "inputs": [
        {
          "internalType": "address",
          "name": "",
          "type": "address"
        }
      ],
      "name": "isAdmin",
      "outputs": [
        {
          "internalType": "bool",
          "name": "",
          "type": "bool"
        }
      ],
      "stateMutability": "view",
      "type": "function"
    },
    {
      "inputs": [
        {
          "internalType": "uint256",
          "name": "",
          "type": "uint256"
        }
      ],
      "name": "proposals",
      "outputs": [
        {
          "internalType": "uint256",
          "name": "id",
          "type": "uint256"
        },
        {
          "internalType": "address",
          "name": "token",
          "type": "address"
        },
        {
          "internalType": "uint256",
          "name": "approvalCount",
          "type": "uint256"
        },
        {
          "internalType": "enum TeamDAO.ProposalStatus",
          "name": "status",
          "type": "uint8"
        }
      ],
      "stateMutability": "view",
      "type": "function"
    },
    {
      "inputs": [
        {
          "internalType": "address",
          "name": "_token",
          "type": "address"
        },
        {
          "components": [
            {
              "internalType": "address",
              "name": "recipient",
              "type": "address"
            },
            {
              "internalType": "uint256",
              "name": "amount",
              "type": "uint256"
            }
          ],
          "internalType": "struct TeamDAO.TransferPair[]",
          "name": "_pairs",
          "type": "tuple[]"
        }
      ],
      "name": "proposeBatch",
      "outputs": [],
      "stateMutability": "nonpayable",
      "type": "function"
    }
  ],
  "bytecode": "0x60806040523480156200001157600080fd5b5060405162000d3d38038062000d3d8339810160408190526200003491620001e5565b60016000558051600311156200005d57604051632c52f28160e11b815260040160405180910390fd5b60005b815181101562000171576000828281518110620000815762000081620002b7565b6020026020010151905060006001600160a01b0316816001600160a01b031603620000bf57604051632d36515f60e01b815260040160405180910390fd5b6001600160a01b03811660009081526002602052604090205460ff1615620000fa576040516319cc620560e21b815260040160405180910390fd5b6001805480820182557fb10e2d527612073b26eecdfd717e6a320cf44b4afac2b0732d9fcbe2b7fa0cf60180546001600160a01b039093166001600160a01b031990931683179055600091825260026020526040909120805460ff19169091179055806200016881620002cd565b91505062000060565b507fe58d4b3592c74e580b584cc31679cad3eefea91577f47aabd1764352d4b4901b81604051620001a39190620002f5565b60405180910390a15062000344565b634e487b7160e01b600052604160045260246000fd5b80516001600160a01b0381168114620001e057600080fd5b919050565b60006020808385031215620001f957600080fd5b82516001600160401b03808211156200021157600080fd5b818501915085601f8301126200022657600080fd5b8151818111156200023b576200023b620001b2565b8060051b604051601f19603f83011681018181108582111715620002635762000263620001b2565b6040529182528482019250838101850191888311156200028257600080fd5b938501935b82851015620002ab576200029b85620001c8565b8452938501939285019262000287565b98975050505050505050565b634e487b7160e01b600052603260045260246000fd5b600060018201620002ee57634e487b7160e01b600052601160045260246000fd5b5060010190565b6020808252825182820181905260009190848201906040850190845b81811015620003385783516001600160a01b03168352928401929184019160010162000311565b50909695505050505050565b6109e980620003546000396000f3fe608060405234801561001057600080fd5b50600436106100885760003560e01c80638b1e24ab1161005b5780638b1e24ab1461012c5780639026dee814610142578063bc903cb81461016e578063fa01d9ba1461019157600080fd5b8063013cf08b1461008d57806314bfd6d0146100b957806324d7806c146100e4578063374c454514610117575b600080fd5b6100a061009b36600461076b565b6101a4565b6040516100b094939291906107bc565b60405180910390f35b6100cc6100c736600461076b565b6101ea565b6040516001600160a01b0390911681526020016100b0565b6101076100f2366004610804565b60026020526000908152604090205460ff1681565b60405190151581526020016100b0565b61012a610125366004610828565b610214565b005b61013461043d565b6040519081526020016100b0565b610107610150366004610804565b6001600160a01b031660009081526002602052604090205460ff1690565b61018161017c36600461076b565b61045f565b6040516100b094939291906108b0565b61012a61019f36600461076b565b6104bc565b600381815481106101b457600080fd5b600091825260209091206006909102018054600182015460038301546004909301549193506001600160a01b0316919060ff1684565b600181815481106101fa57600080fd5b6000918252602090912001546001600160a01b0316905081565b3360009081526002602052604090205460ff1661024457604051633c0dc98b60e01b815260040160405180910390fd5b8015806102515750606481115b1561026f576040516359c8105960e01b815260040160405180910390fd5b6001600160a01b038316610296576040516339817c7760e01b815260040160405180910390fd5b6003805460018082019092557fc2575a0e9e593c00f959f8c92f12db2869c3395a3b0502d05e2516446f71f85b600682029081018281557fc2575a0e9e593c00f959f8c92f12db2869c3395a3b0502d05e2516446f71f85c820180546001600160a01b0319166001600160a01b0389161790557fc2575a0e9e593c00f959f8c92f12db2869c3395a3b0502d05e2516446f71f85f8201805460ff199081169091557fc2575a0e9e593c00f959f8c92f12db2869c3395a3b0502d05e2516446f71f85e83018590553360009081527fc2575a0e9e593c00f959f8c92f12db2869c3395a3b0502d05e2516446f71f8609093016020526040832080549091169094179093559091905b838110156103fe57816002018585838181106103bb576103bb6108db565b8354600181018555600094855260209094206040909102929092019260020290910190506103e982826108f1565b505080806103f69061093d565b91505061039d565b50604051838152339083907f3417b456fad6209c73445d5efd446d686e75e4560f0f50c13b5a5cde976447b49060200160405180910390a35050505050565b60015460009061044f90600290610956565b61045a906001610978565b905090565b60008060008060006003868154811061047a5761047a6108db565b600091825260209091206006909102016001810154600282015460038301546004909301546001600160a01b039092169990985091965060ff16945092505050565b3360009081526002602052604090205460ff166104ec57604051633c0dc98b60e01b815260040160405180910390fd5b600060038281548110610501576105016108db565b6000918252602082206006909102019150600482015460ff16600181111561052b5761052b610784565b146105485760405162ee6e0960e01b815260040160405180910390fd5b33600090815260058201602052604090205460ff161561057b57604051633ad214a560e01b815260040160405180910390fd5b3360009081526005820160205260408120805460ff19166001179055600382018054916105a78361093d565b9091555050604051339083907f7b39c92a7e1a86e846edaeff6eba715a046352c596794c2a374269c126a9976890600090a36105e161043d565b8160030154106105f4576105f4816105f8565b5050565b610600610741565b60048101805460ff1916600190811790915581015460028201546001600160a01b039091169060005b81811015610706576000846002018281548110610648576106486108db565b600091825260209091206002909102018054600182015460405163a9059cbb60e01b81526001600160a01b039283166004820152602481019190915291925085169063a9059cbb906044016020604051808303816000875af11580156106b2573d6000803e3d6000fd5b505050506040513d601f19601f820116820180604052508101906106d69190610991565b6106f35760405163ecaf501760e01b815260040160405180910390fd5b50806106fe8161093d565b915050610629565b5082546040517fe9cc9bbe7de1cbb097a6357ca3182909488efe8d793e25665befc064a02d10a790600090a2505061073e6001600055565b50565b60026000540361076457604051633ee5aeb560e01b815260040160405180910390fd5b6002600055565b60006020828403121561077d57600080fd5b5035919050565b634e487b7160e01b600052602160045260246000fd5b600281106107b857634e487b7160e01b600052602160045260246000fd5b9052565b8481526001600160a01b038416602082015260408101839052608081016107e6606083018461079a565b95945050505050565b6001600160a01b038116811461073e57600080fd5b60006020828403121561081657600080fd5b8135610821816107ef565b9392505050565b60008060006040848603121561083d57600080fd5b8335610848816107ef565b9250602084013567ffffffffffffffff8082111561086557600080fd5b818601915086601f83011261087957600080fd5b81358181111561088857600080fd5b8760208260061b850101111561089d57600080fd5b6020830194508093505050509250925092565b6001600160a01b03851681526020810184905260408101839052608081016107e6606083018461079a565b634e487b7160e01b600052603260045260246000fd5b81356108fc816107ef565b81546001600160a01b0319166001600160a01b03919091161781556020919091013560019190910155565b634e487b7160e01b600052601160045260246000fd5b60006001820161094f5761094f610927565b5060010190565b60008261097357634e487b7160e01b600052601260045260246000fd5b500490565b8082018082111561098b5761098b610927565b92915050565b6000602082840312156109a357600080fd5b8151801515811461082157600080fdfea2646970667358221220c6b790cf03d02b87d86a168fcb671cd49bb769d2795cd75f74bfcc03739a771964736f6c63430008140033",
  "linkReferences": {},
  "deployedLinkReferences": {}
}