{
  "_format": "hh-sol-artifact-1",
  "contractName": "DaoRegistryStateV1",
  "sourceName": "contracts/dao-registry/DaoRegistryStateV1.sol",
  "abi": [
    {
      "inputs": [
        {
          "internalType": "address",
          "name": "operator",
          "type": "address"
        }
      ],
      "stateMutability": "nonpayable",
      "type": "constructor"
    },
    {
      "inputs": [
        {
          "internalType": "address",
          "name": "o",
          "type": "address"
        }
      ],
      "name": "addDaoStateOperator",
      "outputs": [],
      "stateMutability": "nonpayable",
      "type": "function"
    },
    {
      "inputs": [
        {
          "internalType": "string",
          "name": "name",
          "type": "string"
        },
        {
          "internalType": "address",
          "name": "addr",
          "type": "address"
        }
      ],
      "name": "addNamedAddress",
      "outputs": [],
      "stateMutability": "nonpayable",
      "type": "function"
    },
    {
      "inputs": [
        {
          "internalType": "string",
          "name": "name",
          "type": "string"
        },
        {
          "internalType": "string",
          "name": "value",
          "type": "string"
        }
      ],
      "name": "addNamedString",
      "outputs": [],
      "stateMutability": "nonpayable",
      "type": "function"
    },
    {
      "inputs": [
        {
          "internalType": "address",
          "name": "o",
          "type": "address"
        }
      ],
      "name": "addOperator",
      "outputs": [],
      "stateMutability": "nonpayable",
      "type": "function"
    },
    {
      "inputs": [
        {
          "components": [
            {
              "internalType": "uint256",
              "name": "proposalId",
              "type": "uint256"
            },
            {
              "internalType": "address",
              "name": "proposer",
              "type": "address"
            },
            {
              "internalType": "string",
              "name": "title",
              "type": "string"
            },
            {
              "internalType": "string",
              "name": "proposalAppName",
              "type": "string"
            },
            {
              "internalType": "string",
              "name": "voteAppName",
              "type": "string"
            },
            {
              "internalType": "string",
              "name": "subCategory",
              "type": "string"
            },
            {
              "internalType": "uint256",
              "name": "submittedAt",
              "type": "uint256"
            },
            {
              "internalType": "uint16",
              "name": "voteStatus",
              "type": "uint16"
            },
            {
              "internalType": "uint256",
              "name": "numberOfVotes",
              "type": "uint256"
            }
          ],
          "internalType": "struct ProposalSummary",
          "name": "p",
          "type": "tuple"
        }
      ],
      "name": "addProposal",
      "outputs": [
        {
          "internalType": "bytes",
          "name": "",
          "type": "bytes"
        }
      ],
      "stateMutability": "nonpayable",
      "type": "function"
    },
    {
      "inputs": [
        {
          "internalType": "bool",
          "name": "allowPublicReadCheck",
          "type": "bool"
        }
      ],
      "name": "allowPublicRead",
      "outputs": [],
      "stateMutability": "nonpayable",
      "type": "function"
    },
    {
      "inputs": [
        {
          "internalType": "bool",
          "name": "allowPublicWriteCheck",
          "type": "bool"
        }
      ],
      "name": "allowPublicWrite",
      "outputs": [],
      "stateMutability": "nonpayable",
      "type": "function"
    },
    {
      "inputs": [
        {
          "internalType": "bool",
          "name": "ready",
          "type": "bool"
        }
      ],
      "name": "allowReady",
      "outputs": [],
      "stateMutability": "nonpayable",
      "type": "function"
    },
    {
      "inputs": [
        {
          "internalType": "string",
          "name": "name",
          "type": "string"
        }
      ],
      "name": "delNamedString",
      "outputs": [],
      "stateMutability": "nonpayable",
      "type": "function"
    },
    {
      "inputs": [
        {
          "internalType": "address",
          "name": "o",
          "type": "address"
        }
      ],
      "name": "delOperator",
      "outputs": [],
      "stateMutability": "nonpayable",
      "type": "function"
    },
    {
      "inputs": [
        {
          "internalType": "string",
          "name": "proposalAppName",
          "type": "string"
        },
        {
          "internalType": "uint256",
          "name": "proposalId",
          "type": "uint256"
        }
      ],
      "name": "delProposal",
      "outputs": [],
      "stateMutability": "nonpayable",
      "type": "function"
    },
    {
      "inputs": [
        {
          "internalType": "string",
          "name": "name",
          "type": "string"
        }
      ],
      "name": "existsNamedString",
      "outputs": [
        {
          "internalType": "bool",
          "name": "",
          "type": "bool"
        }
      ],
      "stateMutability": "view",
      "type": "function"
    },
    {
      "inputs": [
        {
          "internalType": "address",
          "name": "o",
          "type": "address"
        }
      ],
      "name": "existsOperator",
      "outputs": [
        {
          "internalType": "bool",
          "name": "",
          "type": "bool"
        }
      ],
      "stateMutability": "view",
      "type": "function"
    },
    {
      "inputs": [],
      "name": "getDaoManagerAddress",
      "outputs": [
        {
          "internalType": "address",
          "name": "",
          "type": "address"
        }
      ],
      "stateMutability": "view",
      "type": "function"
    },
    {
      "inputs": [
        {
          "internalType": "string",
          "name": "name",
          "type": "string"
        }
      ],
      "name": "getNamedString",
      "outputs": [
        {
          "internalType": "string",
          "name": "",
          "type": "string"
        }
      ],
      "stateMutability": "view",
      "type": "function"
    },
    {
      "inputs": [
        {
          "internalType": "string",
          "name": "proposalAppName",
          "type": "string"
        },
        {
          "internalType": "uint256",
          "name": "proposalId",
          "type": "uint256"
        }
      ],
      "name": "getProposal",
      "outputs": [
        {
          "components": [
            {
              "internalType": "uint256",
              "name": "proposalId",
              "type": "uint256"
            },
            {
              "internalType": "address",
              "name": "proposer",
              "type": "address"
            },
            {
              "internalType": "string",
              "name": "title",
              "type": "string"
            },
            {
              "internalType": "string",
              "name": "proposalAppName",
              "type": "string"
            },
            {
              "internalType": "string",
              "name": "voteAppName",
              "type": "string"
            },
            {
              "internalType": "string",
              "name": "subCategory",
              "type": "string"
            },
            {
              "internalType": "uint256",
              "name": "submittedAt",
              "type": "uint256"
            },
            {
              "internalType": "uint16",
              "name": "voteStatus",
              "type": "uint16"
            },
            {
              "internalType": "uint256",
              "name": "numberOfVotes",
              "type": "uint256"
            }
          ],
          "internalType": "struct ProposalSummary",
          "name": "",
          "type": "tuple"
        },
        {
          "internalType": "bool",
          "name": "",
          "type": "bool"
        }
      ],
      "stateMutability": "view",
      "type": "function"
    },
    {
      "inputs": [],
      "name": "getStateReady",
      "outputs": [
        {
          "internalType": "bool",
          "name": "",
          "type": "bool"
        }
      ],
      "stateMutability": "view",
      "type": "function"
    },
    {
      "inputs": [],
      "name": "lengthOfOperators",
      "outputs": [
        {
          "internalType": "uint256",
          "name": "",
          "type": "uint256"
        }
      ],
      "stateMutability": "view",
      "type": "function"
    },
    {
      "inputs": [],
      "name": "listNamedString",
      "outputs": [
        {
          "internalType": "string[]",
          "name": "",
          "type": "string[]"
        },
        {
          "internalType": "string[]",
          "name": "",
          "type": "string[]"
        }
      ],
      "stateMutability": "view",
      "type": "function"
    },
    {
      "inputs": [],
      "name": "listOperators",
      "outputs": [
        {
          "internalType": "address[]",
          "name": "operators",
          "type": "address[]"
        }
      ],
      "stateMutability": "view",
      "type": "function"
    },
    {
      "inputs": [],
      "name": "listProposals",
      "outputs": [
        {
          "components": [
            {
              "internalType": "uint256",
              "name": "proposalId",
              "type": "uint256"
            },
            {
              "internalType": "address",
              "name": "proposer",
              "type": "address"
            },
            {
              "internalType": "string",
              "name": "title",
              "type": "string"
            },
            {
              "internalType": "string",
              "name": "proposalAppName",
              "type": "string"
            },
            {
              "internalType": "string",
              "name": "voteAppName",
              "type": "string"
            },
            {
              "internalType": "string",
              "name": "subCategory",
              "type": "string"
            },
            {
              "internalType": "uint256",
              "name": "submittedAt",
              "type": "uint256"
            },
            {
              "internalType": "uint16",
              "name": "voteStatus",
              "type": "uint16"
            },
            {
              "internalType": "uint256",
              "name": "numberOfVotes",
              "type": "uint256"
            }
          ],
          "internalType": "struct ProposalSummary[]",
          "name": "",
          "type": "tuple[]"
        }
      ],
      "stateMutability": "view",
      "type": "function"
    },
    {
      "inputs": [
        {
          "internalType": "address",
          "name": "to",
          "type": "address"
        }
      ],
      "name": "migrate",
      "outputs": [],
      "stateMutability": "nonpayable",
      "type": "function"
    },
    {
      "inputs": [],
      "name": "publicRead",
      "outputs": [
        {
          "internalType": "bool",
          "name": "",
          "type": "bool"
        }
      ],
      "stateMutability": "view",
      "type": "function"
    },
    {
      "inputs": [],
      "name": "publicWrite",
      "outputs": [
        {
          "internalType": "bool",
          "name": "",
          "type": "bool"
        }
      ],
      "stateMutability": "view",
      "type": "function"
    },
    {
      "inputs": [
        {
          "internalType": "address",
          "name": "daoManager",
          "type": "address"
        }
      ],
      "name": "setDaoManagerAddress",
      "outputs": [],
      "stateMutability": "nonpayable",
      "type": "function"
    },
    {
      "inputs": [
        {
          "internalType": "bool",
          "name": "ready",
          "type": "bool"
        }
      ],
      "name": "setStateReady",
      "outputs": [],
      "stateMutability": "nonpayable",
      "type": "function"
    },
    {
      "inputs": [
        {
          "components": [
            {
              "internalType": "uint256",
              "name": "proposalId",
              "type": "uint256"
            },
            {
              "internalType": "address",
              "name": "proposer",
              "type": "address"
            },
            {
              "internalType": "string",
              "name": "title",
              "type": "string"
            },
            {
              "internalType": "string",
              "name": "proposalAppName",
              "type": "string"
            },
            {
              "internalType": "string",
              "name": "voteAppName",
              "type": "string"
            },
            {
              "internalType": "string",
              "name": "subCategory",
              "type": "string"
            },
            {
              "internalType": "uint256",
              "name": "submittedAt",
              "type": "uint256"
            },
            {
              "internalType": "uint16",
              "name": "voteStatus",
              "type": "uint16"
            },
            {
              "internalType": "uint256",
              "name": "numberOfVotes",
              "type": "uint256"
            }
          ],
          "internalType": "struct ProposalSummary",
          "name": "p",
          "type": "tuple"
        }
      ],
      "name": "updateProposal",
      "outputs": [
        {
          "internalType": "bytes",
          "name": "",
          "type": "bytes"
        }
      ],
      "stateMutability": "nonpayable",
      "type": "function"
    }
  ],
  "bytecode": "0x608060405260006002806101000a81548160ff02191690831515021790555034801561002a57600080fd5b5060405161576b38038061576b833981810160405281019061004c919061040c565b80600073ffffffffffffffffffffffffffffffffffffffff168173ffffffffffffffffffffffffffffffffffffffff16036100bc576040517f08c379a00000000000000000000000000000000000000000000000000000000081526004016100b390610496565b60405180910390fd5b60006100d5826001600061013a60201b9092919060201c565b905080610117576040517f08c379a000000000000000000000000000000000000000000000000000000000815260040161010e90610502565b60405180910390fd5b6001600260006101000a81548160ff021916908315150217905550505050610551565b60008360010160008473ffffffffffffffffffffffffffffffffffffffff1673ffffffffffffffffffffffffffffffffffffffff16815260200190815260200160002060000160009054906101000a900460ff168015610198575081155b156101a657600090506103a2565b8360010160008473ffffffffffffffffffffffffffffffffffffffff1673ffffffffffffffffffffffffffffffffffffffff16815260200190815260200160002060000160009054906101000a900460ff166102f357604051806040016040528060011515815260200185600001805490508152508460010160008573ffffffffffffffffffffffffffffffffffffffff1673ffffffffffffffffffffffffffffffffffffffff16815260200190815260200160002060008201518160000160006101000a81548160ff0219169083151502179055506020820151816001015590505083600001839080600181540180825580915050600190039060005260206000200160009091909190916101000a81548173ffffffffffffffffffffffffffffffffffffffff021916908373ffffffffffffffffffffffffffffffffffffffff16021790555061039d565b60008460010160008573ffffffffffffffffffffffffffffffffffffffff1673ffffffffffffffffffffffffffffffffffffffff1681526020019081526020016000206001015490508385600001828154811061035357610352610522565b5b9060005260206000200160006101000a81548173ffffffffffffffffffffffffffffffffffffffff021916908373ffffffffffffffffffffffffffffffffffffffff160217905550505b600190505b9392505050565b600080fd5b600073ffffffffffffffffffffffffffffffffffffffff82169050919050565b60006103d9826103ae565b9050919050565b6103e9816103ce565b81146103f457600080fd5b50565b600081519050610406816103e0565b92915050565b600060208284031215610422576104216103a9565b5b6000610430848285016103f7565b91505092915050565b600082825260208201905092915050565b7f696e76616c6964206f776e657200000000000000000000000000000000000000600082015250565b6000610480600d83610439565b915061048b8261044a565b602082019050919050565b600060208201905081810360008301526104af81610473565b9050919050565b7f696e7465726e616c206572726f72000000000000000000000000000000000000600082015250565b60006104ec600e83610439565b91506104f7826104b6565b602082019050919050565b6000602082019050818103600083015261051b816104df565b9050919050565b7f4e487b7100000000000000000000000000000000000000000000000000000000600052603260045260246000fd5b61520b806105606000396000f3fe608060405234801561001057600080fd5b50600436106101a95760003560e01c80639870d7fe116100f9578063ce5494bb11610097578063d33fb79f11610071578063d33fb79f146104a5578063e0c71bd0146104c3578063e8293661146104df578063f95ac8c6146104fb576101a9565b8063ce5494bb1461043b578063ce55236614610457578063cefe2acc14610475576101a9565b8063af334757116100d3578063af334757146103b2578063b1094438146103d0578063b7ddd8dd14610400578063cd2ff5e81461041c576101a9565b80639870d7fe1461035e5780639c00e5191461037a578063adf8844014610396576101a9565b806334fb9a5911610166578063634270051161014057806363427005146102da578063652b047e146102f657806370e58ac4146103125780638d5e882b14610342576101a9565b806334fb9a59146102705780633501e0a2146102a05780633e30838d146102be576101a9565b806303827319146101ae578063039a93ca146101ca57806313bf7eb2146101e85780631ed1cd05146102185780631ed995d11461023457806326c7eb1c14610252575b600080fd5b6101c860048036038101906101c39190613993565b61052c565b005b6101d26105c8565b6040516101df9190613ab0565b60405180910390f35b61020260048036038101906101fd9190613e0e565b610659565b60405161020f9190613ed6565b60405180910390f35b610232600480360381019061022d9190613993565b6106f9565b005b61023c610795565b6040516102499190613f07565b60405180910390f35b61025a610826565b6040516102679190614131565b60405180910390f35b61028a600480360381019061028591906141b3565b6108b7565b604051610297919061420f565b60405180910390f35b6102a8610999565b6040516102b5919061420f565b60405180910390f35b6102d860048036038101906102d3919061422a565b610a2e565b005b6102f460048036038101906102ef9190614257565b610ac5565b005b610310600480360381019061030b919061422a565b610b65565b005b61032c60048036038101906103279190613e0e565b610bff565b6040516103399190613ed6565b60405180910390f35b61035c600480360381019061035791906141b3565b610c9f565b005b6103786004803603810190610373919061422a565b610d7b565b005b610394600480360381019061038f91906142b7565b610e15565b005b6103b060048036038101906103ab919061422a565b610eaf565b005b6103ba610f73565b6040516103c7919061420f565b60405180910390f35b6103ea60048036038101906103e5919061422a565b61100a565b6040516103f7919061420f565b60405180910390f35b61041a60048036038101906104159190613993565b6110a7565b005b610424611144565b6040516104329291906143d5565b60405180910390f35b6104556004803603810190610450919061422a565b6111d9565b005b61045f61126e565b60405161046c919061441b565b60405180910390f35b61048f600480360381019061048a91906141b3565b611318565b60405161049c9190614480565b60405180910390f35b6104ad6113fa565b6040516104ba919061420f565b60405180910390f35b6104dd60048036038101906104d89190613993565b611491565b005b6104f960048036038101906104f491906144a2565b61152e565b005b610515600480360381019061051091906142b7565b6115d5565b6040516105239291906145fd565b60405180910390f35b60028054906101000a900460ff1615806105525750600260019054906101000a900460ff165b8061056d575061056c33600061168090919063ffffffff16565b5b6105ac576040517f08c379a00000000000000000000000000000000000000000000000000000000081526004016105a390614679565b60405180910390fd5b806002806101000a81548160ff02191690831515021790555050565b606060028054906101000a900460ff1615806105f05750600260009054906101000a900460ff165b8061060b575061060a33600061168090919063ffffffff16565b5b61064a576040517f08c379a0000000000000000000000000000000000000000000000000000000008152600401610641906146e5565b60405180910390fd5b61065460006116dc565b905090565b606060028054906101000a900460ff1615806106815750600260019054906101000a900460ff165b8061069c575061069b33600061168090919063ffffffff16565b5b6106db576040517f08c379a00000000000000000000000000000000000000000000000000000000081526004016106d290614679565b60405180910390fd5b6106f2826001601761176e9092919063ffffffff16565b9050919050565b60028054906101000a900460ff16158061071f5750600260019054906101000a900460ff165b8061073a575061073933600061168090919063ffffffff16565b5b610779576040517f08c379a000000000000000000000000000000000000000000000000000000000815260040161077090614679565b60405180910390fd5b806002806101000a81548160ff02191690831515021790555050565b600060028054906101000a900460ff1615806107bd5750600260009054906101000a900460ff165b806107d857506107d733600061168090919063ffffffff16565b5b610817576040517f08c379a000000000000000000000000000000000000000000000000000000000815260040161080e906146e5565b60405180910390fd5b6108216000611c48565b905090565b606060028054906101000a900460ff16158061084e5750600260009054906101000a900460ff165b80610869575061086833600061168090919063ffffffff16565b5b6108a8576040517f08c379a000000000000000000000000000000000000000000000000000000000815260040161089f906146e5565b60405180910390fd5b6108b26017611c59565b905090565b600060028054906101000a900460ff1615806108df5750600260009054906101000a900460ff165b806108fa57506108f933600061168090919063ffffffff16565b5b610939576040517f08c379a0000000000000000000000000000000000000000000000000000000008152600401610930906146e5565b60405180910390fd5b61099183838080601f016020809104026020016040519081016040528093929190818152602001838380828437600081840152601f19601f820116905080830192505050505050506003611f9990919063ffffffff16565b905092915050565b600060028054906101000a900460ff1615806109c15750600260009054906101000a900460ff165b806109dc57506109db33600061168090919063ffffffff16565b5b610a1b576040517f08c379a0000000000000000000000000000000000000000000000000000000008152600401610a12906146e5565b60405180910390fd5b60028054906101000a900460ff16905090565b60028054906101000a900460ff161580610a545750600260019054906101000a900460ff165b80610a6f5750610a6e33600061168090919063ffffffff16565b5b610aae576040517f08c379a0000000000000000000000000000000000000000000000000000000008152600401610aa590614679565b60405180910390fd5b610ac2816000611fd490919063ffffffff16565b50565b60028054906101000a900460ff161580610aeb5750600260019054906101000a900460ff165b80610b065750610b0533600061168090919063ffffffff16565b5b610b45576040517f08c379a0000000000000000000000000000000000000000000000000000000008152600401610b3c90614679565b60405180910390fd5b610b60838383600060076122ed90949392919063ffffffff16565b505050565b60028054906101000a900460ff161580610b8b5750600260019054906101000a900460ff165b80610ba65750610ba533600061168090919063ffffffff16565b5b610be5576040517f08c379a0000000000000000000000000000000000000000000000000000000008152600401610bdc90614679565b60405180910390fd5b610bfb816000806125aa9092919063ffffffff16565b5050565b606060028054906101000a900460ff161580610c275750600260019054906101000a900460ff165b80610c425750610c4133600061168090919063ffffffff16565b5b610c81576040517f08c379a0000000000000000000000000000000000000000000000000000000008152600401610c7890614679565b60405180910390fd5b610c98826000601761176e9092919063ffffffff16565b9050919050565b60028054906101000a900460ff161580610cc55750600260019054906101000a900460ff165b80610ce05750610cdf33600061168090919063ffffffff16565b5b610d1f576040517f08c379a0000000000000000000000000000000000000000000000000000000008152600401610d1690614679565b60405180910390fd5b610d7782828080601f016020809104026020016040519081016040528093929190818152602001838380828437600081840152601f19601f82011690508083019250505050505050600361281990919063ffffffff16565b5050565b60028054906101000a900460ff161580610da15750600260019054906101000a900460ff165b80610dbc5750610dbb33600061168090919063ffffffff16565b5b610dfb576040517f08c379a0000000000000000000000000000000000000000000000000000000008152600401610df290614679565b60405180910390fd5b610e11816000806125aa9092919063ffffffff16565b5050565b60028054906101000a900460ff161580610e3b5750600260019054906101000a900460ff165b80610e565750610e5533600061168090919063ffffffff16565b5b610e95576040517f08c379a0000000000000000000000000000000000000000000000000000000008152600401610e8c90614679565b60405180910390fd5b610eab82826017612b6b9092919063ffffffff16565b5050565b60028054906101000a900460ff161580610ed55750600260019054906101000a900460ff165b80610ef05750610eef33600061168090919063ffffffff16565b5b610f2f576040517f08c379a0000000000000000000000000000000000000000000000000000000008152600401610f2690614679565b60405180910390fd5b80601b60006101000a81548173ffffffffffffffffffffffffffffffffffffffff021916908373ffffffffffffffffffffffffffffffffffffffff16021790555050565b600060028054906101000a900460ff161580610f9b5750600260009054906101000a900460ff165b80610fb65750610fb533600061168090919063ffffffff16565b5b610ff5576040517f08c379a0000000000000000000000000000000000000000000000000000000008152600401610fec906146e5565b60405180910390fd5b600260009054906101000a900460ff16905090565b600060028054906101000a900460ff1615806110325750600260009054906101000a900460ff165b8061104d575061104c33600061168090919063ffffffff16565b5b61108c576040517f08c379a0000000000000000000000000000000000000000000000000000000008152600401611083906146e5565b60405180910390fd5b6110a082600061168090919063ffffffff16565b9050919050565b60028054906101000a900460ff1615806110cd5750600260019054906101000a900460ff165b806110e857506110e733600061168090919063ffffffff16565b5b611127576040517f08c379a000000000000000000000000000000000000000000000000000000000815260040161111e90614679565b60405180910390fd5b80600260016101000a81548160ff02191690831515021790555050565b60608060028054906101000a900460ff16158061116d5750600260009054906101000a900460ff165b80611188575061118733600061168090919063ffffffff16565b5b6111c7576040517f08c379a00000000000000000000000000000000000000000000000000000000081526004016111be906146e5565b60405180910390fd5b6111d16003613046565b915091509091565b60028054906101000a900460ff1615806111ff5750600260019054906101000a900460ff165b8061121a575061121933600061168090919063ffffffff16565b5b611259576040517f08c379a000000000000000000000000000000000000000000000000000000000815260040161125090614679565b60405180910390fd5b61126281610d7b565b61126b33610a2e565b50565b600060028054906101000a900460ff1615806112965750600260009054906101000a900460ff165b806112b157506112b033600061168090919063ffffffff16565b5b6112f0576040517f08c379a00000000000000000000000000000000000000000000000000000000081526004016112e7906146e5565b60405180910390fd5b601b60009054906101000a900473ffffffffffffffffffffffffffffffffffffffff16905090565b606060028054906101000a900460ff1615806113405750600260009054906101000a900460ff165b8061135b575061135a33600061168090919063ffffffff16565b5b61139a576040517f08c379a0000000000000000000000000000000000000000000000000000000008152600401611391906146e5565b60405180910390fd5b6113f283838080601f016020809104026020016040519081016040528093929190818152602001838380828437600081840152601f19601f82011690508083019250505050505050600361320090919063ffffffff16565b905092915050565b600060028054906101000a900460ff1615806114225750600260009054906101000a900460ff165b8061143d575061143c33600061168090919063ffffffff16565b5b61147c576040517f08c379a0000000000000000000000000000000000000000000000000000000008152600401611473906146e5565b60405180910390fd5b600260019054906101000a900460ff16905090565b60028054906101000a900460ff1615806114b75750600260019054906101000a900460ff165b806114d257506114d133600061168090919063ffffffff16565b5b611511576040517f08c379a000000000000000000000000000000000000000000000000000000000815260040161150890614679565b60405180910390fd5b80600260006101000a81548160ff02191690831515021790555050565b6115cf84848080601f016020809104026020016040519081016040528093929190818152602001838380828437600081840152601f19601f8201169050808301925050505050505083838080601f016020809104026020016040519081016040528093929190818152602001838380828437600081840152601f19601f82011690508083019250505050505050600060036132b3909392919063ffffffff16565b50505050565b6115dd613844565b600060028054906101000a900460ff1615806116055750600260009054906101000a900460ff165b80611620575061161f33600061168090919063ffffffff16565b5b61165f576040517f08c379a0000000000000000000000000000000000000000000000000000000008152600401611656906146e5565b60405180910390fd5b611675848460176134cc9092919063ffffffff16565b915091509250929050565b60008260010160008373ffffffffffffffffffffffffffffffffffffffff1673ffffffffffffffffffffffffffffffffffffffff16815260200190815260200160002060000160009054906101000a900460ff16905092915050565b60608160000180548060200260200160405190810160405280929190818152602001828054801561176257602002820191906000526020600020905b8160009054906101000a900473ffffffffffffffffffffffffffffffffffffffff1673ffffffffffffffffffffffffffffffffffffffff1681526020019060010190808311611718575b50505050509050919050565b606060008360600151846000015160405160200161178d929190614762565b604051602081830303815290604052905084600301816040516117b091906147c6565b908152602001604051809103902060000160009054906101000a900460ff1615806117d85750825b611817576040517f08c379a000000000000000000000000000000000000000000000000000000000815260040161180e90614829565b60405180910390fd5b846003018160405161182991906147c6565b908152602001604051809103902060000160009054906101000a900460ff16611a055760405180604001604052806001151581526020018660000180549050815250856003018260405161187d91906147c6565b908152602001604051809103902060008201518160000160006101000a81548160ff0219169083151502179055506020820151816001015590505084600001819080600181540180825580915050600190039060005260206000200160009091909190915090816118ee9190614a55565b50846001018490806001815401808255809150506001900390600052602060002090600902016000909190919091506000820151816000015560208201518160010160006101000a81548173ffffffffffffffffffffffffffffffffffffffff021916908373ffffffffffffffffffffffffffffffffffffffff16021790555060408201518160020190816119839190614b82565b5060608201518160030190816119999190614b82565b5060808201518160040190816119af9190614b82565b5060a08201518160050190816119c59190614b82565b5060c0820151816006015560e08201518160070160006101000a81548161ffff021916908361ffff16021790555061010082015181600801555050611b38565b60008560030182604051611a1991906147c6565b908152602001604051809103902060010154905084866001018281548110611a4457611a43614c54565b5b90600052602060002090600902016000820151816000015560208201518160010160006101000a81548173ffffffffffffffffffffffffffffffffffffffff021916908373ffffffffffffffffffffffffffffffffffffffff1602179055506040820151816002019081611ab89190614b82565b506060820151816003019081611ace9190614b82565b506080820151816004019081611ae49190614b82565b5060a0820151816005019081611afa9190614b82565b5060c0820151816006015560e08201518160070160006101000a81548161ffff021916908361ffff1602179055506101008201518160080155905050505b838560020182604051611b4b91906147c6565b90815260200160405180910390206000820151816000015560208201518160010160006101000a81548173ffffffffffffffffffffffffffffffffffffffff021916908373ffffffffffffffffffffffffffffffffffffffff1602179055506040820151816002019081611bbf9190614b82565b506060820151816003019081611bd59190614b82565b506080820151816004019081611beb9190614b82565b5060a0820151816005019081611c019190614b82565b5060c0820151816006015560e08201518160070160006101000a81548161ffff021916908361ffff1602179055506101008201518160080155905050809150509392505050565b600081600001805490509050919050565b606081600101805480602002602001604051908101604052809291908181526020016000905b82821015611f8e578382906000526020600020906009020160405180610120016040529081600082015481526020016001820160009054906101000a900473ffffffffffffffffffffffffffffffffffffffff1673ffffffffffffffffffffffffffffffffffffffff1673ffffffffffffffffffffffffffffffffffffffff168152602001600282018054611d1390614878565b80601f0160208091040260200160405190810160405280929190818152602001828054611d3f90614878565b8015611d8c5780601f10611d6157610100808354040283529160200191611d8c565b820191906000526020600020905b815481529060010190602001808311611d6f57829003601f168201915b50505050508152602001600382018054611da590614878565b80601f0160208091040260200160405190810160405280929190818152602001828054611dd190614878565b8015611e1e5780601f10611df357610100808354040283529160200191611e1e565b820191906000526020600020905b815481529060010190602001808311611e0157829003601f168201915b50505050508152602001600482018054611e3790614878565b80601f0160208091040260200160405190810160405280929190818152602001828054611e6390614878565b8015611eb05780601f10611e8557610100808354040283529160200191611eb0565b820191906000526020600020905b815481529060010190602001808311611e9357829003601f168201915b50505050508152602001600582018054611ec990614878565b80601f0160208091040260200160405190810160405280929190818152602001828054611ef590614878565b8015611f425780601f10611f1757610100808354040283529160200191611f42565b820191906000526020600020905b815481529060010190602001808311611f2557829003601f168201915b50505050508152602001600682015481526020016007820160009054906101000a900461ffff1661ffff1661ffff16815260200160088201548152505081526020019060010190611c7f565b505050509050919050565b60008260030182604051611fad9190614c83565b908152602001604051809103902060000160009054906101000a900460ff16905092915050565b8160010160008273ffffffffffffffffffffffffffffffffffffffff1673ffffffffffffffffffffffffffffffffffffffff16815260200190815260200160002060000160009054906101000a900460ff16612065576040517f08c379a000000000000000000000000000000000000000000000000000000000815260040161205c90614ce6565b60405180910390fd5b60008260010160008373ffffffffffffffffffffffffffffffffffffffff1673ffffffffffffffffffffffffffffffffffffffff168152602001908152602001600020600101549050600083600001600185600001805490506120c89190614d35565b815481106120d9576120d8614c54565b5b9060005260206000200160009054906101000a900473ffffffffffffffffffffffffffffffffffffffff1690506040518060400160405280600115158152602001838152508460010160008373ffffffffffffffffffffffffffffffffffffffff1673ffffffffffffffffffffffffffffffffffffffff16815260200190815260200160002060008201518160000160006101000a81548160ff021916908315150217905550602082015181600101559050508360010160008473ffffffffffffffffffffffffffffffffffffffff1673ffffffffffffffffffffffffffffffffffffffff168152602001908152602001600020600080820160006101000a81549060ff02191690556001820160009055505083600001600185600001805490506122049190614d35565b8154811061221557612214614c54565b5b9060005260206000200160009054906101000a900473ffffffffffffffffffffffffffffffffffffffff1684600001838154811061225657612255614c54565b5b9060005260206000200160006101000a81548173ffffffffffffffffffffffffffffffffffffffff021916908373ffffffffffffffffffffffffffffffffffffffff160217905550836000018054806122b2576122b1614d69565b5b6001900381819060005260206000200160006101000a81549073ffffffffffffffffffffffffffffffffffffffff0219169055905550505050565b846003018484604051612301929190614dbd565b908152602001604051809103902060000160009054906101000a900460ff1615806123295750805b612368576040517f08c379a000000000000000000000000000000000000000000000000000000000815260040161235f90614829565b60405180910390fd5b84600301848460405161237c929190614dbd565b908152602001604051809103902060000160009054906101000a900460ff166124b757604051806040016040528060011515815260200186600001805490508152508560030185856040516123d2929190614dbd565b908152602001604051809103902060008201518160000160006101000a81548160ff021916908315150217905550602082015181600101559050508460000184849091806001815401808255809150506001900390600052602060002001600090919290919290919290919250918261244c929190614de1565b5084600101829080600181540180825580915050600190039060005260206000200160009091909190916101000a81548173ffffffffffffffffffffffffffffffffffffffff021916908373ffffffffffffffffffffffffffffffffffffffff160217905550612542565b60008560030185856040516124cd929190614dbd565b9081526020016040518091039020600101549050828660010182815481106124f8576124f7614c54565b5b9060005260206000200160006101000a81548173ffffffffffffffffffffffffffffffffffffffff021916908373ffffffffffffffffffffffffffffffffffffffff160217905550505b81856002018585604051612557929190614dbd565b908152602001604051809103902060006101000a81548173ffffffffffffffffffffffffffffffffffffffff021916908373ffffffffffffffffffffffffffffffffffffffff1602179055505050505050565b60008360010160008473ffffffffffffffffffffffffffffffffffffffff1673ffffffffffffffffffffffffffffffffffffffff16815260200190815260200160002060000160009054906101000a900460ff168015612608575081155b156126165760009050612812565b8360010160008473ffffffffffffffffffffffffffffffffffffffff1673ffffffffffffffffffffffffffffffffffffffff16815260200190815260200160002060000160009054906101000a900460ff1661276357604051806040016040528060011515815260200185600001805490508152508460010160008573ffffffffffffffffffffffffffffffffffffffff1673ffffffffffffffffffffffffffffffffffffffff16815260200190815260200160002060008201518160000160006101000a81548160ff0219169083151502179055506020820151816001015590505083600001839080600181540180825580915050600190039060005260206000200160009091909190916101000a81548173ffffffffffffffffffffffffffffffffffffffff021916908373ffffffffffffffffffffffffffffffffffffffff16021790555061280d565b60008460010160008573ffffffffffffffffffffffffffffffffffffffff1673ffffffffffffffffffffffffffffffffffffffff168152602001908152602001600020600101549050838560000182815481106127c3576127c2614c54565b5b9060005260206000200160006101000a81548173ffffffffffffffffffffffffffffffffffffffff021916908373ffffffffffffffffffffffffffffffffffffffff160217905550505b600190505b9392505050565b816003018160405161282b9190614c83565b908152602001604051809103902060000160009054906101000a900460ff16612889576040517f08c379a000000000000000000000000000000000000000000000000000000000815260040161288090614ce6565b60405180910390fd5b6000826003018260405161289d9190614c83565b9081526020016040518091039020600101549050600083600001600185600001805490506128cb9190614d35565b815481106128dc576128db614c54565b5b9060005260206000200180546128f190614878565b80601f016020809104026020016040519081016040528092919081815260200182805461291d90614878565b801561296a5780601f1061293f5761010080835404028352916020019161296a565b820191906000526020600020905b81548152906001019060200180831161294d57829003601f168201915b50505050509050604051806040016040528060011515815260200183815250846003018260405161299b9190614c83565b908152602001604051809103902060008201518160000160006101000a81548160ff0219169083151502179055506020820151816001015590505083600301836040516129e89190614c83565b9081526020016040518091039020600080820160006101000a81549060ff0219169055600182016000905550508360000160018560000180549050612a2d9190614d35565b81548110612a3e57612a3d614c54565b5b90600052602060002001846000018381548110612a5e57612a5d614c54565b5b906000526020600020019081612a749190614edc565b508360010160018560010180549050612a8d9190614d35565b81548110612a9e57612a9d614c54565b5b90600052602060002001846001018381548110612abe57612abd614c54565b5b906000526020600020019081612ad49190614edc565b5083600001805480612ae957612ae8614d69565b5b600190038181906000526020600020016000612b0591906138aa565b905583600101805480612b1b57612b1a614d69565b5b600190038181906000526020600020016000612b3791906138aa565b90558360020183604051612b4b9190614c83565b90815260200160405180910390206000612b6591906138aa565b50505050565b60008282604051602001612b80929190614762565b60405160208183030381529060405290508360030181604051612ba391906147c6565b908152602001604051809103902060000160009054906101000a900460ff16612c01576040517f08c379a0000000000000000000000000000000000000000000000000000000008152600401612bf890614ce6565b60405180910390fd5b60008460030182604051612c1591906147c6565b90815260200160405180910390206001015490506040518060400160405280600115158152602001828152508560030183604051612c5391906147c6565b908152602001604051809103902060008201518160000160006101000a81548160ff021916908315150217905550602082015181600101559050508460030182604051612ca091906147c6565b9081526020016040518091039020600080820160006101000a81549060ff0219169055600182016000905550508460000160018660000180549050612ce59190614d35565b81548110612cf657612cf5614c54565b5b90600052602060002001856000018281548110612d1657612d15614c54565b5b906000526020600020019081612d2c9190614fef565b508460010160018660010180549050612d459190614d35565b81548110612d5657612d55614c54565b5b9060005260206000209060090201856001018281548110612d7a57612d79614c54565b5b9060005260206000209060090201600082015481600001556001820160009054906101000a900473ffffffffffffffffffffffffffffffffffffffff168160010160006101000a81548173ffffffffffffffffffffffffffffffffffffffff021916908373ffffffffffffffffffffffffffffffffffffffff16021790555060028201816002019081612e0d91906150ed565b5060038201816003019081612e2291906150ed565b5060048201816004019081612e3791906150ed565b5060058201816005019081612e4c91906150ed565b50600682015481600601556007820160009054906101000a900461ffff168160070160006101000a81548161ffff021916908361ffff1602179055506008820154816008015590505084600001805480612ea957612ea8614d69565b5b600190038181906000526020600020016000612ec591906138ea565b905584600101805480612edb57612eda614d69565b5b60019003818190600052602060002090600902016000808201600090556001820160006101000a81549073ffffffffffffffffffffffffffffffffffffffff0219169055600282016000612f2f91906138aa565b600382016000612f3f91906138aa565b600482016000612f4f91906138aa565b600582016000612f5f91906138aa565b60068201600090556007820160006101000a81549061ffff02191690556008820160009055505090558460020182604051612f9a91906147c6565b90815260200160405180910390206000808201600090556001820160006101000a81549073ffffffffffffffffffffffffffffffffffffffff0219169055600282016000612fe891906138aa565b600382016000612ff891906138aa565b60048201600061300891906138aa565b60058201600061301891906138aa565b60068201600090556007820160006101000a81549061ffff0219169055600882016000905550505050505050565b606080826000018360010181805480602002602001604051908101604052809291908181526020016000905b8282101561311e57838290600052602060002001805461309190614878565b80601f01602080910402602001604051908101604052809291908181526020018280546130bd90614878565b801561310a5780601f106130df5761010080835404028352916020019161310a565b820191906000526020600020905b8154815290600101906020018083116130ed57829003601f168201915b505050505081526020019060010190613072565b50505050915080805480602002602001604051908101604052809291908181526020016000905b828210156131f157838290600052602060002001805461316490614878565b80601f016020809104026020016040519081016040528092919081815260200182805461319090614878565b80156131dd5780601f106131b2576101008083540402835291602001916131dd565b820191906000526020600020905b8154815290600101906020018083116131c057829003601f168201915b505050505081526020019060010190613145565b50505050905091509150915091565b606082600201826040516132149190614c83565b9081526020016040518091039020805461322d90614878565b80601f016020809104026020016040519081016040528092919081815260200182805461325990614878565b80156132a65780601f1061327b576101008083540402835291602001916132a6565b820191906000526020600020905b81548152906001019060200180831161328957829003601f168201915b5050505050905092915050565b83600301836040516132c59190614c83565b908152602001604051809103902060000160009054906101000a900460ff1615806132ed5750805b61332c576040517f08c379a000000000000000000000000000000000000000000000000000000000815260040161332390614829565b60405180910390fd5b836003018360405161333e9190614c83565b908152602001604051809103902060000160009054906101000a900460ff16613440576040518060400160405280600115158152602001856000018054905081525084600301846040516133929190614c83565b908152602001604051809103902060008201518160000160006101000a81548160ff0219169083151502179055506020820151816001015590505083600001839080600181540180825580915050600190039060005260206000200160009091909190915090816134039190614b82565b50836001018290806001815401808255809150506001900390600052602060002001600090919091909150908161343a9190614b82565b50613498565b600084600301846040516134549190614c83565b90815260200160405180910390206001015490508285600101828154811061347f5761347e614c54565b5b9060005260206000200190816134959190614b82565b50505b8184600201846040516134ab9190614c83565b908152602001604051809103902090816134c59190614b82565b5050505050565b6134d4613844565b60008084846040516020016134ea929190614762565b6040516020818303038152906040529050856002018160405161350d91906147c6565b9081526020016040518091039020866003018260405161352d91906147c6565b908152602001604051809103902060000160009054906101000a900460ff168160405180610120016040529081600082015481526020016001820160009054906101000a900473ffffffffffffffffffffffffffffffffffffffff1673ffffffffffffffffffffffffffffffffffffffff1673ffffffffffffffffffffffffffffffffffffffff1681526020016002820180546135c990614878565b80601f01602080910402602001604051908101604052809291908181526020018280546135f590614878565b80156136425780601f1061361757610100808354040283529160200191613642565b820191906000526020600020905b81548152906001019060200180831161362557829003601f168201915b5050505050815260200160038201805461365b90614878565b80601f016020809104026020016040519081016040528092919081815260200182805461368790614878565b80156136d45780601f106136a9576101008083540402835291602001916136d4565b820191906000526020600020905b8154815290600101906020018083116136b757829003601f168201915b505050505081526020016004820180546136ed90614878565b80601f016020809104026020016040519081016040528092919081815260200182805461371990614878565b80156137665780601f1061373b57610100808354040283529160200191613766565b820191906000526020600020905b81548152906001019060200180831161374957829003601f168201915b5050505050815260200160058201805461377f90614878565b80601f01602080910402602001604051908101604052809291908181526020018280546137ab90614878565b80156137f85780601f106137cd576101008083540402835291602001916137f8565b820191906000526020600020905b8154815290600101906020018083116137db57829003601f168201915b50505050508152602001600682015481526020016007820160009054906101000a900461ffff1661ffff1661ffff16815260200160088201548152505091509250925050935093915050565b60405180610120016040528060008152602001600073ffffffffffffffffffffffffffffffffffffffff1681526020016060815260200160608152602001606081526020016060815260200160008152602001600061ffff168152602001600081525090565b5080546138b690614878565b6000825580601f106138c857506138e7565b601f0160209004906000526020600020908101906138e6919061392a565b5b50565b5080546138f690614878565b6000825580601f106139085750613927565b601f016020900490600052602060002090810190613926919061392a565b5b50565b5b8082111561394357600081600090555060010161392b565b5090565b6000604051905090565b600080fd5b600080fd5b60008115159050919050565b6139708161395b565b811461397b57600080fd5b50565b60008135905061398d81613967565b92915050565b6000602082840312156139a9576139a8613951565b5b60006139b78482850161397e565b91505092915050565b600081519050919050565b600082825260208201905092915050565b6000819050602082019050919050565b600073ffffffffffffffffffffffffffffffffffffffff82169050919050565b6000613a17826139ec565b9050919050565b613a2781613a0c565b82525050565b6000613a398383613a1e565b60208301905092915050565b6000602082019050919050565b6000613a5d826139c0565b613a6781856139cb565b9350613a72836139dc565b8060005b83811015613aa3578151613a8a8882613a2d565b9750613a9583613a45565b925050600181019050613a76565b5085935050505092915050565b60006020820190508181036000830152613aca8184613a52565b905092915050565b600080fd5b6000601f19601f8301169050919050565b7f4e487b7100000000000000000000000000000000000000000000000000000000600052604160045260246000fd5b613b2082613ad7565b810181811067ffffffffffffffff82111715613b3f57613b3e613ae8565b5b80604052505050565b6000613b52613947565b9050613b5e8282613b17565b919050565b600080fd5b6000819050919050565b613b7b81613b68565b8114613b8657600080fd5b50565b600081359050613b9881613b72565b92915050565b613ba781613a0c565b8114613bb257600080fd5b50565b600081359050613bc481613b9e565b92915050565b600080fd5b600080fd5b600067ffffffffffffffff821115613bef57613bee613ae8565b5b613bf882613ad7565b9050602081019050919050565b82818337600083830152505050565b6000613c27613c2284613bd4565b613b48565b905082815260208101848484011115613c4357613c42613bcf565b5b613c4e848285613c05565b509392505050565b600082601f830112613c6b57613c6a613bca565b5b8135613c7b848260208601613c14565b91505092915050565b600061ffff82169050919050565b613c9b81613c84565b8114613ca657600080fd5b50565b600081359050613cb881613c92565b92915050565b60006101208284031215613cd557613cd4613ad2565b5b613ce0610120613b48565b90506000613cf084828501613b89565b6000830152506020613d0484828501613bb5565b602083015250604082013567ffffffffffffffff811115613d2857613d27613b63565b5b613d3484828501613c56565b604083015250606082013567ffffffffffffffff811115613d5857613d57613b63565b5b613d6484828501613c56565b606083015250608082013567ffffffffffffffff811115613d8857613d87613b63565b5b613d9484828501613c56565b60808301525060a082013567ffffffffffffffff811115613db857613db7613b63565b5b613dc484828501613c56565b60a08301525060c0613dd884828501613b89565b60c08301525060e0613dec84828501613ca9565b60e083015250610100613e0184828501613b89565b6101008301525092915050565b600060208284031215613e2457613e23613951565b5b600082013567ffffffffffffffff811115613e4257613e41613956565b5b613e4e84828501613cbe565b91505092915050565b600081519050919050565b600082825260208201905092915050565b60005b83811015613e91578082015181840152602081019050613e76565b60008484015250505050565b6000613ea882613e57565b613eb28185613e62565b9350613ec2818560208601613e73565b613ecb81613ad7565b840191505092915050565b60006020820190508181036000830152613ef08184613e9d565b905092915050565b613f0181613b68565b82525050565b6000602082019050613f1c6000830184613ef8565b92915050565b600081519050919050565b600082825260208201905092915050565b6000819050602082019050919050565b613f5781613b68565b82525050565b600081519050919050565b600082825260208201905092915050565b6000613f8482613f5d565b613f8e8185613f68565b9350613f9e818560208601613e73565b613fa781613ad7565b840191505092915050565b613fbb81613c84565b82525050565b600061012083016000830151613fda6000860182613f4e565b506020830151613fed6020860182613a1e565b50604083015184820360408601526140058282613f79565b9150506060830151848203606086015261401f8282613f79565b915050608083015184820360808601526140398282613f79565b91505060a083015184820360a08601526140538282613f79565b91505060c083015161406860c0860182613f4e565b5060e083015161407b60e0860182613fb2565b50610100830151614090610100860182613f4e565b508091505092915050565b60006140a78383613fc1565b905092915050565b6000602082019050919050565b60006140c782613f22565b6140d18185613f2d565b9350836020820285016140e385613f3e565b8060005b8581101561411f5784840389528151614100858261409b565b945061410b836140af565b925060208a019950506001810190506140e7565b50829750879550505050505092915050565b6000602082019050818103600083015261414b81846140bc565b905092915050565b600080fd5b600080fd5b60008083601f84011261417357614172613bca565b5b8235905067ffffffffffffffff8111156141905761418f614153565b5b6020830191508360018202830111156141ac576141ab614158565b5b9250929050565b600080602083850312156141ca576141c9613951565b5b600083013567ffffffffffffffff8111156141e8576141e7613956565b5b6141f48582860161415d565b92509250509250929050565b6142098161395b565b82525050565b60006020820190506142246000830184614200565b92915050565b6000602082840312156142405761423f613951565b5b600061424e84828501613bb5565b91505092915050565b6000806000604084860312156142705761426f613951565b5b600084013567ffffffffffffffff81111561428e5761428d613956565b5b61429a8682870161415d565b935093505060206142ad86828701613bb5565b9150509250925092565b600080604083850312156142ce576142cd613951565b5b600083013567ffffffffffffffff8111156142ec576142eb613956565b5b6142f885828601613c56565b925050602061430985828601613b89565b9150509250929050565b600081519050919050565b600082825260208201905092915050565b6000819050602082019050919050565b600061434b8383613f79565b905092915050565b6000602082019050919050565b600061436b82614313565b614375818561431e565b9350836020820285016143878561432f565b8060005b858110156143c357848403895281516143a4858261433f565b94506143af83614353565b925060208a0199505060018101905061438b565b50829750879550505050505092915050565b600060408201905081810360008301526143ef8185614360565b905081810360208301526144038184614360565b90509392505050565b61441581613a0c565b82525050565b6000602082019050614430600083018461440c565b92915050565b600082825260208201905092915050565b600061445282613f5d565b61445c8185614436565b935061446c818560208601613e73565b61447581613ad7565b840191505092915050565b6000602082019050818103600083015261449a8184614447565b905092915050565b600080600080604085870312156144bc576144bb613951565b5b600085013567ffffffffffffffff8111156144da576144d9613956565b5b6144e68782880161415d565b9450945050602085013567ffffffffffffffff81111561450957614508613956565b5b6145158782880161415d565b925092505092959194509250565b60006101208301600083015161453c6000860182613f4e565b50602083015161454f6020860182613a1e565b50604083015184820360408601526145678282613f79565b915050606083015184820360608601526145818282613f79565b9150506080830151848203608086015261459b8282613f79565b91505060a083015184820360a08601526145b58282613f79565b91505060c08301516145ca60c0860182613f4e565b5060e08301516145dd60e0860182613fb2565b506101008301516145f2610100860182613f4e565b508091505092915050565b600060408201905081810360008301526146178185614523565b90506146266020830184614200565b9392505050565b7f6e6f207772697465207065726d697373696f6e00000000000000000000000000600082015250565b6000614663601383614436565b915061466e8261462d565b602082019050919050565b6000602082019050818103600083015261469281614656565b9050919050565b7f6e6f2072656164207065726d697373696f6e0000000000000000000000000000600082015250565b60006146cf601283614436565b91506146da82614699565b602082019050919050565b600060208201905081810360008301526146fe816146c2565b9050919050565b600081905092915050565b600061471b82613f5d565b6147258185614705565b9350614735818560208601613e73565b80840191505092915050565b6000819050919050565b61475c61475782613b68565b614741565b82525050565b600061476e8285614710565b915061477a828461474b565b6020820191508190509392505050565b600081905092915050565b60006147a082613e57565b6147aa818561478a565b93506147ba818560208601613e73565b80840191505092915050565b60006147d28284614795565b915081905092915050565b7f6661696c656420746f20696e7365727400000000000000000000000000000000600082015250565b6000614813601083614436565b915061481e826147dd565b602082019050919050565b6000602082019050818103600083015261484281614806565b9050919050565b7f4e487b7100000000000000000000000000000000000000000000000000000000600052602260045260246000fd5b6000600282049050600182168061489057607f821691505b6020821081036148a3576148a2614849565b5b50919050565b60008190508160005260206000209050919050565b60006020601f8301049050919050565b600082821b905092915050565b60006008830261490b7fffffffffffffffffffffffffffffffffffffffffffffffffffffffffffffffff826148ce565b61491586836148ce565b95508019841693508086168417925050509392505050565b6000819050919050565b600061495261494d61494884613b68565b61492d565b613b68565b9050919050565b6000819050919050565b61496c83614937565b61498061497882614959565b8484546148db565b825550505050565b600090565b614995614988565b6149a0818484614963565b505050565b5b818110156149c4576149b960008261498d565b6001810190506149a6565b5050565b601f821115614a09576149da816148a9565b6149e3846148be565b810160208510156149f2578190505b614a066149fe856148be565b8301826149a5565b50505b505050565b600082821c905092915050565b6000614a2c60001984600802614a0e565b1980831691505092915050565b6000614a458383614a1b565b9150826002028217905092915050565b614a5e82613e57565b67ffffffffffffffff811115614a7757614a76613ae8565b5b614a818254614878565b614a8c8282856149c8565b600060209050601f831160018114614abf5760008415614aad578287015190505b614ab78582614a39565b865550614b1f565b601f198416614acd866148a9565b60005b82811015614af557848901518255600182019150602085019450602081019050614ad0565b86831015614b125784890151614b0e601f891682614a1b565b8355505b6001600288020188555050505b505050505050565b60008190508160005260206000209050919050565b601f821115614b7d57614b4e81614b27565b614b57846148be565b81016020851015614b66578190505b614b7a614b72856148be565b8301826149a5565b50505b505050565b614b8b82613f5d565b67ffffffffffffffff811115614ba457614ba3613ae8565b5b614bae8254614878565b614bb9828285614b3c565b600060209050601f831160018114614bec5760008415614bda578287015190505b614be48582614a39565b865550614c4c565b601f198416614bfa86614b27565b60005b82811015614c2257848901518255600182019150602085019450602081019050614bfd565b86831015614c3f5784890151614c3b601f891682614a1b565b8355505b6001600288020188555050505b505050505050565b7f4e487b7100000000000000000000000000000000000000000000000000000000600052603260045260246000fd5b6000614c8f8284614710565b915081905092915050565b7f6e6f7420666f756e642061646472657373000000000000000000000000000000600082015250565b6000614cd0601183614436565b9150614cdb82614c9a565b602082019050919050565b60006020820190508181036000830152614cff81614cc3565b9050919050565b7f4e487b7100000000000000000000000000000000000000000000000000000000600052601160045260246000fd5b6000614d4082613b68565b9150614d4b83613b68565b9250828203905081811115614d6357614d62614d06565b5b92915050565b7f4e487b7100000000000000000000000000000000000000000000000000000000600052603160045260246000fd5b6000614da48385614705565b9350614db1838584613c05565b82840190509392505050565b6000614dca828486614d98565b91508190509392505050565b600082905092915050565b614deb8383614dd6565b67ffffffffffffffff811115614e0457614e03613ae8565b5b614e0e8254614878565b614e19828285614b3c565b6000601f831160018114614e485760008415614e36578287013590505b614e408582614a39565b865550614ea8565b601f198416614e5686614b27565b60005b82811015614e7e57848901358255600182019150602085019450602081019050614e59565b86831015614e9b5784890135614e97601f891682614a1b565b8355505b6001600288020188555050505b50505050505050565b600081549050614ec081614878565b9050919050565b60008190508160005260206000209050919050565b818103614eea575050614fc2565b614ef382614eb1565b67ffffffffffffffff811115614f0c57614f0b613ae8565b5b614f168254614878565b614f21828285614b3c565b6000601f831160018114614f505760008415614f3e578287015490505b614f488582614a39565b865550614fbb565b601f198416614f5e87614ec7565b9650614f6986614b27565b60005b82811015614f9157848901548255600182019150600185019450602081019050614f6c565b86831015614fae5784890154614faa601f891682614a1b565b8355505b6001600288020188555050505b5050505050505b565b600081549050614fd381614878565b9050919050565b60008190508160005260206000209050919050565b818103614ffd5750506150d5565b61500682614fc4565b67ffffffffffffffff81111561501f5761501e613ae8565b5b6150298254614878565b6150348282856149c8565b6000601f8311600181146150635760008415615051578287015490505b61505b8582614a39565b8655506150ce565b601f19841661507187614fda565b965061507c866148a9565b60005b828110156150a45784890154825560018201915060018501945060208101905061507f565b868310156150c157848901546150bd601f891682614a1b565b8355505b6001600288020188555050505b5050505050505b565b6000815490506150e681614878565b9050919050565b8181036150fb5750506151d3565b615104826150d7565b67ffffffffffffffff81111561511d5761511c613ae8565b5b6151278254614878565b615132828285614b3c565b6000601f831160018114615161576000841561514f578287015490505b6151598582614a39565b8655506151cc565b601f19841661516f87614b27565b965061517a86614b27565b60005b828110156151a25784890154825560018201915060018501945060208101905061517d565b868310156151bf57848901546151bb601f891682614a1b565b8355505b6001600288020188555050505b5050505050505b56fea26469706673582212201c052f917fbbad765b285d64243f27a5f9491eec6b7f50c0948562f8a3a040c264736f6c634300081c0033",
  "linkReferences": {},
  "deployedLinkReferences": {}
}