{
  "_format": "hh-sol-artifact-1",
  "contractName": "DaoRegistry",
  "sourceName": "contracts/dao-registry/DaoRegistry.sol",
  "abi": [
    {
      "inputs": [
        {
          "internalType": "string",
          "name": "n",
          "type": "string"
        },
        {
          "internalType": "address",
          "name": "state",
          "type": "address"
        },
        {
          "internalType": "address",
          "name": "operator",
          "type": "address"
        }
      ],
      "stateMutability": "nonpayable",
      "type": "constructor"
    },
    {
      "anonymous": false,
      "inputs": [
        {
          "indexed": false,
          "internalType": "address",
          "name": "userAddress",
          "type": "address"
        },
        {
          "indexed": false,
          "internalType": "address payable",
          "name": "relayerAddress",
          "type": "address"
        },
        {
          "indexed": false,
          "internalType": "bytes",
          "name": "functionSignature",
          "type": "bytes"
        }
      ],
      "name": "MetaTransactionExecuted",
      "type": "event"
    },
    {
      "anonymous": false,
      "inputs": [
        {
          "indexed": false,
          "internalType": "address",
          "name": "addr",
          "type": "address"
        }
      ],
      "name": "changeActivityHookEvent",
      "type": "event"
    },
    {
      "anonymous": false,
      "inputs": [
        {
          "indexed": false,
          "internalType": "string",
          "name": "name",
          "type": "string"
        },
        {
          "indexed": false,
          "internalType": "string",
          "name": "value",
          "type": "string"
        },
        {
          "indexed": false,
          "internalType": "address",
          "name": "daoManagerAddress",
          "type": "address"
        }
      ],
      "name": "changeInitialDataEvent",
      "type": "event"
    },
    {
      "anonymous": false,
      "inputs": [
        {
          "indexed": false,
          "internalType": "string",
          "name": "proposalAppName",
          "type": "string"
        },
        {
          "indexed": false,
          "internalType": "uint256",
          "name": "proposalId",
          "type": "uint256"
        }
      ],
      "name": "changeProposalEvent",
      "type": "event"
    },
    {
      "anonymous": false,
      "inputs": [
        {
          "indexed": false,
          "internalType": "bool",
          "name": "check",
          "type": "bool"
        }
      ],
      "name": "setReadyEvent",
      "type": "event"
    },
    {
      "anonymous": false,
      "inputs": [
        {
          "indexed": false,
          "internalType": "address",
          "name": "newRegistry",
          "type": "address"
        }
      ],
      "name": "upgradeEvent",
      "type": "event"
    },
    {
      "anonymous": false,
      "inputs": [
        {
          "indexed": false,
          "internalType": "address",
          "name": "state",
          "type": "address"
        },
        {
          "indexed": false,
          "internalType": "bool",
          "name": "ready",
          "type": "bool"
        }
      ],
      "name": "upgradeHookEvent",
      "type": "event"
    },
    {
      "anonymous": false,
      "inputs": [
        {
          "indexed": false,
          "internalType": "address",
          "name": "addr",
          "type": "address"
        }
      ],
      "name": "withdrawalEvent",
      "type": "event"
    },
    {
      "inputs": [],
      "name": "ERC712_VERSION",
      "outputs": [
        {
          "internalType": "string",
          "name": "",
          "type": "string"
        }
      ],
      "stateMutability": "view",
      "type": "function"
    },
    {
      "inputs": [
        {
          "internalType": "string",
          "name": "name_",
          "type": "string"
        }
      ],
      "name": "addressOfExtension",
      "outputs": [
        {
          "internalType": "address",
          "name": "",
          "type": "address"
        }
      ],
      "stateMutability": "view",
      "type": "function"
    },
    {
      "inputs": [
        {
          "internalType": "string",
          "name": "callee",
          "type": "string"
        },
        {
          "internalType": "address",
          "name": "userAddress",
          "type": "address"
        },
        {
          "internalType": "bytes",
          "name": "functionSignature",
          "type": "bytes"
        },
        {
          "internalType": "bytes32",
          "name": "sigR",
          "type": "bytes32"
        },
        {
          "internalType": "bytes32",
          "name": "sigS",
          "type": "bytes32"
        },
        {
          "internalType": "uint8",
          "name": "sigV",
          "type": "uint8"
        }
      ],
      "name": "executeMetaTransaction",
      "outputs": [
        {
          "internalType": "bytes",
          "name": "",
          "type": "bytes"
        }
      ],
      "stateMutability": "payable",
      "type": "function"
    },
    {
      "inputs": [
        {
          "internalType": "string",
          "name": "proposalAppName",
          "type": "string"
        },
        {
          "internalType": "uint256",
          "name": "proposalId",
          "type": "uint256"
        },
        {
          "internalType": "uint16",
          "name": "voteStatus",
          "type": "uint16"
        }
      ],
      "name": "finishVoting",
      "outputs": [],
      "stateMutability": "nonpayable",
      "type": "function"
    },
    {
      "inputs": [],
      "name": "getBalance",
      "outputs": [
        {
          "internalType": "uint256",
          "name": "",
          "type": "uint256"
        }
      ],
      "stateMutability": "view",
      "type": "function"
    },
    {
      "inputs": [],
      "name": "getChainId",
      "outputs": [
        {
          "internalType": "uint256",
          "name": "id",
          "type": "uint256"
        }
      ],
      "stateMutability": "view",
      "type": "function"
    },
    {
      "inputs": [],
      "name": "getDomainSeperator",
      "outputs": [
        {
          "internalType": "bytes32",
          "name": "",
          "type": "bytes32"
        }
      ],
      "stateMutability": "view",
      "type": "function"
    },
    {
      "inputs": [
        {
          "internalType": "address",
          "name": "addr",
          "type": "address"
        }
      ],
      "name": "getNonce",
      "outputs": [
        {
          "internalType": "uint256",
          "name": "",
          "type": "uint256"
        }
      ],
      "stateMutability": "view",
      "type": "function"
    },
    {
      "inputs": [
        {
          "internalType": "string",
          "name": "proposalAppName",
          "type": "string"
        },
        {
          "internalType": "uint256",
          "name": "proposalId",
          "type": "uint256"
        }
      ],
      "name": "getProposal",
      "outputs": [
        {
          "components": [
            {
              "internalType": "uint256",
              "name": "proposalId",
              "type": "uint256"
            },
            {
              "internalType": "address",
              "name": "proposer",
              "type": "address"
            },
            {
              "internalType": "string",
              "name": "title",
              "type": "string"
            },
            {
              "internalType": "string",
              "name": "proposalAppName",
              "type": "string"
            },
            {
              "internalType": "string",
              "name": "voteAppName",
              "type": "string"
            },
            {
              "internalType": "string",
              "name": "subCategory",
              "type": "string"
            },
            {
              "internalType": "uint256",
              "name": "submittedAt",
              "type": "uint256"
            },
            {
              "internalType": "uint16",
              "name": "voteStatus",
              "type": "uint16"
            },
            {
              "internalType": "uint256",
              "name": "numberOfVotes",
              "type": "uint256"
            }
          ],
          "internalType": "struct ProposalSummary",
          "name": "",
          "type": "tuple"
        }
      ],
      "stateMutability": "view",
      "type": "function"
    },
    {
      "inputs": [],
      "name": "getStateAddr",
      "outputs": [
        {
          "internalType": "address[]",
          "name": "",
          "type": "address[]"
        }
      ],
      "stateMutability": "view",
      "type": "function"
    },
    {
      "inputs": [
        {
          "internalType": "address",
          "name": "userAddress",
          "type": "address"
        },
        {
          "internalType": "bytes",
          "name": "functionSignature",
          "type": "bytes"
        }
      ],
      "name": "getTypedMessageHash",
      "outputs": [
        {
          "internalType": "bytes32",
          "name": "",
          "type": "bytes32"
        }
      ],
      "stateMutability": "view",
      "type": "function"
    },
    {
      "inputs": [],
      "name": "listProposals",
      "outputs": [
        {
          "components": [
            {
              "internalType": "uint256",
              "name": "proposalId",
              "type": "uint256"
            },
            {
              "internalType": "address",
              "name": "proposer",
              "type": "address"
            },
            {
              "internalType": "string",
              "name": "title",
              "type": "string"
            },
            {
              "internalType": "string",
              "name": "proposalAppName",
              "type": "string"
            },
            {
              "internalType": "string",
              "name": "voteAppName",
              "type": "string"
            },
            {
              "internalType": "string",
              "name": "subCategory",
              "type": "string"
            },
            {
              "internalType": "uint256",
              "name": "submittedAt",
              "type": "uint256"
            },
            {
              "internalType": "uint16",
              "name": "voteStatus",
              "type": "uint16"
            },
            {
              "internalType": "uint256",
              "name": "numberOfVotes",
              "type": "uint256"
            }
          ],
          "internalType": "struct ProposalSummary[]",
          "name": "",
          "type": "tuple[]"
        }
      ],
      "stateMutability": "view",
      "type": "function"
    },
    {
      "inputs": [],
      "name": "name",
      "outputs": [
        {
          "internalType": "string",
          "name": "",
          "type": "string"
        }
      ],
      "stateMutability": "view",
      "type": "function"
    },
    {
      "inputs": [],
      "name": "ready",
      "outputs": [
        {
          "internalType": "bool",
          "name": "",
          "type": "bool"
        }
      ],
      "stateMutability": "view",
      "type": "function"
    },
    {
      "inputs": [
        {
          "internalType": "address",
          "name": "forwarder",
          "type": "address"
        }
      ],
      "name": "setForwarder",
      "outputs": [],
      "stateMutability": "nonpayable",
      "type": "function"
    },
    {
      "inputs": [
        {
          "internalType": "bool",
          "name": "check",
          "type": "bool"
        }
      ],
      "name": "setReady",
      "outputs": [],
      "stateMutability": "nonpayable",
      "type": "function"
    },
    {
      "inputs": [
        {
          "components": [
            {
              "internalType": "uint256",
              "name": "proposalId",
              "type": "uint256"
            },
            {
              "internalType": "address",
              "name": "proposer",
              "type": "address"
            },
            {
              "internalType": "string",
              "name": "title",
              "type": "string"
            },
            {
              "internalType": "string",
              "name": "proposalAppName",
              "type": "string"
            },
            {
              "internalType": "string",
              "name": "voteAppName",
              "type": "string"
            },
            {
              "internalType": "string",
              "name": "subCategory",
              "type": "string"
            },
            {
              "internalType": "uint256",
              "name": "submittedAt",
              "type": "uint256"
            },
            {
              "internalType": "uint16",
              "name": "voteStatus",
              "type": "uint16"
            },
            {
              "internalType": "uint256",
              "name": "numberOfVotes",
              "type": "uint256"
            }
          ],
          "internalType": "struct ProposalSummary",
          "name": "proposal",
          "type": "tuple"
        }
      ],
      "name": "submitProposal",
      "outputs": [],
      "stateMutability": "nonpayable",
      "type": "function"
    },
    {
      "inputs": [
        {
          "internalType": "bytes32",
          "name": "messageHash",
          "type": "bytes32"
        }
      ],
      "name": "toTypedMessageHash",
      "outputs": [
        {
          "internalType": "bytes32",
          "name": "",
          "type": "bytes32"
        }
      ],
      "stateMutability": "view",
      "type": "function"
    },
    {
      "inputs": [
        {
          "internalType": "address",
          "name": "state",
          "type": "address"
        }
      ],
      "name": "upgradeHook",
      "outputs": [],
      "stateMutability": "nonpayable",
      "type": "function"
    },
    {
      "inputs": [],
      "name": "version",
      "outputs": [
        {
          "internalType": "string",
          "name": "",
          "type": "string"
        }
      ],
      "stateMutability": "view",
      "type": "function"
    },
    {
      "inputs": [
        {
          "internalType": "string",
          "name": "proposalAppName",
          "type": "string"
        },
        {
          "internalType": "uint256",
          "name": "proposalId",
          "type": "uint256"
        }
      ],
      "name": "voteProposal",
      "outputs": [],
      "stateMutability": "nonpayable",
      "type": "function"
    }
  ],
  "bytecode": "0x608060405234801561001057600080fd5b50604051614a47380380614a478339818101604052810190610032919061074a565b60006040518060400160405280600481526020017f76322e3000000000000000000000000000000000000000000000000000000000815250806000908161007991906109da565b505080600160006101000a81548173ffffffffffffffffffffffffffffffffffffffff021916908373ffffffffffffffffffffffffffffffffffffffff160217905550506100cc836104b360201b60201c565b600073ffffffffffffffffffffffffffffffffffffffff168273ffffffffffffffffffffffffffffffffffffffff161461043b5781600460006101000a81548173ffffffffffffffffffffffffffffffffffffffff021916908373ffffffffffffffffffffffffffffffffffffffff160217905550600460009054906101000a900473ffffffffffffffffffffffffffffffffffffffff1673ffffffffffffffffffffffffffffffffffffffff16639870d7fe306040518263ffffffff1660e01b815260040161019c9190610abb565b600060405180830381600087803b1580156101b657600080fd5b505af11580156101ca573d6000803e3d6000fd5b50505050600460009054906101000a900473ffffffffffffffffffffffffffffffffffffffff1673ffffffffffffffffffffffffffffffffffffffff16639870d7fe826040518263ffffffff1660e01b81526004016102299190610abb565b600060405180830381600087803b15801561024357600080fd5b505af1158015610257573d6000803e3d6000fd5b50505050600460009054906101000a900473ffffffffffffffffffffffffffffffffffffffff1673ffffffffffffffffffffffffffffffffffffffff1663e82936616040518060400160405280600481526020017f4e414d4500000000000000000000000000000000000000000000000000000000815250856040518363ffffffff1660e01b81526004016102ed929190610b20565b600060405180830381600087803b15801561030757600080fd5b505af115801561031b573d6000803e3d6000fd5b50505050600460009054906101000a900473ffffffffffffffffffffffffffffffffffffffff1673ffffffffffffffffffffffffffffffffffffffff16630382731960016040518263ffffffff1660e01b815260040161037b9190610b72565b600060405180830381600087803b15801561039557600080fd5b505af11580156103a9573d6000803e3d6000fd5b50505050600460009054906101000a900473ffffffffffffffffffffffffffffffffffffffff1673ffffffffffffffffffffffffffffffffffffffff1663adf88440336040518263ffffffff1660e01b81526004016104089190610abb565b600060405180830381600087803b15801561042257600080fd5b505af1158015610436573d6000803e3d6000fd5b505050505b7f4a5fda6b7feb3c529c4eec78b1eb7022705b12ce800bbd5116112ec06ed2e0eb6040518060400160405280600481526020017f4e414d450000000000000000000000000000000000000000000000000000000081525084336040516104a393929190610b8d565b60405180910390a1505050610c3e565b6104c2816104c560201b60201c565b50565b6040518060800160405280604f81526020016149f8604f91398051906020012081805190602001206040518060400160405280600181526020017f3100000000000000000000000000000000000000000000000000000000000000815250805190602001203061053961056f60201b60201c565b60001b604051602001610550959493929190610beb565b6040516020818303038152906040528051906020012060028190555050565b600046905090565b6000604051905090565b600080fd5b600080fd5b600080fd5b600080fd5b6000601f19601f8301169050919050565b7f4e487b7100000000000000000000000000000000000000000000000000000000600052604160045260246000fd5b6105de82610595565b810181811067ffffffffffffffff821117156105fd576105fc6105a6565b5b80604052505050565b6000610610610577565b905061061c82826105d5565b919050565b600067ffffffffffffffff82111561063c5761063b6105a6565b5b61064582610595565b9050602081019050919050565b60005b83811015610670578082015181840152602081019050610655565b60008484015250505050565b600061068f61068a84610621565b610606565b9050828152602081018484840111156106ab576106aa610590565b5b6106b6848285610652565b509392505050565b600082601f8301126106d3576106d261058b565b5b81516106e384826020860161067c565b91505092915050565b600073ffffffffffffffffffffffffffffffffffffffff82169050919050565b6000610717826106ec565b9050919050565b6107278161070c565b811461073257600080fd5b50565b6000815190506107448161071e565b92915050565b60008060006060848603121561076357610762610581565b5b600084015167ffffffffffffffff81111561078157610780610586565b5b61078d868287016106be565b935050602061079e86828701610735565b92505060406107af86828701610735565b9150509250925092565b600081519050919050565b7f4e487b7100000000000000000000000000000000000000000000000000000000600052602260045260246000fd5b6000600282049050600182168061080b57607f821691505b60208210810361081e5761081d6107c4565b5b50919050565b60008190508160005260206000209050919050565b60006020601f8301049050919050565b600082821b905092915050565b6000600883026108867fffffffffffffffffffffffffffffffffffffffffffffffffffffffffffffffff82610849565b6108908683610849565b95508019841693508086168417925050509392505050565b6000819050919050565b6000819050919050565b60006108d76108d26108cd846108a8565b6108b2565b6108a8565b9050919050565b6000819050919050565b6108f1836108bc565b6109056108fd826108de565b848454610856565b825550505050565b600090565b61091a61090d565b6109258184846108e8565b505050565b5b818110156109495761093e600082610912565b60018101905061092b565b5050565b601f82111561098e5761095f81610824565b61096884610839565b81016020851015610977578190505b61098b61098385610839565b83018261092a565b50505b505050565b600082821c905092915050565b60006109b160001984600802610993565b1980831691505092915050565b60006109ca83836109a0565b9150826002028217905092915050565b6109e3826107b9565b67ffffffffffffffff8111156109fc576109fb6105a6565b5b610a0682546107f3565b610a1182828561094d565b600060209050601f831160018114610a445760008415610a32578287015190505b610a3c85826109be565b865550610aa4565b601f198416610a5286610824565b60005b82811015610a7a57848901518255600182019150602085019450602081019050610a55565b86831015610a975784890151610a93601f8916826109a0565b8355505b6001600288020188555050505b505050505050565b610ab58161070c565b82525050565b6000602082019050610ad06000830184610aac565b92915050565b600082825260208201905092915050565b6000610af2826107b9565b610afc8185610ad6565b9350610b0c818560208601610652565b610b1581610595565b840191505092915050565b60006040820190508181036000830152610b3a8185610ae7565b90508181036020830152610b4e8184610ae7565b90509392505050565b60008115159050919050565b610b6c81610b57565b82525050565b6000602082019050610b876000830184610b63565b92915050565b60006060820190508181036000830152610ba78186610ae7565b90508181036020830152610bbb8185610ae7565b9050610bca6040830184610aac565b949350505050565b6000819050919050565b610be581610bd2565b82525050565b600060a082019050610c006000830188610bdc565b610c0d6020830187610bdc565b610c1a6040830186610bdc565b610c276060830185610aac565b610c346080830184610bdc565b9695505050505050565b613dab80610c4d6000396000f3fe60806040526004361061012a5760003560e01c80633408e470116100ab5780636defbf801161006f5780636defbf80146103f6578063b9998a2414610421578063db3b35f61461044a578063eae5211414610473578063ef1008d1146104a3578063f95ac8c6146104cc5761012a565b80633408e47014610311578063510240a31461033c57806354fd4d501461036557806355494c3e1461039057806355e4e759146103cd5761012a565b80631d261060116100f25780631d261060146102185780631df6c5f21461024157806320379ee51461027e57806326c7eb1c146102a95780632d0335ab146102d45761012a565b806306fdde031461012f5780630f7e59701461015a5780631034b1c01461018557806312065fe0146101c257806312567bd1146101ed575b600080fd5b34801561013b57600080fd5b50610144610509565b6040516101519190611de8565b60405180910390f35b34801561016657600080fd5b5061016f6105e6565b60405161017c9190611de8565b60405180910390f35b34801561019157600080fd5b506101ac60048036038101906101a79190611e54565b61061f565b6040516101b99190611e90565b60405180910390f35b3480156101ce57600080fd5b506101d7610658565b6040516101e49190611ec4565b60405180910390f35b3480156101f957600080fd5b50610202610660565b60405161020f9190611fcf565b60405180910390f35b34801561022457600080fd5b5061023f600480360381019061023a919061201d565b610799565b005b34801561024d57600080fd5b506102686004803603810190610263919061217f565b610890565b60405161027591906121d7565b60405180910390f35b34801561028a57600080fd5b506102936108a2565b6040516102a09190611e90565b60405180910390f35b3480156102b557600080fd5b506102be6108ac565b6040516102cb9190612404565b60405180910390f35b3480156102e057600080fd5b506102fb60048036038101906102f6919061201d565b610949565b6040516103089190611ec4565b60405180910390f35b34801561031d57600080fd5b50610326610992565b6040516103339190611ec4565b60405180910390f35b34801561034857600080fd5b50610363600480360381019061035e919061247e565b61099a565b005b34801561037157600080fd5b5061037a610b7c565b6040516103879190611de8565b60405180910390f35b34801561039c57600080fd5b506103b760048036038101906103b2919061258e565b610c0e565b6040516103c49190611e90565b60405180910390f35b3480156103d957600080fd5b506103f460048036038101906103ef91906125ea565b610c9d565b005b34801561040257600080fd5b5061040b610e86565b6040516104189190612661565b60405180910390f35b34801561042d57600080fd5b506104486004803603810190610443919061201d565b610e9d565b005b34801561045657600080fd5b50610471600480360381019061046c91906126a8565b610f71565b005b61048d6004803603810190610488919061270e565b611015565b60405161049a9190612828565b60405180910390f35b3480156104af57600080fd5b506104ca60048036038101906104c591906129a4565b611370565b005b3480156104d857600080fd5b506104f360048036038101906104ee91906125ea565b611458565b6040516105009190612ac7565b60405180910390f35b6060600460009054906101000a900473ffffffffffffffffffffffffffffffffffffffff1673ffffffffffffffffffffffffffffffffffffffff1663cefe2acc6040518060400160405280600481526020017f4e414d45000000000000000000000000000000000000000000000000000000008152506040518263ffffffff1660e01b815260040161059b9190611de8565b600060405180830381865afa1580156105b8573d6000803e3d6000fd5b505050506040513d6000823e3d601f19601f820116820180604052508101906105e19190612b59565b905090565b6040518060400160405280600181526020017f310000000000000000000000000000000000000000000000000000000000000081525081565b60006106296108a2565b8260405160200161063b929190612c1a565b604051602081830303815290604052805190602001209050919050565b600047905090565b60606000600267ffffffffffffffff81111561067f5761067e612054565b5b6040519080825280602002602001820160405280156106ad5781602001602082028036833780820191505090505b509050600760019054906101000a900473ffffffffffffffffffffffffffffffffffffffff16816000815181106106e7576106e6612c51565b5b602002602001019073ffffffffffffffffffffffffffffffffffffffff16908173ffffffffffffffffffffffffffffffffffffffff1681525050600460009054906101000a900473ffffffffffffffffffffffffffffffffffffffff168160018151811061075857610757612c51565b5b602002602001019073ffffffffffffffffffffffffffffffffffffffff16908173ffffffffffffffffffffffffffffffffffffffff16815250508091505090565b600760009054906101000a900460ff16156107e9576040517f08c379a00000000000000000000000000000000000000000000000000000000081526004016107e090612ccc565b60405180910390fd5b6001600760006101000a81548160ff02191690831515021790555080600460006101000a81548173ffffffffffffffffffffffffffffffffffffffff021916908373ffffffffffffffffffffffffffffffffffffffff1602179055507fa95ae080cb61f0eb5969d5d0e0b62b35fb591abc2731c20a81485b2f4f08595a81600760009054906101000a900460ff16604051610885929190612cec565b60405180910390a150565b600061089b82611512565b9050919050565b6000600254905090565b6060600460009054906101000a900473ffffffffffffffffffffffffffffffffffffffff1673ffffffffffffffffffffffffffffffffffffffff166326c7eb1c6040518163ffffffff1660e01b8152600401600060405180830381865afa15801561091b573d6000803e3d6000fd5b505050506040513d6000823e3d601f19601f820116820180604052508101906109449190612f8a565b905090565b6000600360008373ffffffffffffffffffffffffffffffffffffffff1673ffffffffffffffffffffffffffffffffffffffff168152602001908152602001600020549050919050565b600046905090565b600080600460009054906101000a900473ffffffffffffffffffffffffffffffffffffffff1673ffffffffffffffffffffffffffffffffffffffff1663f95ac8c686866040518363ffffffff1660e01b81526004016109fa929190612fd3565b600060405180830381865afa158015610a17573d6000803e3d6000fd5b505050506040513d6000823e3d601f19601f82011682018060405250810190610a409190613018565b9150915080610a84576040517f08c379a0000000000000000000000000000000000000000000000000000000008152600401610a7b906130c0565b60405180910390fd5b828260e0019061ffff16908161ffff1681525050600460009054906101000a900473ffffffffffffffffffffffffffffffffffffffff1673ffffffffffffffffffffffffffffffffffffffff166313bf7eb2836040518263ffffffff1660e01b8152600401610af39190612ac7565b6000604051808303816000875af1158015610b12573d6000803e3d6000fd5b505050506040513d6000823e3d601f19601f82011682018060405250810190610b3b9190613150565b507fd9d44f830057eef403b108eae33b230dd4785675e9a85291086e65c363f69e458585604051610b6d929190612fd3565b60405180910390a15050505050565b606060008054610b8b906131c8565b80601f0160208091040260200160405190810160405280929190818152602001828054610bb7906131c8565b8015610c045780601f10610bd957610100808354040283529160200191610c04565b820191906000526020600020905b815481529060010190602001808311610be757829003601f168201915b5050505050905090565b6000806040518060600160405280600360008773ffffffffffffffffffffffffffffffffffffffff1673ffffffffffffffffffffffffffffffffffffffff1681526020019081526020016000205481526020018573ffffffffffffffffffffffffffffffffffffffff168152602001848152509050610c94610c8f826115c5565b61061f565b91505092915050565b600080600460009054906101000a900473ffffffffffffffffffffffffffffffffffffffff1673ffffffffffffffffffffffffffffffffffffffff1663f95ac8c685856040518363ffffffff1660e01b8152600401610cfd929190612fd3565b600060405180830381865afa158015610d1a573d6000803e3d6000fd5b505050506040513d6000823e3d601f19601f82011682018060405250810190610d439190613018565b9150915080610d87576040517f08c379a0000000000000000000000000000000000000000000000000000000008152600401610d7e906130c0565b60405180910390fd5b6001826101000151610d999190613228565b82610100018181525050600460009054906101000a900473ffffffffffffffffffffffffffffffffffffffff1673ffffffffffffffffffffffffffffffffffffffff166313bf7eb2836040518263ffffffff1660e01b8152600401610dfe9190612ac7565b6000604051808303816000875af1158015610e1d573d6000803e3d6000fd5b505050506040513d6000823e3d601f19601f82011682018060405250810190610e469190613150565b507fd9d44f830057eef403b108eae33b230dd4785675e9a85291086e65c363f69e458484604051610e78929190612fd3565b60405180910390a150505050565b6000600760009054906101000a900460ff16905090565b600160009054906101000a900473ffffffffffffffffffffffffffffffffffffffff1673ffffffffffffffffffffffffffffffffffffffff163373ffffffffffffffffffffffffffffffffffffffff1614610f2d576040517f08c379a0000000000000000000000000000000000000000000000000000000008152600401610f24906132ce565b60405180910390fd5b80600160006101000a81548173ffffffffffffffffffffffffffffffffffffffff021916908373ffffffffffffffffffffffffffffffffffffffff16021790555050565b600760009054906101000a900460ff1615610fc1576040517f08c379a0000000000000000000000000000000000000000000000000000000008152600401610fb89061333a565b60405180910390fd5b80600760006101000a81548160ff0219169083151502179055507fef4ad5c5d8d806adca5a37b004e802d773a83a01b26294b4c0346da5c4145bfe8160405161100a9190612661565b60405180910390a150565b606060004690506103e981148061102d575061201981145b8061103a57506201408381145b156110b2573373ffffffffffffffffffffffffffffffffffffffff168773ffffffffffffffffffffffffffffffffffffffff16146110ad576040517f08c379a00000000000000000000000000000000000000000000000000000000081526004016110a4906133cc565b60405180910390fd5b61123e565b60006040518060600160405280600360008b73ffffffffffffffffffffffffffffffffffffffff1673ffffffffffffffffffffffffffffffffffffffff1681526020019081526020016000205481526020018973ffffffffffffffffffffffffffffffffffffffff168152602001888152509050611133888288888861162d565b611172576040517f08c379a00000000000000000000000000000000000000000000000000000000081526004016111699061345e565b60405180910390fd5b6001600360008a73ffffffffffffffffffffffffffffffffffffffff1673ffffffffffffffffffffffffffffffffffffffff168152602001908152602001600020546111be9190613228565b600360008a73ffffffffffffffffffffffffffffffffffffffff1673ffffffffffffffffffffffffffffffffffffffff168152602001908152602001600020819055507f5845892132946850460bff5a0083f71031bc5bf9aadcd40f1de79423eac9b10b8833896040516112349392919061349f565b60405180910390a1505b600061124989611512565b90506000808273ffffffffffffffffffffffffffffffffffffffff1689348c60405160200161127a93929190613582565b60405160208183030381529060405260405161129691906135bb565b6000604051808303816000865af19150503d80600081146112d3576040519150601f19603f3d011682016040523d82523d6000602084013e6112d8565b606091505b509150915081816040516020016112ef91906135bb565b60405160208183030381529060405260405160200161130e919061361e565b6040516020818303038152906040529061135e576040517f08c379a00000000000000000000000000000000000000000000000000000000081526004016113559190611de8565b60405180910390fd5b50809450505050509695505050505050565b600460009054906101000a900473ffffffffffffffffffffffffffffffffffffffff1673ffffffffffffffffffffffffffffffffffffffff166370e58ac4826040518263ffffffff1660e01b81526004016113cb9190612ac7565b6000604051808303816000875af11580156113ea573d6000803e3d6000fd5b505050506040513d6000823e3d601f19601f820116820180604052508101906114139190613150565b507fd9d44f830057eef403b108eae33b230dd4785675e9a85291086e65c363f69e458160600151826000015160405161144d929190612fd3565b60405180910390a150565b611460611cf2565b6000600460009054906101000a900473ffffffffffffffffffffffffffffffffffffffff1673ffffffffffffffffffffffffffffffffffffffff1663f95ac8c685856040518363ffffffff1660e01b81526004016114bf929190612fd3565b600060405180830381865afa1580156114dc573d6000803e3d6000fd5b505050506040513d6000823e3d601f19601f820116820180604052508101906115059190613018565b5090508091505092915050565b600080600460009054906101000a900473ffffffffffffffffffffffffffffffffffffffff1673ffffffffffffffffffffffffffffffffffffffff1663c22707ee846040518263ffffffff1660e01b81526004016115709190611de8565b600060405180830381865afa15801561158d573d6000803e3d6000fd5b505050506040513d6000823e3d601f19601f820116820180604052508101906115b69190613721565b90508060400151915050919050565b6000604051806080016040528060438152602001613d33604391398051906020012082600001518360200151846040015180519060200120604051602001611610949392919061376a565b604051602081830303815290604052805190602001209050919050565b60008073ffffffffffffffffffffffffffffffffffffffff168673ffffffffffffffffffffffffffffffffffffffff160361169d576040517f08c379a000000000000000000000000000000000000000000000000000000000815260040161169490613821565b60405180910390fd5b60006116b06116ab876115c5565b61061f565b90506000600182858888604051600081526020016040526040516116d79493929190613850565b6020604051602081039080840390855afa1580156116f9573d6000803e3d6000fd5b5050506020604051035190508073ffffffffffffffffffffffffffffffffffffffff168873ffffffffffffffffffffffffffffffffffffffff161461173d826117e4565b611746846119c0565b60405160200161175792919061395e565b604051602081830303815290604052906117a7576040517f08c379a000000000000000000000000000000000000000000000000000000000815260040161179e9190611de8565b60405180910390fd5b508073ffffffffffffffffffffffffffffffffffffffff168873ffffffffffffffffffffffffffffffffffffffff16149250505095945050505050565b60606000602867ffffffffffffffff81111561180357611802612054565b5b6040519080825280601f01601f1916602001820160405280156118355781602001600182028036833780820191505090505b50905060005b60148110156119975760008160136118539190613998565b600861185f91906139cc565b600261186b9190613b41565b8573ffffffffffffffffffffffffffffffffffffffff1661188c9190613bbb565b60f81b9050600060108260f81c6118a39190613bec565b60f81b905060008160f81c60106118ba9190613c1d565b8360f81c6118c89190613c5a565b60f81b90506118d682611cac565b858560026118e491906139cc565b815181106118f5576118f4612c51565b5b60200101907effffffffffffffffffffffffffffffffffffffffffffffffffffffffffffff1916908160001a90535061192d81611cac565b85600186600261193d91906139cc565b6119479190613228565b8151811061195857611957612c51565b5b60200101907effffffffffffffffffffffffffffffffffffffffffffffffffffffffffffff1916908160001a905350505050808060010191505061183b565b50806040516020016119a99190613cdb565b604051602081830303815290604052915050919050565b606060006040518060400160405280601081526020017f30313233343536373839616263646566000000000000000000000000000000008152509050600060026020611a0c9190613c1d565b6002611a189190613cfd565b60ff1667ffffffffffffffff811115611a3457611a33612054565b5b6040519080825280601f01601f191660200182016040528015611a665781602001600182028036833780820191505090505b5090507f300000000000000000000000000000000000000000000000000000000000000081600081518110611a9e57611a9d612c51565b5b60200101907effffffffffffffffffffffffffffffffffffffffffffffffffffffffffffff1916908160001a9053507f780000000000000000000000000000000000000000000000000000000000000081600181518110611b0257611b01612c51565b5b60200101907effffffffffffffffffffffffffffffffffffffffffffffffffffffffffffff1916908160001a90535060005b602060ff16811015611ca157826004868360208110611b5657611b55612c51565b5b1a60f81b7effffffffffffffffffffffffffffffffffffffffffffffffffffffffffffff1916901c60f81c60ff1681518110611b9557611b94612c51565b5b602001015160f81c60f81b82600283611bae91906139cc565b6002611bba9190613228565b81518110611bcb57611bca612c51565b5b60200101907effffffffffffffffffffffffffffffffffffffffffffffffffffffffffffff1916908160001a90535082600f60f81b868360208110611c1357611c12612c51565b5b1a60f81b1660f81c60ff1681518110611c2f57611c2e612c51565b5b602001015160f81c60f81b82600283611c4891906139cc565b6003611c549190613228565b81518110611c6557611c64612c51565b5b60200101907effffffffffffffffffffffffffffffffffffffffffffffffffffffffffffff1916908160001a9053508080600101915050611b34565b508092505050919050565b6000600a8260f81c60ff161015611cd75760308260f81c611ccd9190613cfd565b60f81b9050611ced565b60578260f81c611ce79190613cfd565b60f81b90505b919050565b60405180610120016040528060008152602001600073ffffffffffffffffffffffffffffffffffffffff1681526020016060815260200160608152602001606081526020016060815260200160008152602001600061ffff168152602001600081525090565b600081519050919050565b600082825260208201905092915050565b60005b83811015611d92578082015181840152602081019050611d77565b60008484015250505050565b6000601f19601f8301169050919050565b6000611dba82611d58565b611dc48185611d63565b9350611dd4818560208601611d74565b611ddd81611d9e565b840191505092915050565b60006020820190508181036000830152611e028184611daf565b905092915050565b6000604051905090565b600080fd5b600080fd5b6000819050919050565b611e3181611e1e565b8114611e3c57600080fd5b50565b600081359050611e4e81611e28565b92915050565b600060208284031215611e6a57611e69611e14565b5b6000611e7884828501611e3f565b91505092915050565b611e8a81611e1e565b82525050565b6000602082019050611ea56000830184611e81565b92915050565b6000819050919050565b611ebe81611eab565b82525050565b6000602082019050611ed96000830184611eb5565b92915050565b600081519050919050565b600082825260208201905092915050565b6000819050602082019050919050565b600073ffffffffffffffffffffffffffffffffffffffff82169050919050565b6000611f3682611f0b565b9050919050565b611f4681611f2b565b82525050565b6000611f588383611f3d565b60208301905092915050565b6000602082019050919050565b6000611f7c82611edf565b611f868185611eea565b9350611f9183611efb565b8060005b83811015611fc2578151611fa98882611f4c565b9750611fb483611f64565b925050600181019050611f95565b5085935050505092915050565b60006020820190508181036000830152611fe98184611f71565b905092915050565b611ffa81611f2b565b811461200557600080fd5b50565b60008135905061201781611ff1565b92915050565b60006020828403121561203357612032611e14565b5b600061204184828501612008565b91505092915050565b600080fd5b600080fd5b7f4e487b7100000000000000000000000000000000000000000000000000000000600052604160045260246000fd5b61208c82611d9e565b810181811067ffffffffffffffff821117156120ab576120aa612054565b5b80604052505050565b60006120be611e0a565b90506120ca8282612083565b919050565b600067ffffffffffffffff8211156120ea576120e9612054565b5b6120f382611d9e565b9050602081019050919050565b82818337600083830152505050565b600061212261211d846120cf565b6120b4565b90508281526020810184848401111561213e5761213d61204f565b5b612149848285612100565b509392505050565b600082601f8301126121665761216561204a565b5b813561217684826020860161210f565b91505092915050565b60006020828403121561219557612194611e14565b5b600082013567ffffffffffffffff8111156121b3576121b2611e19565b5b6121bf84828501612151565b91505092915050565b6121d181611f2b565b82525050565b60006020820190506121ec60008301846121c8565b92915050565b600081519050919050565b600082825260208201905092915050565b6000819050602082019050919050565b61222781611eab565b82525050565b600082825260208201905092915050565b600061224982611d58565b612253818561222d565b9350612263818560208601611d74565b61226c81611d9e565b840191505092915050565b600061ffff82169050919050565b61228e81612277565b82525050565b6000610120830160008301516122ad600086018261221e565b5060208301516122c06020860182611f3d565b50604083015184820360408601526122d8828261223e565b915050606083015184820360608601526122f2828261223e565b9150506080830151848203608086015261230c828261223e565b91505060a083015184820360a0860152612326828261223e565b91505060c083015161233b60c086018261221e565b5060e083015161234e60e0860182612285565b5061010083015161236361010086018261221e565b508091505092915050565b600061237a8383612294565b905092915050565b6000602082019050919050565b600061239a826121f2565b6123a481856121fd565b9350836020820285016123b68561220e565b8060005b858110156123f257848403895281516123d3858261236e565b94506123de83612382565b925060208a019950506001810190506123ba565b50829750879550505050505092915050565b6000602082019050818103600083015261241e818461238f565b905092915050565b61242f81611eab565b811461243a57600080fd5b50565b60008135905061244c81612426565b92915050565b61245b81612277565b811461246657600080fd5b50565b60008135905061247881612452565b92915050565b60008060006060848603121561249757612496611e14565b5b600084013567ffffffffffffffff8111156124b5576124b4611e19565b5b6124c186828701612151565b93505060206124d28682870161243d565b92505060406124e386828701612469565b9150509250925092565b600067ffffffffffffffff82111561250857612507612054565b5b61251182611d9e565b9050602081019050919050565b600061253161252c846124ed565b6120b4565b90508281526020810184848401111561254d5761254c61204f565b5b612558848285612100565b509392505050565b600082601f8301126125755761257461204a565b5b813561258584826020860161251e565b91505092915050565b600080604083850312156125a5576125a4611e14565b5b60006125b385828601612008565b925050602083013567ffffffffffffffff8111156125d4576125d3611e19565b5b6125e085828601612560565b9150509250929050565b6000806040838503121561260157612600611e14565b5b600083013567ffffffffffffffff81111561261f5761261e611e19565b5b61262b85828601612151565b925050602061263c8582860161243d565b9150509250929050565b60008115159050919050565b61265b81612646565b82525050565b60006020820190506126766000830184612652565b92915050565b61268581612646565b811461269057600080fd5b50565b6000813590506126a28161267c565b92915050565b6000602082840312156126be576126bd611e14565b5b60006126cc84828501612693565b91505092915050565b600060ff82169050919050565b6126eb816126d5565b81146126f657600080fd5b50565b600081359050612708816126e2565b92915050565b60008060008060008060c0878903121561272b5761272a611e14565b5b600087013567ffffffffffffffff81111561274957612748611e19565b5b61275589828a01612151565b965050602061276689828a01612008565b955050604087013567ffffffffffffffff81111561278757612786611e19565b5b61279389828a01612560565b94505060606127a489828a01611e3f565b93505060806127b589828a01611e3f565b92505060a06127c689828a016126f9565b9150509295509295509295565b600081519050919050565b600082825260208201905092915050565b60006127fa826127d3565b61280481856127de565b9350612814818560208601611d74565b61281d81611d9e565b840191505092915050565b6000602082019050818103600083015261284281846127ef565b905092915050565b600080fd5b600080fd5b6000610120828403121561286b5761286a61284a565b5b6128766101206120b4565b905060006128868482850161243d565b600083015250602061289a84828501612008565b602083015250604082013567ffffffffffffffff8111156128be576128bd61284f565b5b6128ca84828501612151565b604083015250606082013567ffffffffffffffff8111156128ee576128ed61284f565b5b6128fa84828501612151565b606083015250608082013567ffffffffffffffff81111561291e5761291d61284f565b5b61292a84828501612151565b60808301525060a082013567ffffffffffffffff81111561294e5761294d61284f565b5b61295a84828501612151565b60a08301525060c061296e8482850161243d565b60c08301525060e061298284828501612469565b60e0830152506101006129978482850161243d565b6101008301525092915050565b6000602082840312156129ba576129b9611e14565b5b600082013567ffffffffffffffff8111156129d8576129d7611e19565b5b6129e484828501612854565b91505092915050565b600061012083016000830151612a06600086018261221e565b506020830151612a196020860182611f3d565b5060408301518482036040860152612a31828261223e565b91505060608301518482036060860152612a4b828261223e565b91505060808301518482036080860152612a65828261223e565b91505060a083015184820360a0860152612a7f828261223e565b91505060c0830151612a9460c086018261221e565b5060e0830151612aa760e0860182612285565b50610100830151612abc61010086018261221e565b508091505092915050565b60006020820190508181036000830152612ae181846129ed565b905092915050565b6000612afc612af7846120cf565b6120b4565b905082815260208101848484011115612b1857612b1761204f565b5b612b23848285611d74565b509392505050565b600082601f830112612b4057612b3f61204a565b5b8151612b50848260208601612ae9565b91505092915050565b600060208284031215612b6f57612b6e611e14565b5b600082015167ffffffffffffffff811115612b8d57612b8c611e19565b5b612b9984828501612b2b565b91505092915050565b600081905092915050565b7f1901000000000000000000000000000000000000000000000000000000000000600082015250565b6000612be3600283612ba2565b9150612bee82612bad565b600282019050919050565b6000819050919050565b612c14612c0f82611e1e565b612bf9565b82525050565b6000612c2582612bd6565b9150612c318285612c03565b602082019150612c418284612c03565b6020820191508190509392505050565b7f4e487b7100000000000000000000000000000000000000000000000000000000600052603260045260246000fd5b7f69742077617320616c726561647920696e697469616c697a6564000000000000600082015250565b6000612cb6601a83611d63565b9150612cc182612c80565b602082019050919050565b60006020820190508181036000830152612ce581612ca9565b9050919050565b6000604082019050612d0160008301856121c8565b612d0e6020830184612652565b9392505050565b600067ffffffffffffffff821115612d3057612d2f612054565b5b602082029050602081019050919050565b600080fd5b600081519050612d5581612426565b92915050565b600081519050612d6a81611ff1565b92915050565b600081519050612d7f81612452565b92915050565b60006101208284031215612d9c57612d9b61284a565b5b612da76101206120b4565b90506000612db784828501612d46565b6000830152506020612dcb84828501612d5b565b602083015250604082015167ffffffffffffffff811115612def57612dee61284f565b5b612dfb84828501612b2b565b604083015250606082015167ffffffffffffffff811115612e1f57612e1e61284f565b5b612e2b84828501612b2b565b606083015250608082015167ffffffffffffffff811115612e4f57612e4e61284f565b5b612e5b84828501612b2b565b60808301525060a082015167ffffffffffffffff811115612e7f57612e7e61284f565b5b612e8b84828501612b2b565b60a08301525060c0612e9f84828501612d46565b60c08301525060e0612eb384828501612d70565b60e083015250610100612ec884828501612d46565b6101008301525092915050565b6000612ee8612ee384612d15565b6120b4565b90508083825260208201905060208402830185811115612f0b57612f0a612d41565b5b835b81811015612f5257805167ffffffffffffffff811115612f3057612f2f61204a565b5b808601612f3d8982612d85565b85526020850194505050602081019050612f0d565b5050509392505050565b600082601f830112612f7157612f7061204a565b5b8151612f81848260208601612ed5565b91505092915050565b600060208284031215612fa057612f9f611e14565b5b600082015167ffffffffffffffff811115612fbe57612fbd611e19565b5b612fca84828501612f5c565b91505092915050565b60006040820190508181036000830152612fed8185611daf565b9050612ffc6020830184611eb5565b9392505050565b6000815190506130128161267c565b92915050565b6000806040838503121561302f5761302e611e14565b5b600083015167ffffffffffffffff81111561304d5761304c611e19565b5b61305985828601612d85565b925050602061306a85828601613003565b9150509250929050565b7f756e6b6e6f776e2070726f706f73616c00000000000000000000000000000000600082015250565b60006130aa601083611d63565b91506130b582613074565b602082019050919050565b600060208201905081810360008301526130d98161309d565b9050919050565b60006130f36130ee846124ed565b6120b4565b90508281526020810184848401111561310f5761310e61204f565b5b61311a848285611d74565b509392505050565b600082601f8301126131375761313661204a565b5b81516131478482602086016130e0565b91505092915050565b60006020828403121561316657613165611e14565b5b600082015167ffffffffffffffff81111561318457613183611e19565b5b61319084828501613122565b91505092915050565b7f4e487b7100000000000000000000000000000000000000000000000000000000600052602260045260246000fd5b600060028204905060018216806131e057607f821691505b6020821081036131f3576131f2613199565b5b50919050565b7f4e487b7100000000000000000000000000000000000000000000000000000000600052601160045260246000fd5b600061323382611eab565b915061323e83611eab565b9250828201905080821115613256576132556131f9565b5b92915050565b7f6974206d7573742062652063616c6c6564206279207468652063757272656e7460008201527f20666f7277617264657200000000000000000000000000000000000000000000602082015250565b60006132b8602a83611d63565b91506132c38261325c565b604082019050919050565b600060208201905081810360008301526132e7816132ab565b9050919050565b7f69742077617320616c7265616479207265616479000000000000000000000000600082015250565b6000613324601483611d63565b915061332f826132ee565b602082019050919050565b6000602082019050818103600083015261335381613317565b9050919050565b7f73656e646572206d7573742062652073616d652077697468207573657241646460008201527f7265737300000000000000000000000000000000000000000000000000000000602082015250565b60006133b6602483611d63565b91506133c18261335a565b604082019050919050565b600060208201905081810360008301526133e5816133a9565b9050919050565b7f7369676e657220616e64207369676e617475726520646f206e6f74206d61746360008201527f6800000000000000000000000000000000000000000000000000000000000000602082015250565b6000613448602183611d63565b9150613453826133ec565b604082019050919050565b600060208201905081810360008301526134778161343b565b9050919050565b600061348982611f0b565b9050919050565b6134998161347e565b82525050565b60006060820190506134b460008301866121c8565b6134c16020830185613490565b81810360408301526134d381846127ef565b9050949350505050565b600081905092915050565b60006134f3826127d3565b6134fd81856134dd565b935061350d818560208601611d74565b80840191505092915050565b6000819050919050565b61353461352f82611eab565b613519565b82525050565b60008160601b9050919050565b60006135528261353a565b9050919050565b600061356482613547565b9050919050565b61357c61357782611f2b565b613559565b82525050565b600061358e82866134e8565b915061359a8285613523565b6020820191506135aa828461356b565b601482019150819050949350505050565b60006135c782846134e8565b915081905092915050565b7f66756e6374696f6e2063616c6c20686173206265656e206661696c65643b2000600082015250565b6000613608601f83612ba2565b9150613613826135d2565b601f82019050919050565b6000613629826135fb565b915061363582846134e8565b915081905092915050565b6004811061364d57600080fd5b50565b60008151905061365f81613640565b92915050565b600060c0828403121561367b5761367a61284a565b5b61368560c06120b4565b9050600082015167ffffffffffffffff8111156136a5576136a461284f565b5b6136b184828501612b2b565b60008301525060206136c584828501612d46565b60208301525060406136d984828501612d5b565b60408301525060606136ed84828501612d46565b606083015250608061370184828501612d46565b60808301525060a061371584828501613650565b60a08301525092915050565b60006020828403121561373757613736611e14565b5b600082015167ffffffffffffffff81111561375557613754611e19565b5b61376184828501613665565b91505092915050565b600060808201905061377f6000830187611e81565b61378c6020830186611eb5565b61379960408301856121c8565b6137a66060830184611e81565b95945050505050565b7f4e61746976654d6574615472616e73616374696f6e3a20494e56414c49445f5360008201527f49474e4552000000000000000000000000000000000000000000000000000000602082015250565b600061380b602583611d63565b9150613816826137af565b604082019050919050565b6000602082019050818103600083015261383a816137fe565b9050919050565b61384a816126d5565b82525050565b60006080820190506138656000830187611e81565b6138726020830186613841565b61387f6040830185611e81565b61388c6060830184611e81565b95945050505050565b7f6d69736d61746368656420616464726573733b00000000000000000000000000600082015250565b60006138cb601383612ba2565b91506138d682613895565b601382019050919050565b60006138ec82611d58565b6138f68185612ba2565b9350613906818560208601611d74565b80840191505092915050565b7f2c20000000000000000000000000000000000000000000000000000000000000600082015250565b6000613948600283612ba2565b915061395382613912565b600282019050919050565b6000613969826138be565b915061397582856138e1565b91506139808261393b565b915061398c82846138e1565b91508190509392505050565b60006139a382611eab565b91506139ae83611eab565b92508282039050818111156139c6576139c56131f9565b5b92915050565b60006139d782611eab565b91506139e283611eab565b92508282026139f081611eab565b91508282048414831517613a0757613a066131f9565b5b5092915050565b60008160011c9050919050565b6000808291508390505b6001851115613a6557808604811115613a4157613a406131f9565b5b6001851615613a505780820291505b8081029050613a5e85613a0e565b9450613a25565b94509492505050565b600082613a7e5760019050613b3a565b81613a8c5760009050613b3a565b8160018114613aa25760028114613aac57613adb565b6001915050613b3a565b60ff841115613abe57613abd6131f9565b5b8360020a915084821115613ad557613ad46131f9565b5b50613b3a565b5060208310610133831016604e8410600b8410161715613b105782820a905083811115613b0b57613b0a6131f9565b5b613b3a565b613b1d8484846001613a1b565b92509050818404811115613b3457613b336131f9565b5b81810290505b9392505050565b6000613b4c82611eab565b9150613b5783611eab565b9250613b847fffffffffffffffffffffffffffffffffffffffffffffffffffffffffffffffff8484613a6e565b905092915050565b7f4e487b7100000000000000000000000000000000000000000000000000000000600052601260045260246000fd5b6000613bc682611eab565b9150613bd183611eab565b925082613be157613be0613b8c565b5b828204905092915050565b6000613bf7826126d5565b9150613c02836126d5565b925082613c1257613c11613b8c565b5b828204905092915050565b6000613c28826126d5565b9150613c33836126d5565b9250828202613c41816126d5565b9150808214613c5357613c526131f9565b5b5092915050565b6000613c65826126d5565b9150613c70836126d5565b9250828203905060ff811115613c8957613c886131f9565b5b92915050565b7f3078000000000000000000000000000000000000000000000000000000000000600082015250565b6000613cc5600283612ba2565b9150613cd082613c8f565b600282019050919050565b6000613ce682613cb8565b9150613cf282846134e8565b915081905092915050565b6000613d08826126d5565b9150613d13836126d5565b9250828201905060ff811115613d2c57613d2b6131f9565b5b9291505056fe4d6574615472616e73616374696f6e2875696e74323536206e6f6e63652c616464726573732066726f6d2c62797465732066756e6374696f6e5369676e617475726529a2646970667358221220d2ae07f94c14020e94f7a28efb2040f822db1dfe360e9b36ff0d67efa28fa6bb64736f6c634300081c0033454950373132446f6d61696e28737472696e67206e616d652c737472696e672076657273696f6e2c6164647265737320766572696679696e67436f6e74726163742c627974657333322073616c7429",
  "linkReferences": {},
  "deployedLinkReferences": {}
}