{
  "_format": "hh-sol-artifact-1",
  "contractName": "DaoRegistry",
  "sourceName": "contracts/dao-registry/DaoRegistry.sol",
  "abi": [
    {
      "inputs": [
        {
          "internalType": "string",
          "name": "n",
          "type": "string"
        },
        {
          "internalType": "address",
          "name": "state",
          "type": "address"
        },
        {
          "internalType": "address",
          "name": "operator",
          "type": "address"
        }
      ],
      "stateMutability": "nonpayable",
      "type": "constructor"
    },
    {
      "anonymous": false,
      "inputs": [
        {
          "indexed": false,
          "internalType": "address",
          "name": "userAddress",
          "type": "address"
        },
        {
          "indexed": false,
          "internalType": "address payable",
          "name": "relayerAddress",
          "type": "address"
        },
        {
          "indexed": false,
          "internalType": "bytes",
          "name": "functionSignature",
          "type": "bytes"
        }
      ],
      "name": "MetaTransactionExecuted",
      "type": "event"
    },
    {
      "anonymous": false,
      "inputs": [
        {
          "indexed": false,
          "internalType": "address",
          "name": "addr",
          "type": "address"
        }
      ],
      "name": "changeActivityHookEvent",
      "type": "event"
    },
    {
      "anonymous": false,
      "inputs": [
        {
          "indexed": false,
          "internalType": "string",
          "name": "name",
          "type": "string"
        },
        {
          "indexed": false,
          "internalType": "string",
          "name": "value",
          "type": "string"
        },
        {
          "indexed": false,
          "internalType": "address",
          "name": "daoManagerAddress",
          "type": "address"
        }
      ],
      "name": "changeInitialDataEvent",
      "type": "event"
    },
    {
      "anonymous": false,
      "inputs": [
        {
          "indexed": false,
          "internalType": "string",
          "name": "proposalAppName",
          "type": "string"
        },
        {
          "indexed": false,
          "internalType": "uint256",
          "name": "proposalId",
          "type": "uint256"
        }
      ],
      "name": "changeProposalEvent",
      "type": "event"
    },
    {
      "anonymous": false,
      "inputs": [
        {
          "indexed": false,
          "internalType": "bool",
          "name": "check",
          "type": "bool"
        }
      ],
      "name": "setReadyEvent",
      "type": "event"
    },
    {
      "anonymous": false,
      "inputs": [
        {
          "indexed": false,
          "internalType": "address",
          "name": "newRegistry",
          "type": "address"
        }
      ],
      "name": "upgradeEvent",
      "type": "event"
    },
    {
      "anonymous": false,
      "inputs": [
        {
          "indexed": false,
          "internalType": "address",
          "name": "state",
          "type": "address"
        },
        {
          "indexed": false,
          "internalType": "bool",
          "name": "ready",
          "type": "bool"
        }
      ],
      "name": "upgradeHookEvent",
      "type": "event"
    },
    {
      "anonymous": false,
      "inputs": [
        {
          "indexed": false,
          "internalType": "address",
          "name": "addr",
          "type": "address"
        }
      ],
      "name": "withdrawalEvent",
      "type": "event"
    },
    {
      "inputs": [],
      "name": "ERC712_VERSION",
      "outputs": [
        {
          "internalType": "string",
          "name": "",
          "type": "string"
        }
      ],
      "stateMutability": "view",
      "type": "function"
    },
    {
      "inputs": [
        {
          "internalType": "string",
          "name": "name_",
          "type": "string"
        }
      ],
      "name": "addressOfExtension",
      "outputs": [
        {
          "internalType": "address",
          "name": "",
          "type": "address"
        }
      ],
      "stateMutability": "view",
      "type": "function"
    },
    {
      "inputs": [
        {
          "internalType": "string",
          "name": "callee",
          "type": "string"
        },
        {
          "internalType": "address",
          "name": "userAddress",
          "type": "address"
        },
        {
          "internalType": "bytes",
          "name": "functionSignature",
          "type": "bytes"
        },
        {
          "internalType": "bytes32",
          "name": "sigR",
          "type": "bytes32"
        },
        {
          "internalType": "bytes32",
          "name": "sigS",
          "type": "bytes32"
        },
        {
          "internalType": "uint8",
          "name": "sigV",
          "type": "uint8"
        }
      ],
      "name": "executeMetaTransaction",
      "outputs": [
        {
          "internalType": "bytes",
          "name": "",
          "type": "bytes"
        }
      ],
      "stateMutability": "payable",
      "type": "function"
    },
    {
      "inputs": [],
      "name": "getChainId",
      "outputs": [
        {
          "internalType": "uint256",
          "name": "id",
          "type": "uint256"
        }
      ],
      "stateMutability": "view",
      "type": "function"
    },
    {
      "inputs": [],
      "name": "getDomainSeperator",
      "outputs": [
        {
          "internalType": "bytes32",
          "name": "",
          "type": "bytes32"
        }
      ],
      "stateMutability": "view",
      "type": "function"
    },
    {
      "inputs": [
        {
          "internalType": "address",
          "name": "addr",
          "type": "address"
        }
      ],
      "name": "getNonce",
      "outputs": [
        {
          "internalType": "uint256",
          "name": "",
          "type": "uint256"
        }
      ],
      "stateMutability": "view",
      "type": "function"
    },
    {
      "inputs": [
        {
          "internalType": "address",
          "name": "userAddress",
          "type": "address"
        },
        {
          "internalType": "bytes",
          "name": "functionSignature",
          "type": "bytes"
        }
      ],
      "name": "getTypedMessageHash",
      "outputs": [
        {
          "internalType": "bytes32",
          "name": "",
          "type": "bytes32"
        }
      ],
      "stateMutability": "view",
      "type": "function"
    },
    {
      "inputs": [
        {
          "internalType": "address",
          "name": "forwarder",
          "type": "address"
        }
      ],
      "name": "setForwarder",
      "outputs": [],
      "stateMutability": "nonpayable",
      "type": "function"
    },
    {
      "inputs": [
        {
          "internalType": "bytes32",
          "name": "messageHash",
          "type": "bytes32"
        }
      ],
      "name": "toTypedMessageHash",
      "outputs": [
        {
          "internalType": "bytes32",
          "name": "",
          "type": "bytes32"
        }
      ],
      "stateMutability": "view",
      "type": "function"
    },
    {
      "inputs": [],
      "name": "version",
      "outputs": [
        {
          "internalType": "string",
          "name": "",
          "type": "string"
        }
      ],
      "stateMutability": "view",
      "type": "function"
    }
  ],
  "bytecode": "0x608060405234801561001057600080fd5b506040516130a53803806130a58339818101604052810190610032919061074a565b60006040518060400160405280600481526020017f76322e3000000000000000000000000000000000000000000000000000000000815250806000908161007991906109da565b505080600160006101000a81548173ffffffffffffffffffffffffffffffffffffffff021916908373ffffffffffffffffffffffffffffffffffffffff160217905550506100cc836104b360201b60201c565b600073ffffffffffffffffffffffffffffffffffffffff168273ffffffffffffffffffffffffffffffffffffffff161461043b5781600460006101000a81548173ffffffffffffffffffffffffffffffffffffffff021916908373ffffffffffffffffffffffffffffffffffffffff160217905550600460009054906101000a900473ffffffffffffffffffffffffffffffffffffffff1673ffffffffffffffffffffffffffffffffffffffff16639870d7fe306040518263ffffffff1660e01b815260040161019c9190610abb565b600060405180830381600087803b1580156101b657600080fd5b505af11580156101ca573d6000803e3d6000fd5b50505050600460009054906101000a900473ffffffffffffffffffffffffffffffffffffffff1673ffffffffffffffffffffffffffffffffffffffff16639870d7fe826040518263ffffffff1660e01b81526004016102299190610abb565b600060405180830381600087803b15801561024357600080fd5b505af1158015610257573d6000803e3d6000fd5b50505050600460009054906101000a900473ffffffffffffffffffffffffffffffffffffffff1673ffffffffffffffffffffffffffffffffffffffff1663e82936616040518060400160405280600481526020017f4e414d4500000000000000000000000000000000000000000000000000000000815250856040518363ffffffff1660e01b81526004016102ed929190610b20565b600060405180830381600087803b15801561030757600080fd5b505af115801561031b573d6000803e3d6000fd5b50505050600460009054906101000a900473ffffffffffffffffffffffffffffffffffffffff1673ffffffffffffffffffffffffffffffffffffffff16630382731960016040518263ffffffff1660e01b815260040161037b9190610b72565b600060405180830381600087803b15801561039557600080fd5b505af11580156103a9573d6000803e3d6000fd5b50505050600460009054906101000a900473ffffffffffffffffffffffffffffffffffffffff1673ffffffffffffffffffffffffffffffffffffffff1663adf88440336040518263ffffffff1660e01b81526004016104089190610abb565b600060405180830381600087803b15801561042257600080fd5b505af1158015610436573d6000803e3d6000fd5b505050505b7f4a5fda6b7feb3c529c4eec78b1eb7022705b12ce800bbd5116112ec06ed2e0eb6040518060400160405280600481526020017f4e414d450000000000000000000000000000000000000000000000000000000081525084336040516104a393929190610b8d565b60405180910390a1505050610c3e565b6104c2816104c560201b60201c565b50565b6040518060800160405280604f8152602001613056604f91398051906020012081805190602001206040518060400160405280600181526020017f3100000000000000000000000000000000000000000000000000000000000000815250805190602001203061053961056f60201b60201c565b60001b604051602001610550959493929190610beb565b6040516020818303038152906040528051906020012060028190555050565b600046905090565b6000604051905090565b600080fd5b600080fd5b600080fd5b600080fd5b6000601f19601f8301169050919050565b7f4e487b7100000000000000000000000000000000000000000000000000000000600052604160045260246000fd5b6105de82610595565b810181811067ffffffffffffffff821117156105fd576105fc6105a6565b5b80604052505050565b6000610610610577565b905061061c82826105d5565b919050565b600067ffffffffffffffff82111561063c5761063b6105a6565b5b61064582610595565b9050602081019050919050565b60005b83811015610670578082015181840152602081019050610655565b60008484015250505050565b600061068f61068a84610621565b610606565b9050828152602081018484840111156106ab576106aa610590565b5b6106b6848285610652565b509392505050565b600082601f8301126106d3576106d261058b565b5b81516106e384826020860161067c565b91505092915050565b600073ffffffffffffffffffffffffffffffffffffffff82169050919050565b6000610717826106ec565b9050919050565b6107278161070c565b811461073257600080fd5b50565b6000815190506107448161071e565b92915050565b60008060006060848603121561076357610762610581565b5b600084015167ffffffffffffffff81111561078157610780610586565b5b61078d868287016106be565b935050602061079e86828701610735565b92505060406107af86828701610735565b9150509250925092565b600081519050919050565b7f4e487b7100000000000000000000000000000000000000000000000000000000600052602260045260246000fd5b6000600282049050600182168061080b57607f821691505b60208210810361081e5761081d6107c4565b5b50919050565b60008190508160005260206000209050919050565b60006020601f8301049050919050565b600082821b905092915050565b6000600883026108867fffffffffffffffffffffffffffffffffffffffffffffffffffffffffffffffff82610849565b6108908683610849565b95508019841693508086168417925050509392505050565b6000819050919050565b6000819050919050565b60006108d76108d26108cd846108a8565b6108b2565b6108a8565b9050919050565b6000819050919050565b6108f1836108bc565b6109056108fd826108de565b848454610856565b825550505050565b600090565b61091a61090d565b6109258184846108e8565b505050565b5b818110156109495761093e600082610912565b60018101905061092b565b5050565b601f82111561098e5761095f81610824565b61096884610839565b81016020851015610977578190505b61098b61098385610839565b83018261092a565b50505b505050565b600082821c905092915050565b60006109b160001984600802610993565b1980831691505092915050565b60006109ca83836109a0565b9150826002028217905092915050565b6109e3826107b9565b67ffffffffffffffff8111156109fc576109fb6105a6565b5b610a0682546107f3565b610a1182828561094d565b600060209050601f831160018114610a445760008415610a32578287015190505b610a3c85826109be565b865550610aa4565b601f198416610a5286610824565b60005b82811015610a7a57848901518255600182019150602085019450602081019050610a55565b86831015610a975784890151610a93601f8916826109a0565b8355505b6001600288020188555050505b505050505050565b610ab58161070c565b82525050565b6000602082019050610ad06000830184610aac565b92915050565b600082825260208201905092915050565b6000610af2826107b9565b610afc8185610ad6565b9350610b0c818560208601610652565b610b1581610595565b840191505092915050565b60006040820190508181036000830152610b3a8185610ae7565b90508181036020830152610b4e8184610ae7565b90509392505050565b60008115159050919050565b610b6c81610b57565b82525050565b6000602082019050610b876000830184610b63565b92915050565b60006060820190508181036000830152610ba78186610ae7565b90508181036020830152610bbb8185610ae7565b9050610bca6040830184610aac565b949350505050565b6000819050919050565b610be581610bd2565b82525050565b600060a082019050610c006000830188610bdc565b610c0d6020830187610bdc565b610c1a6040830186610bdc565b610c276060830185610aac565b610c346080830184610bdc565b9695505050505050565b61240980610c4d6000396000f3fe6080604052600436106100915760003560e01c80633408e470116100595780633408e470146101a357806354fd4d50146101ce57806355494c3e146101f9578063b9998a2414610236578063eae521141461025f57610091565b80630f7e5970146100965780631034b1c0146100c15780631df6c5f2146100fe57806320379ee51461013b5780632d0335ab14610166575b600080fd5b3480156100a257600080fd5b506100ab61028f565b6040516100b8919061112e565b60405180910390f35b3480156100cd57600080fd5b506100e860048036038101906100e3919061119a565b6102c8565b6040516100f591906111d6565b60405180910390f35b34801561010a57600080fd5b5061012560048036038101906101209190611326565b610301565b60405161013291906113b0565b60405180910390f35b34801561014757600080fd5b50610150610313565b60405161015d91906111d6565b60405180910390f35b34801561017257600080fd5b5061018d600480360381019061018891906113f7565b61031d565b60405161019a919061143d565b60405180910390f35b3480156101af57600080fd5b506101b8610366565b6040516101c5919061143d565b60405180910390f35b3480156101da57600080fd5b506101e361036e565b6040516101f0919061112e565b60405180910390f35b34801561020557600080fd5b50610220600480360381019061021b91906114f9565b610400565b60405161022d91906111d6565b60405180910390f35b34801561024257600080fd5b5061025d600480360381019061025891906113f7565b61048f565b005b6102796004803603810190610274919061158e565b610563565b60405161028691906116a8565b60405180910390f35b6040518060400160405280600181526020017f310000000000000000000000000000000000000000000000000000000000000081525081565b60006102d2610313565b826040516020016102e4929190611742565b604051602081830303815290604052805190602001209050919050565b600061030c826108be565b9050919050565b6000600254905090565b6000600360008373ffffffffffffffffffffffffffffffffffffffff1673ffffffffffffffffffffffffffffffffffffffff168152602001908152602001600020549050919050565b600046905090565b60606000805461037d906117a8565b80601f01602080910402602001604051908101604052809291908181526020018280546103a9906117a8565b80156103f65780601f106103cb576101008083540402835291602001916103f6565b820191906000526020600020905b8154815290600101906020018083116103d957829003601f168201915b5050505050905090565b6000806040518060600160405280600360008773ffffffffffffffffffffffffffffffffffffffff1673ffffffffffffffffffffffffffffffffffffffff1681526020019081526020016000205481526020018573ffffffffffffffffffffffffffffffffffffffff16815260200184815250905061048661048182610971565b6102c8565b91505092915050565b600160009054906101000a900473ffffffffffffffffffffffffffffffffffffffff1673ffffffffffffffffffffffffffffffffffffffff163373ffffffffffffffffffffffffffffffffffffffff161461051f576040517f08c379a00000000000000000000000000000000000000000000000000000000081526004016105169061184b565b60405180910390fd5b80600160006101000a81548173ffffffffffffffffffffffffffffffffffffffff021916908373ffffffffffffffffffffffffffffffffffffffff16021790555050565b606060004690506103e981148061057b575061201981145b8061058857506201408381145b15610600573373ffffffffffffffffffffffffffffffffffffffff168773ffffffffffffffffffffffffffffffffffffffff16146105fb576040517f08c379a00000000000000000000000000000000000000000000000000000000081526004016105f2906118dd565b60405180910390fd5b61078c565b60006040518060600160405280600360008b73ffffffffffffffffffffffffffffffffffffffff1673ffffffffffffffffffffffffffffffffffffffff1681526020019081526020016000205481526020018973ffffffffffffffffffffffffffffffffffffffff16815260200188815250905061068188828888886109d9565b6106c0576040517f08c379a00000000000000000000000000000000000000000000000000000000081526004016106b79061196f565b60405180910390fd5b6001600360008a73ffffffffffffffffffffffffffffffffffffffff1673ffffffffffffffffffffffffffffffffffffffff1681526020019081526020016000205461070c91906119be565b600360008a73ffffffffffffffffffffffffffffffffffffffff1673ffffffffffffffffffffffffffffffffffffffff168152602001908152602001600020819055507f5845892132946850460bff5a0083f71031bc5bf9aadcd40f1de79423eac9b10b88338960405161078293929190611a13565b60405180910390a1505b6000610797896108be565b90506000808273ffffffffffffffffffffffffffffffffffffffff1689348c6040516020016107c893929190611af6565b6040516020818303038152906040526040516107e49190611b2f565b6000604051808303816000865af19150503d8060008114610821576040519150601f19603f3d011682016040523d82523d6000602084013e610826565b606091505b5091509150818160405160200161083d9190611b2f565b60405160208183030381529060405260405160200161085c9190611b92565b604051602081830303815290604052906108ac576040517f08c379a00000000000000000000000000000000000000000000000000000000081526004016108a3919061112e565b60405180910390fd5b50809450505050509695505050505050565b600080600460009054906101000a900473ffffffffffffffffffffffffffffffffffffffff1673ffffffffffffffffffffffffffffffffffffffff1663c22707ee846040518263ffffffff1660e01b815260040161091c919061112e565b600060405180830381865afa158015610939573d6000803e3d6000fd5b505050506040513d6000823e3d601f19601f820116820180604052508101906109629190611d50565b90508060400151915050919050565b60006040518060800160405280604381526020016123916043913980519060200120826000015183602001518460400151805190602001206040516020016109bc9493929190611d99565b604051602081830303815290604052805190602001209050919050565b60008073ffffffffffffffffffffffffffffffffffffffff168673ffffffffffffffffffffffffffffffffffffffff1603610a49576040517f08c379a0000000000000000000000000000000000000000000000000000000008152600401610a4090611e50565b60405180910390fd5b6000610a5c610a5787610971565b6102c8565b9050600060018285888860405160008152602001604052604051610a839493929190611e7f565b6020604051602081039080840390855afa158015610aa5573d6000803e3d6000fd5b5050506020604051035190508073ffffffffffffffffffffffffffffffffffffffff168873ffffffffffffffffffffffffffffffffffffffff1614610ae982610b90565b610af284610d6c565b604051602001610b03929190611f8d565b60405160208183030381529060405290610b53576040517f08c379a0000000000000000000000000000000000000000000000000000000008152600401610b4a919061112e565b60405180910390fd5b508073ffffffffffffffffffffffffffffffffffffffff168873ffffffffffffffffffffffffffffffffffffffff16149250505095945050505050565b60606000602867ffffffffffffffff811115610baf57610bae6111fb565b5b6040519080825280601f01601f191660200182016040528015610be15781602001600182028036833780820191505090505b50905060005b6014811015610d43576000816013610bff9190611fc7565b6008610c0b9190611ffb565b6002610c179190612170565b8573ffffffffffffffffffffffffffffffffffffffff16610c3891906121ea565b60f81b9050600060108260f81c610c4f919061221b565b60f81b905060008160f81c6010610c66919061224c565b8360f81c610c749190612289565b60f81b9050610c8282611058565b85856002610c909190611ffb565b81518110610ca157610ca06122be565b5b60200101907effffffffffffffffffffffffffffffffffffffffffffffffffffffffffffff1916908160001a905350610cd981611058565b856001866002610ce99190611ffb565b610cf391906119be565b81518110610d0457610d036122be565b5b60200101907effffffffffffffffffffffffffffffffffffffffffffffffffffffffffffff1916908160001a9053505050508080600101915050610be7565b5080604051602001610d559190612339565b604051602081830303815290604052915050919050565b606060006040518060400160405280601081526020017f30313233343536373839616263646566000000000000000000000000000000008152509050600060026020610db8919061224c565b6002610dc4919061235b565b60ff1667ffffffffffffffff811115610de057610ddf6111fb565b5b6040519080825280601f01601f191660200182016040528015610e125781602001600182028036833780820191505090505b5090507f300000000000000000000000000000000000000000000000000000000000000081600081518110610e4a57610e496122be565b5b60200101907effffffffffffffffffffffffffffffffffffffffffffffffffffffffffffff1916908160001a9053507f780000000000000000000000000000000000000000000000000000000000000081600181518110610eae57610ead6122be565b5b60200101907effffffffffffffffffffffffffffffffffffffffffffffffffffffffffffff1916908160001a90535060005b602060ff1681101561104d57826004868360208110610f0257610f016122be565b5b1a60f81b7effffffffffffffffffffffffffffffffffffffffffffffffffffffffffffff1916901c60f81c60ff1681518110610f4157610f406122be565b5b602001015160f81c60f81b82600283610f5a9190611ffb565b6002610f6691906119be565b81518110610f7757610f766122be565b5b60200101907effffffffffffffffffffffffffffffffffffffffffffffffffffffffffffff1916908160001a90535082600f60f81b868360208110610fbf57610fbe6122be565b5b1a60f81b1660f81c60ff1681518110610fdb57610fda6122be565b5b602001015160f81c60f81b82600283610ff49190611ffb565b600361100091906119be565b81518110611011576110106122be565b5b60200101907effffffffffffffffffffffffffffffffffffffffffffffffffffffffffffff1916908160001a9053508080600101915050610ee0565b508092505050919050565b6000600a8260f81c60ff1610156110835760308260f81c611079919061235b565b60f81b9050611099565b60578260f81c611093919061235b565b60f81b90505b919050565b600081519050919050565b600082825260208201905092915050565b60005b838110156110d85780820151818401526020810190506110bd565b60008484015250505050565b6000601f19601f8301169050919050565b60006111008261109e565b61110a81856110a9565b935061111a8185602086016110ba565b611123816110e4565b840191505092915050565b6000602082019050818103600083015261114881846110f5565b905092915050565b6000604051905090565b600080fd5b600080fd5b6000819050919050565b61117781611164565b811461118257600080fd5b50565b6000813590506111948161116e565b92915050565b6000602082840312156111b0576111af61115a565b5b60006111be84828501611185565b91505092915050565b6111d081611164565b82525050565b60006020820190506111eb60008301846111c7565b92915050565b600080fd5b600080fd5b7f4e487b7100000000000000000000000000000000000000000000000000000000600052604160045260246000fd5b611233826110e4565b810181811067ffffffffffffffff82111715611252576112516111fb565b5b80604052505050565b6000611265611150565b9050611271828261122a565b919050565b600067ffffffffffffffff821115611291576112906111fb565b5b61129a826110e4565b9050602081019050919050565b82818337600083830152505050565b60006112c96112c484611276565b61125b565b9050828152602081018484840111156112e5576112e46111f6565b5b6112f08482856112a7565b509392505050565b600082601f83011261130d5761130c6111f1565b5b813561131d8482602086016112b6565b91505092915050565b60006020828403121561133c5761133b61115a565b5b600082013567ffffffffffffffff81111561135a5761135961115f565b5b611366848285016112f8565b91505092915050565b600073ffffffffffffffffffffffffffffffffffffffff82169050919050565b600061139a8261136f565b9050919050565b6113aa8161138f565b82525050565b60006020820190506113c560008301846113a1565b92915050565b6113d48161138f565b81146113df57600080fd5b50565b6000813590506113f1816113cb565b92915050565b60006020828403121561140d5761140c61115a565b5b600061141b848285016113e2565b91505092915050565b6000819050919050565b61143781611424565b82525050565b6000602082019050611452600083018461142e565b92915050565b600067ffffffffffffffff821115611473576114726111fb565b5b61147c826110e4565b9050602081019050919050565b600061149c61149784611458565b61125b565b9050828152602081018484840111156114b8576114b76111f6565b5b6114c38482856112a7565b509392505050565b600082601f8301126114e0576114df6111f1565b5b81356114f0848260208601611489565b91505092915050565b600080604083850312156115105761150f61115a565b5b600061151e858286016113e2565b925050602083013567ffffffffffffffff81111561153f5761153e61115f565b5b61154b858286016114cb565b9150509250929050565b600060ff82169050919050565b61156b81611555565b811461157657600080fd5b50565b60008135905061158881611562565b92915050565b60008060008060008060c087890312156115ab576115aa61115a565b5b600087013567ffffffffffffffff8111156115c9576115c861115f565b5b6115d589828a016112f8565b96505060206115e689828a016113e2565b955050604087013567ffffffffffffffff8111156116075761160661115f565b5b61161389828a016114cb565b945050606061162489828a01611185565b935050608061163589828a01611185565b92505060a061164689828a01611579565b9150509295509295509295565b600081519050919050565b600082825260208201905092915050565b600061167a82611653565b611684818561165e565b93506116948185602086016110ba565b61169d816110e4565b840191505092915050565b600060208201905081810360008301526116c2818461166f565b905092915050565b600081905092915050565b7f1901000000000000000000000000000000000000000000000000000000000000600082015250565b600061170b6002836116ca565b9150611716826116d5565b600282019050919050565b6000819050919050565b61173c61173782611164565b611721565b82525050565b600061174d826116fe565b9150611759828561172b565b602082019150611769828461172b565b6020820191508190509392505050565b7f4e487b7100000000000000000000000000000000000000000000000000000000600052602260045260246000fd5b600060028204905060018216806117c057607f821691505b6020821081036117d3576117d2611779565b5b50919050565b7f6974206d7573742062652063616c6c6564206279207468652063757272656e7460008201527f20666f7277617264657200000000000000000000000000000000000000000000602082015250565b6000611835602a836110a9565b9150611840826117d9565b604082019050919050565b6000602082019050818103600083015261186481611828565b9050919050565b7f73656e646572206d7573742062652073616d652077697468207573657241646460008201527f7265737300000000000000000000000000000000000000000000000000000000602082015250565b60006118c76024836110a9565b91506118d28261186b565b604082019050919050565b600060208201905081810360008301526118f6816118ba565b9050919050565b7f7369676e657220616e64207369676e617475726520646f206e6f74206d61746360008201527f6800000000000000000000000000000000000000000000000000000000000000602082015250565b60006119596021836110a9565b9150611964826118fd565b604082019050919050565b600060208201905081810360008301526119888161194c565b9050919050565b7f4e487b7100000000000000000000000000000000000000000000000000000000600052601160045260246000fd5b60006119c982611424565b91506119d483611424565b92508282019050808211156119ec576119eb61198f565b5b92915050565b60006119fd8261136f565b9050919050565b611a0d816119f2565b82525050565b6000606082019050611a2860008301866113a1565b611a356020830185611a04565b8181036040830152611a47818461166f565b9050949350505050565b600081905092915050565b6000611a6782611653565b611a718185611a51565b9350611a818185602086016110ba565b80840191505092915050565b6000819050919050565b611aa8611aa382611424565b611a8d565b82525050565b60008160601b9050919050565b6000611ac682611aae565b9050919050565b6000611ad882611abb565b9050919050565b611af0611aeb8261138f565b611acd565b82525050565b6000611b028286611a5c565b9150611b0e8285611a97565b602082019150611b1e8284611adf565b601482019150819050949350505050565b6000611b3b8284611a5c565b915081905092915050565b7f66756e6374696f6e2063616c6c20686173206265656e206661696c65643b2000600082015250565b6000611b7c601f836116ca565b9150611b8782611b46565b601f82019050919050565b6000611b9d82611b6f565b9150611ba98284611a5c565b915081905092915050565b600080fd5b600080fd5b6000611bd1611bcc84611276565b61125b565b905082815260208101848484011115611bed57611bec6111f6565b5b611bf88482856110ba565b509392505050565b600082601f830112611c1557611c146111f1565b5b8151611c25848260208601611bbe565b91505092915050565b611c3781611424565b8114611c4257600080fd5b50565b600081519050611c5481611c2e565b92915050565b600081519050611c69816113cb565b92915050565b60048110611c7c57600080fd5b50565b600081519050611c8e81611c6f565b92915050565b600060c08284031215611caa57611ca9611bb4565b5b611cb460c061125b565b9050600082015167ffffffffffffffff811115611cd457611cd3611bb9565b5b611ce084828501611c00565b6000830152506020611cf484828501611c45565b6020830152506040611d0884828501611c5a565b6040830152506060611d1c84828501611c45565b6060830152506080611d3084828501611c45565b60808301525060a0611d4484828501611c7f565b60a08301525092915050565b600060208284031215611d6657611d6561115a565b5b600082015167ffffffffffffffff811115611d8457611d8361115f565b5b611d9084828501611c94565b91505092915050565b6000608082019050611dae60008301876111c7565b611dbb602083018661142e565b611dc860408301856113a1565b611dd560608301846111c7565b95945050505050565b7f4e61746976654d6574615472616e73616374696f6e3a20494e56414c49445f5360008201527f49474e4552000000000000000000000000000000000000000000000000000000602082015250565b6000611e3a6025836110a9565b9150611e4582611dde565b604082019050919050565b60006020820190508181036000830152611e6981611e2d565b9050919050565b611e7981611555565b82525050565b6000608082019050611e9460008301876111c7565b611ea16020830186611e70565b611eae60408301856111c7565b611ebb60608301846111c7565b95945050505050565b7f6d69736d61746368656420616464726573733b00000000000000000000000000600082015250565b6000611efa6013836116ca565b9150611f0582611ec4565b601382019050919050565b6000611f1b8261109e565b611f2581856116ca565b9350611f358185602086016110ba565b80840191505092915050565b7f2c20000000000000000000000000000000000000000000000000000000000000600082015250565b6000611f776002836116ca565b9150611f8282611f41565b600282019050919050565b6000611f9882611eed565b9150611fa48285611f10565b9150611faf82611f6a565b9150611fbb8284611f10565b91508190509392505050565b6000611fd282611424565b9150611fdd83611424565b9250828203905081811115611ff557611ff461198f565b5b92915050565b600061200682611424565b915061201183611424565b925082820261201f81611424565b915082820484148315176120365761203561198f565b5b5092915050565b60008160011c9050919050565b6000808291508390505b6001851115612094578086048111156120705761206f61198f565b5b600185161561207f5780820291505b808102905061208d8561203d565b9450612054565b94509492505050565b6000826120ad5760019050612169565b816120bb5760009050612169565b81600181146120d157600281146120db5761210a565b6001915050612169565b60ff8411156120ed576120ec61198f565b5b8360020a9150848211156121045761210361198f565b5b50612169565b5060208310610133831016604e8410600b841016171561213f5782820a90508381111561213a5761213961198f565b5b612169565b61214c848484600161204a565b925090508184048111156121635761216261198f565b5b81810290505b9392505050565b600061217b82611424565b915061218683611424565b92506121b37fffffffffffffffffffffffffffffffffffffffffffffffffffffffffffffffff848461209d565b905092915050565b7f4e487b7100000000000000000000000000000000000000000000000000000000600052601260045260246000fd5b60006121f582611424565b915061220083611424565b9250826122105761220f6121bb565b5b828204905092915050565b600061222682611555565b915061223183611555565b925082612241576122406121bb565b5b828204905092915050565b600061225782611555565b915061226283611555565b925082820261227081611555565b91508082146122825761228161198f565b5b5092915050565b600061229482611555565b915061229f83611555565b9250828203905060ff8111156122b8576122b761198f565b5b92915050565b7f4e487b7100000000000000000000000000000000000000000000000000000000600052603260045260246000fd5b7f3078000000000000000000000000000000000000000000000000000000000000600082015250565b60006123236002836116ca565b915061232e826122ed565b600282019050919050565b600061234482612316565b91506123508284611a5c565b915081905092915050565b600061236682611555565b915061237183611555565b9250828201905060ff81111561238a5761238961198f565b5b9291505056fe4d6574615472616e73616374696f6e2875696e74323536206e6f6e63652c616464726573732066726f6d2c62797465732066756e6374696f6e5369676e617475726529a264697066735822122005943c07c72a8b3f32d813774132903c10ae6f8c9ff3f2bdb8543f1a9ceb8dfd64736f6c634300081c0033454950373132446f6d61696e28737472696e67206e616d652c737472696e672076657273696f6e2c6164647265737320766572696679696e67436f6e74726163742c627974657333322073616c7429",
  "linkReferences": {},
  "deployedLinkReferences": {}
}