{
  "_format": "hh-sol-artifact-1",
  "contractName": "DaoRegistryStateV1",
  "sourceName": "contracts/dao-registry/DaoRegistryStateV1.sol",
  "abi": [
    {
      "inputs": [
        {
          "internalType": "address",
          "name": "operator",
          "type": "address"
        }
      ],
      "stateMutability": "nonpayable",
      "type": "constructor"
    },
    {
      "inputs": [
        {
          "internalType": "address",
          "name": "o",
          "type": "address"
        }
      ],
      "name": "addDaoStateOperator",
      "outputs": [],
      "stateMutability": "nonpayable",
      "type": "function"
    },
    {
      "inputs": [
        {
          "internalType": "string",
          "name": "name",
          "type": "string"
        },
        {
          "internalType": "string",
          "name": "value",
          "type": "string"
        }
      ],
      "name": "addNamedString",
      "outputs": [],
      "stateMutability": "nonpayable",
      "type": "function"
    },
    {
      "inputs": [
        {
          "internalType": "address",
          "name": "o",
          "type": "address"
        }
      ],
      "name": "addOperator",
      "outputs": [],
      "stateMutability": "nonpayable",
      "type": "function"
    },
    {
      "inputs": [
        {
          "internalType": "bool",
          "name": "allowPublicReadCheck",
          "type": "bool"
        }
      ],
      "name": "allowPublicRead",
      "outputs": [],
      "stateMutability": "nonpayable",
      "type": "function"
    },
    {
      "inputs": [
        {
          "internalType": "bool",
          "name": "allowPublicWriteCheck",
          "type": "bool"
        }
      ],
      "name": "allowPublicWrite",
      "outputs": [],
      "stateMutability": "nonpayable",
      "type": "function"
    },
    {
      "inputs": [
        {
          "internalType": "bool",
          "name": "ready",
          "type": "bool"
        }
      ],
      "name": "allowReady",
      "outputs": [],
      "stateMutability": "nonpayable",
      "type": "function"
    },
    {
      "inputs": [
        {
          "internalType": "address",
          "name": "o",
          "type": "address"
        }
      ],
      "name": "delOperator",
      "outputs": [],
      "stateMutability": "nonpayable",
      "type": "function"
    },
    {
      "inputs": [
        {
          "internalType": "address",
          "name": "o",
          "type": "address"
        }
      ],
      "name": "existsOperator",
      "outputs": [
        {
          "internalType": "bool",
          "name": "",
          "type": "bool"
        }
      ],
      "stateMutability": "view",
      "type": "function"
    },
    {
      "inputs": [],
      "name": "getDaoManagerAddress",
      "outputs": [
        {
          "internalType": "address",
          "name": "",
          "type": "address"
        }
      ],
      "stateMutability": "view",
      "type": "function"
    },
    {
      "inputs": [
        {
          "internalType": "string",
          "name": "name",
          "type": "string"
        }
      ],
      "name": "getExtension",
      "outputs": [
        {
          "components": [
            {
              "internalType": "string",
              "name": "name",
              "type": "string"
            },
            {
              "internalType": "uint256",
              "name": "revision",
              "type": "uint256"
            },
            {
              "internalType": "address",
              "name": "addr",
              "type": "address"
            },
            {
              "internalType": "uint256",
              "name": "permissions",
              "type": "uint256"
            },
            {
              "internalType": "uint256",
              "name": "hookPermissions",
              "type": "uint256"
            },
            {
              "internalType": "enum ExtensionType",
              "name": "extensionType",
              "type": "uint8"
            }
          ],
          "internalType": "struct RegisteredExtension",
          "name": "",
          "type": "tuple"
        }
      ],
      "stateMutability": "view",
      "type": "function"
    },
    {
      "inputs": [],
      "name": "getStateReady",
      "outputs": [
        {
          "internalType": "bool",
          "name": "",
          "type": "bool"
        }
      ],
      "stateMutability": "view",
      "type": "function"
    },
    {
      "inputs": [],
      "name": "lengthOfOperators",
      "outputs": [
        {
          "internalType": "uint256",
          "name": "",
          "type": "uint256"
        }
      ],
      "stateMutability": "view",
      "type": "function"
    },
    {
      "inputs": [],
      "name": "listOperators",
      "outputs": [
        {
          "internalType": "address[]",
          "name": "operators",
          "type": "address[]"
        }
      ],
      "stateMutability": "view",
      "type": "function"
    },
    {
      "inputs": [
        {
          "internalType": "address",
          "name": "to",
          "type": "address"
        }
      ],
      "name": "migrate",
      "outputs": [],
      "stateMutability": "nonpayable",
      "type": "function"
    },
    {
      "inputs": [],
      "name": "publicRead",
      "outputs": [
        {
          "internalType": "bool",
          "name": "",
          "type": "bool"
        }
      ],
      "stateMutability": "view",
      "type": "function"
    },
    {
      "inputs": [],
      "name": "publicWrite",
      "outputs": [
        {
          "internalType": "bool",
          "name": "",
          "type": "bool"
        }
      ],
      "stateMutability": "view",
      "type": "function"
    },
    {
      "inputs": [
        {
          "internalType": "address",
          "name": "daoManager",
          "type": "address"
        }
      ],
      "name": "setDaoManagerAddress",
      "outputs": [],
      "stateMutability": "nonpayable",
      "type": "function"
    },
    {
      "inputs": [
        {
          "internalType": "bool",
          "name": "ready",
          "type": "bool"
        }
      ],
      "name": "setStateReady",
      "outputs": [],
      "stateMutability": "nonpayable",
      "type": "function"
    }
  ],
  "bytecode": "0x608060405260006002806101000a81548160ff02191690831515021790555034801561002a57600080fd5b50604051612aa2380380612aa2833981810160405281019061004c919061040c565b80600073ffffffffffffffffffffffffffffffffffffffff168173ffffffffffffffffffffffffffffffffffffffff16036100bc576040517f08c379a00000000000000000000000000000000000000000000000000000000081526004016100b390610496565b60405180910390fd5b60006100d5826001600061013a60201b9092919060201c565b905080610117576040517f08c379a000000000000000000000000000000000000000000000000000000000815260040161010e90610502565b60405180910390fd5b6001600260006101000a81548160ff021916908315150217905550505050610551565b60008360010160008473ffffffffffffffffffffffffffffffffffffffff1673ffffffffffffffffffffffffffffffffffffffff16815260200190815260200160002060000160009054906101000a900460ff168015610198575081155b156101a657600090506103a2565b8360010160008473ffffffffffffffffffffffffffffffffffffffff1673ffffffffffffffffffffffffffffffffffffffff16815260200190815260200160002060000160009054906101000a900460ff166102f357604051806040016040528060011515815260200185600001805490508152508460010160008573ffffffffffffffffffffffffffffffffffffffff1673ffffffffffffffffffffffffffffffffffffffff16815260200190815260200160002060008201518160000160006101000a81548160ff0219169083151502179055506020820151816001015590505083600001839080600181540180825580915050600190039060005260206000200160009091909190916101000a81548173ffffffffffffffffffffffffffffffffffffffff021916908373ffffffffffffffffffffffffffffffffffffffff16021790555061039d565b60008460010160008573ffffffffffffffffffffffffffffffffffffffff1673ffffffffffffffffffffffffffffffffffffffff1681526020019081526020016000206001015490508385600001828154811061035357610352610522565b5b9060005260206000200160006101000a81548173ffffffffffffffffffffffffffffffffffffffff021916908373ffffffffffffffffffffffffffffffffffffffff160217905550505b600190505b9392505050565b600080fd5b600073ffffffffffffffffffffffffffffffffffffffff82169050919050565b60006103d9826103ae565b9050919050565b6103e9816103ce565b81146103f457600080fd5b50565b600081519050610406816103e0565b92915050565b600060208284031215610422576104216103a9565b5b6000610430848285016103f7565b91505092915050565b600082825260208201905092915050565b7f696e76616c6964206f776e657200000000000000000000000000000000000000600082015250565b6000610480600d83610439565b915061048b8261044a565b602082019050919050565b600060208201905081810360008301526104af81610473565b9050919050565b7f696e7465726e616c206572726f72000000000000000000000000000000000000600082015250565b60006104ec600e83610439565b91506104f7826104b6565b602082019050919050565b6000602082019050818103600083015261051b816104df565b9050919050565b7f4e487b7100000000000000000000000000000000000000000000000000000000600052603260045260246000fd5b612542806105606000396000f3fe608060405234801561001057600080fd5b50600436106101165760003560e01c8063af334757116100a2578063ce5494bb11610071578063ce5494bb146102b7578063ce552366146102d3578063d33fb79f146102f1578063e0c71bd01461030f578063e82936611461032b57610116565b8063af3347571461021d578063b10944381461023b578063b7ddd8dd1461026b578063c22707ee1461028757610116565b80633501e0a2116100e95780633501e0a21461018f5780633e30838d146101ad578063652b047e146101c95780639870d7fe146101e5578063adf884401461020157610116565b8063038273191461011b578063039a93ca146101375780631ed1cd05146101555780631ed995d114610171575b600080fd5b61013560048036038101906101309190611919565b610347565b005b61013f6103e3565b60405161014c9190611a36565b60405180910390f35b61016f600480360381019061016a9190611919565b610474565b005b610179610510565b6040516101869190611a71565b60405180910390f35b6101976105a1565b6040516101a49190611a9b565b60405180910390f35b6101c760048036038101906101c29190611ae2565b610636565b005b6101e360048036038101906101de9190611ae2565b6106cd565b005b6101ff60048036038101906101fa9190611ae2565b610767565b005b61021b60048036038101906102169190611ae2565b610801565b005b6102256108c5565b6040516102329190611a9b565b60405180910390f35b61025560048036038101906102509190611ae2565b61095c565b6040516102629190611a9b565b60405180910390f35b61028560048036038101906102809190611919565b6109f9565b005b6102a1600480360381019061029c9190611c55565b610a96565b6040516102ae9190611e2c565b60405180910390f35b6102d160048036038101906102cc9190611ae2565b610b39565b005b6102db610bce565b6040516102e89190611e5d565b60405180910390f35b6102f9610c78565b6040516103069190611a9b565b60405180910390f35b61032960048036038101906103249190611919565b610d0f565b005b61034560048036038101906103409190611ed8565b610dac565b005b60028054906101000a900460ff16158061036d5750600260019054906101000a900460ff165b806103885750610387336000610e5390919063ffffffff16565b5b6103c7576040517f08c379a00000000000000000000000000000000000000000000000000000000081526004016103be90611fb6565b60405180910390fd5b806002806101000a81548160ff02191690831515021790555050565b606060028054906101000a900460ff16158061040b5750600260009054906101000a900460ff165b806104265750610425336000610e5390919063ffffffff16565b5b610465576040517f08c379a000000000000000000000000000000000000000000000000000000000815260040161045c90612022565b60405180910390fd5b61046f6000610eaf565b905090565b60028054906101000a900460ff16158061049a5750600260019054906101000a900460ff165b806104b557506104b4336000610e5390919063ffffffff16565b5b6104f4576040517f08c379a00000000000000000000000000000000000000000000000000000000081526004016104eb90611fb6565b60405180910390fd5b806002806101000a81548160ff02191690831515021790555050565b600060028054906101000a900460ff1615806105385750600260009054906101000a900460ff165b806105535750610552336000610e5390919063ffffffff16565b5b610592576040517f08c379a000000000000000000000000000000000000000000000000000000000815260040161058990612022565b60405180910390fd5b61059c6000610f41565b905090565b600060028054906101000a900460ff1615806105c95750600260009054906101000a900460ff165b806105e457506105e3336000610e5390919063ffffffff16565b5b610623576040517f08c379a000000000000000000000000000000000000000000000000000000000815260040161061a90612022565b60405180910390fd5b60028054906101000a900460ff16905090565b60028054906101000a900460ff16158061065c5750600260019054906101000a900460ff165b806106775750610676336000610e5390919063ffffffff16565b5b6106b6576040517f08c379a00000000000000000000000000000000000000000000000000000000081526004016106ad90611fb6565b60405180910390fd5b6106ca816000610f5290919063ffffffff16565b50565b60028054906101000a900460ff1615806106f35750600260019054906101000a900460ff165b8061070e575061070d336000610e5390919063ffffffff16565b5b61074d576040517f08c379a000000000000000000000000000000000000000000000000000000000815260040161074490611fb6565b60405180910390fd5b6107638160008061126b9092919063ffffffff16565b5050565b60028054906101000a900460ff16158061078d5750600260019054906101000a900460ff165b806107a857506107a7336000610e5390919063ffffffff16565b5b6107e7576040517f08c379a00000000000000000000000000000000000000000000000000000000081526004016107de90611fb6565b60405180910390fd5b6107fd8160008061126b9092919063ffffffff16565b5050565b60028054906101000a900460ff1615806108275750600260019054906101000a900460ff165b806108425750610841336000610e5390919063ffffffff16565b5b610881576040517f08c379a000000000000000000000000000000000000000000000000000000000815260040161087890611fb6565b60405180910390fd5b80601b60006101000a81548173ffffffffffffffffffffffffffffffffffffffff021916908373ffffffffffffffffffffffffffffffffffffffff16021790555050565b600060028054906101000a900460ff1615806108ed5750600260009054906101000a900460ff165b806109085750610907336000610e5390919063ffffffff16565b5b610947576040517f08c379a000000000000000000000000000000000000000000000000000000000815260040161093e90612022565b60405180910390fd5b600260009054906101000a900460ff16905090565b600060028054906101000a900460ff1615806109845750600260009054906101000a900460ff165b8061099f575061099e336000610e5390919063ffffffff16565b5b6109de576040517f08c379a00000000000000000000000000000000000000000000000000000000081526004016109d590612022565b60405180910390fd5b6109f2826000610e5390919063ffffffff16565b9050919050565b60028054906101000a900460ff161580610a1f5750600260019054906101000a900460ff165b80610a3a5750610a39336000610e5390919063ffffffff16565b5b610a79576040517f08c379a0000000000000000000000000000000000000000000000000000000008152600401610a7090611fb6565b60405180910390fd5b80600260016101000a81548160ff02191690831515021790555050565b610a9e61186f565b60028054906101000a900460ff161580610ac45750600260009054906101000a900460ff165b80610adf5750610ade336000610e5390919063ffffffff16565b5b610b1e576040517f08c379a0000000000000000000000000000000000000000000000000000000008152600401610b1590612022565b60405180910390fd5b610b3282600b6114da90919063ffffffff16565b9050919050565b60028054906101000a900460ff161580610b5f5750600260019054906101000a900460ff165b80610b7a5750610b79336000610e5390919063ffffffff16565b5b610bb9576040517f08c379a0000000000000000000000000000000000000000000000000000000008152600401610bb090611fb6565b60405180910390fd5b610bc281610767565b610bcb33610636565b50565b600060028054906101000a900460ff161580610bf65750600260009054906101000a900460ff165b80610c115750610c10336000610e5390919063ffffffff16565b5b610c50576040517f08c379a0000000000000000000000000000000000000000000000000000000008152600401610c4790612022565b60405180910390fd5b601b60009054906101000a900473ffffffffffffffffffffffffffffffffffffffff16905090565b600060028054906101000a900460ff161580610ca05750600260009054906101000a900460ff165b80610cbb5750610cba336000610e5390919063ffffffff16565b5b610cfa576040517f08c379a0000000000000000000000000000000000000000000000000000000008152600401610cf190612022565b60405180910390fd5b600260019054906101000a900460ff16905090565b60028054906101000a900460ff161580610d355750600260019054906101000a900460ff165b80610d505750610d4f336000610e5390919063ffffffff16565b5b610d8f576040517f08c379a0000000000000000000000000000000000000000000000000000000008152600401610d8690611fb6565b60405180910390fd5b80600260006101000a81548160ff02191690831515021790555050565b610e4d84848080601f016020809104026020016040519081016040528093929190818152602001838380828437600081840152601f19601f8201169050808301925050505050505083838080601f016020809104026020016040519081016040528093929190818152602001838380828437600081840152601f19601f8201169050808301925050505050505060006003611656909392919063ffffffff16565b50505050565b60008260010160008373ffffffffffffffffffffffffffffffffffffffff1673ffffffffffffffffffffffffffffffffffffffff16815260200190815260200160002060000160009054906101000a900460ff16905092915050565b606081600001805480602002602001604051908101604052809291908181526020018280548015610f3557602002820191906000526020600020905b8160009054906101000a900473ffffffffffffffffffffffffffffffffffffffff1673ffffffffffffffffffffffffffffffffffffffff1681526020019060010190808311610eeb575b50505050509050919050565b600081600001805490509050919050565b8160010160008273ffffffffffffffffffffffffffffffffffffffff1673ffffffffffffffffffffffffffffffffffffffff16815260200190815260200160002060000160009054906101000a900460ff16610fe3576040517f08c379a0000000000000000000000000000000000000000000000000000000008152600401610fda9061208e565b60405180910390fd5b60008260010160008373ffffffffffffffffffffffffffffffffffffffff1673ffffffffffffffffffffffffffffffffffffffff1681526020019081526020016000206001015490506000836000016001856000018054905061104691906120dd565b8154811061105757611056612111565b5b9060005260206000200160009054906101000a900473ffffffffffffffffffffffffffffffffffffffff1690506040518060400160405280600115158152602001838152508460010160008373ffffffffffffffffffffffffffffffffffffffff1673ffffffffffffffffffffffffffffffffffffffff16815260200190815260200160002060008201518160000160006101000a81548160ff021916908315150217905550602082015181600101559050508360010160008473ffffffffffffffffffffffffffffffffffffffff1673ffffffffffffffffffffffffffffffffffffffff168152602001908152602001600020600080820160006101000a81549060ff021916905560018201600090555050836000016001856000018054905061118291906120dd565b8154811061119357611192612111565b5b9060005260206000200160009054906101000a900473ffffffffffffffffffffffffffffffffffffffff168460000183815481106111d4576111d3612111565b5b9060005260206000200160006101000a81548173ffffffffffffffffffffffffffffffffffffffff021916908373ffffffffffffffffffffffffffffffffffffffff160217905550836000018054806112305761122f612140565b5b6001900381819060005260206000200160006101000a81549073ffffffffffffffffffffffffffffffffffffffff0219169055905550505050565b60008360010160008473ffffffffffffffffffffffffffffffffffffffff1673ffffffffffffffffffffffffffffffffffffffff16815260200190815260200160002060000160009054906101000a900460ff1680156112c9575081155b156112d757600090506114d3565b8360010160008473ffffffffffffffffffffffffffffffffffffffff1673ffffffffffffffffffffffffffffffffffffffff16815260200190815260200160002060000160009054906101000a900460ff1661142457604051806040016040528060011515815260200185600001805490508152508460010160008573ffffffffffffffffffffffffffffffffffffffff1673ffffffffffffffffffffffffffffffffffffffff16815260200190815260200160002060008201518160000160006101000a81548160ff0219169083151502179055506020820151816001015590505083600001839080600181540180825580915050600190039060005260206000200160009091909190916101000a81548173ffffffffffffffffffffffffffffffffffffffff021916908373ffffffffffffffffffffffffffffffffffffffff1602179055506114ce565b60008460010160008573ffffffffffffffffffffffffffffffffffffffff1673ffffffffffffffffffffffffffffffffffffffff1681526020019081526020016000206001015490508385600001828154811061148457611483612111565b5b9060005260206000200160006101000a81548173ffffffffffffffffffffffffffffffffffffffff021916908373ffffffffffffffffffffffffffffffffffffffff160217905550505b600190505b9392505050565b6114e261186f565b82600401826040516114f491906121ab565b90815260200160405180910390206040518060c001604052908160008201805461151d906121f1565b80601f0160208091040260200160405190810160405280929190818152602001828054611549906121f1565b80156115965780601f1061156b57610100808354040283529160200191611596565b820191906000526020600020905b81548152906001019060200180831161157957829003601f168201915b50505050508152602001600182015481526020016002820160009054906101000a900473ffffffffffffffffffffffffffffffffffffffff1673ffffffffffffffffffffffffffffffffffffffff1673ffffffffffffffffffffffffffffffffffffffff16815260200160038201548152602001600482015481526020016005820160009054906101000a900460ff16600381111561163857611637611d2c565b5b600381111561164a57611649611d2c565b5b81525050905092915050565b836003018360405161166891906121ab565b908152602001604051809103902060000160009054906101000a900460ff1615806116905750805b6116cf576040517f08c379a00000000000000000000000000000000000000000000000000000000081526004016116c69061226e565b60405180910390fd5b83600301836040516116e191906121ab565b908152602001604051809103902060000160009054906101000a900460ff166117e35760405180604001604052806001151581526020018560000180549050815250846003018460405161173591906121ab565b908152602001604051809103902060008201518160000160006101000a81548160ff0219169083151502179055506020820151816001015590505083600001839080600181540180825580915050600190039060005260206000200160009091909190915090816117a6919061243a565b5083600101829080600181540180825580915050600190039060005260206000200160009091909190915090816117dd919061243a565b5061183b565b600084600301846040516117f791906121ab565b90815260200160405180910390206001015490508285600101828154811061182257611821612111565b5b906000526020600020019081611838919061243a565b50505b81846002018460405161184e91906121ab565b90815260200160405180910390209081611868919061243a565b5050505050565b6040518060c001604052806060815260200160008152602001600073ffffffffffffffffffffffffffffffffffffffff1681526020016000815260200160008152602001600060038111156118c7576118c6611d2c565b5b81525090565b6000604051905090565b600080fd5b600080fd5b60008115159050919050565b6118f6816118e1565b811461190157600080fd5b50565b600081359050611913816118ed565b92915050565b60006020828403121561192f5761192e6118d7565b5b600061193d84828501611904565b91505092915050565b600081519050919050565b600082825260208201905092915050565b6000819050602082019050919050565b600073ffffffffffffffffffffffffffffffffffffffff82169050919050565b600061199d82611972565b9050919050565b6119ad81611992565b82525050565b60006119bf83836119a4565b60208301905092915050565b6000602082019050919050565b60006119e382611946565b6119ed8185611951565b93506119f883611962565b8060005b83811015611a29578151611a1088826119b3565b9750611a1b836119cb565b9250506001810190506119fc565b5085935050505092915050565b60006020820190508181036000830152611a5081846119d8565b905092915050565b6000819050919050565b611a6b81611a58565b82525050565b6000602082019050611a866000830184611a62565b92915050565b611a95816118e1565b82525050565b6000602082019050611ab06000830184611a8c565b92915050565b611abf81611992565b8114611aca57600080fd5b50565b600081359050611adc81611ab6565b92915050565b600060208284031215611af857611af76118d7565b5b6000611b0684828501611acd565b91505092915050565b600080fd5b600080fd5b6000601f19601f8301169050919050565b7f4e487b7100000000000000000000000000000000000000000000000000000000600052604160045260246000fd5b611b6282611b19565b810181811067ffffffffffffffff82111715611b8157611b80611b2a565b5b80604052505050565b6000611b946118cd565b9050611ba08282611b59565b919050565b600067ffffffffffffffff821115611bc057611bbf611b2a565b5b611bc982611b19565b9050602081019050919050565b82818337600083830152505050565b6000611bf8611bf384611ba5565b611b8a565b905082815260208101848484011115611c1457611c13611b14565b5b611c1f848285611bd6565b509392505050565b600082601f830112611c3c57611c3b611b0f565b5b8135611c4c848260208601611be5565b91505092915050565b600060208284031215611c6b57611c6a6118d7565b5b600082013567ffffffffffffffff811115611c8957611c886118dc565b5b611c9584828501611c27565b91505092915050565b600081519050919050565b600082825260208201905092915050565b60005b83811015611cd8578082015181840152602081019050611cbd565b60008484015250505050565b6000611cef82611c9e565b611cf98185611ca9565b9350611d09818560208601611cba565b611d1281611b19565b840191505092915050565b611d2681611a58565b82525050565b7f4e487b7100000000000000000000000000000000000000000000000000000000600052602160045260246000fd5b60048110611d6c57611d6b611d2c565b5b50565b6000819050611d7d82611d5b565b919050565b6000611d8d82611d6f565b9050919050565b611d9d81611d82565b82525050565b600060c0830160008301518482036000860152611dc08282611ce4565b9150506020830151611dd56020860182611d1d565b506040830151611de860408601826119a4565b506060830151611dfb6060860182611d1d565b506080830151611e0e6080860182611d1d565b5060a0830151611e2160a0860182611d94565b508091505092915050565b60006020820190508181036000830152611e468184611da3565b905092915050565b611e5781611992565b82525050565b6000602082019050611e726000830184611e4e565b92915050565b600080fd5b600080fd5b60008083601f840112611e9857611e97611b0f565b5b8235905067ffffffffffffffff811115611eb557611eb4611e78565b5b602083019150836001820283011115611ed157611ed0611e7d565b5b9250929050565b60008060008060408587031215611ef257611ef16118d7565b5b600085013567ffffffffffffffff811115611f1057611f0f6118dc565b5b611f1c87828801611e82565b9450945050602085013567ffffffffffffffff811115611f3f57611f3e6118dc565b5b611f4b87828801611e82565b925092505092959194509250565b600082825260208201905092915050565b7f6e6f207772697465207065726d697373696f6e00000000000000000000000000600082015250565b6000611fa0601383611f59565b9150611fab82611f6a565b602082019050919050565b60006020820190508181036000830152611fcf81611f93565b9050919050565b7f6e6f2072656164207065726d697373696f6e0000000000000000000000000000600082015250565b600061200c601283611f59565b915061201782611fd6565b602082019050919050565b6000602082019050818103600083015261203b81611fff565b9050919050565b7f6e6f7420666f756e642061646472657373000000000000000000000000000000600082015250565b6000612078601183611f59565b915061208382612042565b602082019050919050565b600060208201905081810360008301526120a78161206b565b9050919050565b7f4e487b7100000000000000000000000000000000000000000000000000000000600052601160045260246000fd5b60006120e882611a58565b91506120f383611a58565b925082820390508181111561210b5761210a6120ae565b5b92915050565b7f4e487b7100000000000000000000000000000000000000000000000000000000600052603260045260246000fd5b7f4e487b7100000000000000000000000000000000000000000000000000000000600052603160045260246000fd5b600081905092915050565b600061218582611c9e565b61218f818561216f565b935061219f818560208601611cba565b80840191505092915050565b60006121b7828461217a565b915081905092915050565b7f4e487b7100000000000000000000000000000000000000000000000000000000600052602260045260246000fd5b6000600282049050600182168061220957607f821691505b60208210810361221c5761221b6121c2565b5b50919050565b7f6661696c656420746f20696e7365727400000000000000000000000000000000600082015250565b6000612258601083611f59565b915061226382612222565b602082019050919050565b600060208201905081810360008301526122878161224b565b9050919050565b60008190508160005260206000209050919050565b60006020601f8301049050919050565b600082821b905092915050565b6000600883026122f07fffffffffffffffffffffffffffffffffffffffffffffffffffffffffffffffff826122b3565b6122fa86836122b3565b95508019841693508086168417925050509392505050565b6000819050919050565b600061233761233261232d84611a58565b612312565b611a58565b9050919050565b6000819050919050565b6123518361231c565b61236561235d8261233e565b8484546122c0565b825550505050565b600090565b61237a61236d565b612385818484612348565b505050565b5b818110156123a95761239e600082612372565b60018101905061238b565b5050565b601f8211156123ee576123bf8161228e565b6123c8846122a3565b810160208510156123d7578190505b6123eb6123e3856122a3565b83018261238a565b50505b505050565b600082821c905092915050565b6000612411600019846008026123f3565b1980831691505092915050565b600061242a8383612400565b9150826002028217905092915050565b61244382611c9e565b67ffffffffffffffff81111561245c5761245b611b2a565b5b61246682546121f1565b6124718282856123ad565b600060209050601f8311600181146124a45760008415612492578287015190505b61249c858261241e565b865550612504565b601f1984166124b28661228e565b60005b828110156124da578489015182556001820191506020850194506020810190506124b5565b868310156124f757848901516124f3601f891682612400565b8355505b6001600288020188555050505b50505050505056fea26469706673582212208a9be28c82bd435f341ebd17ce1d0835233ff28002e43b36778fc015f6341db364736f6c634300081c0033",
  "linkReferences": {},
  "deployedLinkReferences": {}
}